:020000040000FA
:100000000C9419020C9442020C9442020C94420289
:100010000C9442020C9442020C9442020C94420250
:100020000C9442020C94E31F0C9442020C94420282
:100030000C9442020C9442020C9442020C94420230
:100040000C9433410C9442020C94AA2F0C9442025B
:100050000C9442020C9442020C9442020C94420210
:100060000C9442020C9442020C9442020C94420200
:100070000C9442020C9442020C9442020C944202F0
:100080000C9442020C9442020C9442020C944202E0
:100090000C944202BF6D0000000000000000000050
:1000A000000000000000000000000000004001000F
:1000B000A40000004D6179203239203230303900FF
:1000C0000000000031313A30383A3330000000008F
:1000D0000000000002000B00342E312E3200000020
:1000E0000000000000000000000000000000000010
:1000F0000000000054414150504C494300000000B2
:100100000000000000002110422063308440A55010
:10011000C660E770088129914AA16BB18CC1ADD14D
:10012000CEE1EFF13112100273325222B5529442F5
:10013000F772D662399318837BB35AA3BDD39CC39D
:10014000FFF3DEE36224433420040114E664C77441
:10015000A44485546AA54BB528850995EEE5CFF5ED
:10016000ACC58DD55336722611163006D776F66695
:100170009556B4465BB77AA719973887DFF7FEE73D
:100180009DD7BCC7C448E5588668A7784008611861
:1001900002282338CCC9EDD98EE9AFF9488969998D
:1001A0000AA92BB9F55AD44AB77A966A711A500A35
:1001B000333A122AFDDBDCCBBFFB9EEB799B588BDD
:1001C0003BBB1AABA66C877CE44CC55C222C033C81
:1001D000600C411CAEED8FFDECCDCDDD2AAD0BBD2D
:1001E000688D499D977EB66ED55EF44E133E322ED5
:1001F000511E700E9FFFBEEFDDDFFCCF1BBF3AAF7D
:10020000599F788F8891A981CAB1EBA10CD12DC1DA
:100210004EF16FE18010A100C230E3200450254070
:1002200046706760B9839893FBA3DAB33DC31CD3D0
:100230007FE35EF3B1029012F322D23235421452C0
:1002400077625672EAB5CBA5A89589856EF54FE51C
:100250002CD50DC5E234C324A01481046674476410
:1002600024540544DBA7FAB79987B8975FE77EF770
:100270001DC73CD7D326F2369106B0165766767660
:10028000154634564CD96DC90EF92FE9C899E9893C
:100290008AB9ABA94458654806782768C018E108B0
:1002A0008238A3287DCB5CDB3FEB1EFBF98BD89B10
:1002B000BBAB9ABB754A545A376A167AF10AD01A00
:1002C000B32A923A2EFD0FED6CDD4DCDAABD8BAD5C
:1002D000E89DC98D267C076C645C454CA23C832C50
:1002E000E01CC10C1FEF3EFF5DCF7CDF9BAFBABFB0
:1002F000D98FF89F176E367E554E745E932EB23EA0
:10030000D10EF01EE803F401FA007D00640054559C
:10031000504C00005455504C0000494F434F4E463E
:100320004947005455504C0000494F434F4E4649F1
:1003300047005455504C0000494F434F4E464947E3
:10034000005455504C0000494F434F4E464947001A
:100350005455504C0000494F434F4E4649470054B6
:1003600055504C0000494F434F4E464947005441B9
:100370004150504C4943005741544348444F470073
:100380005455504C0000494F434F4E464947005486
:10039000414150504C494300000000000000000063
:1003A000ADADADADADADADAD54414150504C494397
:1003B000003738392E2F302526271C1D1E13141503
:1003C0000A0B0C0102033A3B3C31323328292A1F25
:1003D00020211617180D0E0F0405063D3E3F34353B
:1003E000362B2C2D222324191A1B10111207080951
:1003F00040554B574E00FA000E04130064002604CB
:1004000013007D001E041300F40106041300E8032A
:1004100002041301FA00060413006400120413001E
:100420007D000E041300F40102041300E80300042D
:100430001301A7E2B0E1E0E0FAE081918D938AE058
:10044000E731F807D1F711241FBECFEFD0E1DEBFAF
:10045000CDBF11E0A0E0B1E0E2E8F7E900E00BBFBA
:1004600002C007900D92AA35B107D9F710E1AAE5AD
:10047000B1E001C01D92A732B107E1F70E94A902C5
:100480000C94C04B0C94000080917401992708953E
:10049000EF92FF920F931F93CF93DF9310925B0124
:1004A00010925A010E941809EC0184EAE82EF12CFE
:1004B000012D112DF894C801B7010E94BA19789442
:1004C000682FCE010E941B09EC010894E11CF11C6D
:1004D000011D111D80E0E81680E4F80681E00807A0
:1004E00080E0180739F7CE010E942C098C01F8949E
:1004F00064E970E080E090E00E94C21978940817E7
:10050000190781F280915A0190915B01892B51F674
:1005100084E190E090935B0180935A0140E050E0C9
:100520006AE571E08091A20F9091A30F0E94304381
:1005300080E290E390935B0180935A0140E050E0A9
:100540006AE571E08091A00F9091A10F0E94304365
:10055000A9CFEF92FF920F931F93CF93DF93CDB765
:10056000DEB722970FB6F894DEBF0FBECDBF109254
:10057000740181E08093A60F0E948D3A90931A1027
:10058000809319100B9709F440C10E947D2D62E001
:1005900084E00E9406449093A10F8093A00F62E034
:1005A00084E00E9406449093A30F8093A20F0E94C0
:1005B000471F9A838983892B09F00CC10E94CE20A2
:1005C00081E00E9405179A838983892B09F49EC0D4
:1005D00081E190E09A83898340E050E08E010F5FD3
:1005E0001F4FB8018091A20F9091A30F0E9430433A
:1005F00087E190E69A83898340E050E0B8018091DA
:10060000A00F9091A10F0E943043EE24FF2400E040
:1006100020E030E04AEC50E060E071E080EA9BE2EC
:100620000E94F44780910E10882309F09FC011B8F2
:1006300012B880EC84B915B89FEF97B980E28AB9F7
:100640009DB91EB883E083BB14BA80910710833034
:1006500009F46AC0EE24FF2401E020E030E046E91E
:1006600050E06AE071E088EA94E20E94F447EE24E8
:10067000FF2403E020E030E044EF50E06FE071E061
:1006800084E998E00E94F44702E020E030E04EE682
:1006900050E064E171E081EA95E20E94F447EE24C3
:1006A000FF2400E020E030E048E750E06CE371E038
:1006B0008AE295E00E94F4470E94583AA19A8091FC
:1006C0007501882309F44CC060E080917601909117
:1006D00077010E94413981E00E940A0A0E94A12FFD
:1006E00080910710882361F1843051F120E7E22ED8
:1006F00021E0F22E04E020E030E04AEF50E061E437
:1007000071E08DE495E30E94F447C9C00E94391757
:100710009A838983892B29F0CE0101960E942A3879
:1007200074CF0E94942D71CF01E020E030E046E9C3
:1007300050E065E071E085EE93E20E94F44797CFC8
:1007400030E7E32E31E0F32E04E020E030E04AEF22
:1007500050E061E471E08CE394E30E94F4479FC0B1
:1007600082E00E940A0A0E94C90ABACF80EC81B9CD
:1007700012B89FEF94B915B88FE087B980E28AB9B3
:100780009DB91EB883E083BB14BAEE24FF2401E0B8
:1007900020E030E046E950E069E171E085E295E271
:1007A0000E94F447809107108823C9F1813009F431
:1007B00066C0843009F44BC0EE24FF2402E020E040
:1007C00030E04EE650E067E371E087E199E20E9495
:1007D000F44765CF40E050E08E010F5F1F4FB80136
:1007E0008091A00F9091A10F0E94304389819A813E
:1007F00090709A83898340E050E0B8018091A20F05
:100800009091A30F0E943043D9CE86E791E00E94D9
:10081000853A8FEF809375018093920FB6CE03E0F7
:1008200020E030E04EEB50E06EE171E089EA9AE1C1
:100830000E94F44720E030E04EE650E063E271E0D1
:1008400088E296E00E94F44780910710AFCFEE2433
:10085000FF2403E020E030E04EEB50E06DE271E079
:100860008FEF9DE30E94F44720E030E044EF50E03A
:1008700062E371E087E097E00E94F4479DCFEE24A9
:10088000FF2403E020E030E044EF50E068E271E054
:100890008DE298E00E94F447809107108ACF92E79A
:1008A000E92E91E0F92E04E020E030E04FEF50E037
:1008B00066E471E083EB98E30E94F447EE24FF24A2
:1008C00020E030E04EE650E06BE471E08BE794E02E
:1008D0000E94F4470E94F64880E090E022960FB60E
:1008E000F894DEBF0FBECDBFDF91CF911F910F9166
:1008F000FF90EF900895EF92FF920F931F93CF9385
:10090000DF93CDB7DEB722970FB6F894DEBF0FBEE8
:10091000CDBF8FEF9FEF90935D0180935C017E01CF
:100920000894E11CF11C06E010E412C0813008F4C8
:100930008BC080915E01873639F01A8309838091DC
:100940007401882309F47CC010925E010E94C320C8
:1009500080E590E00E94154A0E947333882329F0B5
:1009600080915E01816080935E010E941E38882321
:1009700029F080915E01846080935E010E949B1A41
:10098000882329F080915E01886080935E010E9437
:10099000843C882329F080915E01806180935E0110
:1009A0000E945023882329F080915E018064809307
:1009B0005E010E946C23882329F080915E01826091
:1009C00080935E010E945E23882329F080915E015E
:1009D000806280935E019091780180915F01981709
:1009E00039F090935F0180915E01806880935E0191
:1009F00080915C0190915D01019790935D018093DE
:100A00005C01892B09F0A2CF8FEF9FEF90935D01DE
:100A100080935C011A82198280910710843008F457
:100A200085CF843009F090CF80915E01873F09F433
:100A30008BCF1A83098380917401882309F084CFB6
:100A4000C7010E942A3880CF80915E018F3E09F055
:100A500074CF7ACFAF92BF92DF92EF92FF920F9353
:100A60001F93CF93DF93CDB7DEB722970FB6F894DD
:100A7000DEBF0FBECDBF4FEF5FEF60E671E080914C
:100A8000A20F9091A30F0E946C428130A1F71092A7
:100A9000920F80910E10882309F082C0E7E9FFE0F1
:100AA0008FEF81932FE0EF39F207D9F7809107108C
:100AB000833009F4C1C08091970F887F8093970F8E
:100AC0005E010894A11CB11C80917401882319F463
:100AD00083E0809374011A82198240E050E0B501EE
:100AE0008091A20F9091A30F0E946C4289819A81FC
:100AF00020916001309161012817390728F49C0189
:100B00009093610180936001C9016AE070E00E94E6
:100B10005C4BF62E8AE0689FC0011124E22EE81A91
:100B200080910E10882309F05DC000E010E00FC036
:100B30008091970F887F8093970F84EF91E00E94B8
:100B4000154A0F5F1F4F0A30110509F46EC0902F30
:100B50000F1510F0FF2049F4809107108330E1F168
:100B60008091970F82608093970F9E1510F0EE2072
:100B700049F480910710833049F18091970F846088
:100B80008093970F84EF91E00E94154A809107109F
:100B9000833071F680919C0F837E80939C0FCDCF24
:100BA00080910710E5ECFFE097E0882309F44EC040
:100BB00090833A962FE0E73FF207B9F788EF8093EA
:100BC000F70F5E010894A11CB11C7ECF80919C0F91
:100BD000846080939C0FD6CF80919C0F8860809317
:100BE0009C0FC3CF00E010E042E0D42E802F0F1501
:100BF00010F0FF2011F4D092F70F8E1510F0EE20B8
:100C000029F48091F70F84608093F70F84EF91E0CF
:100C10000E94154A1092F70F84EF91E00E94154A46
:100C20000F5F1F4F0A30110509F788EB9BE00E9408
:100C3000154A1092920F48CF80919C0F837E80932B
:100C40009C0F5E010894A11CB11C3ECF1082B1CF55
:100C50001F93CF93DF938CE090E00E94154AC0E38E
:100C6000D5E729C080916B0190916C01009751F0FC
:100C7000222309F057C03A3209F454C010926C0193
:100C800010926B0140FD0CC0489B0AC0332341F415
:100C900080917401882309F45CC0833009F459C041
:100CA00010936A0188E290E00E94154A80917801D1
:100CB0008F5F809378010E944223182F0E94362371
:100CC000382F412F552780916A019927809590955B
:100CD0008170907084239523892B11F03A3279F139
:100CE00020917401243009F0BDCF8091690138173B
:100CF00009F4B8CF30936901D0936C01C0936B01B4
:100D000080E395E7889790936C0180936B01243082
:100D100009F0B8CF332309F4B5CFD0936C01C09359
:100D20006B01B0CF8932910568F7222379F484E012
:100D300080937401D0936C01C0936B01EBCF88E872
:100D400093E190936C0180936B01CACF1092740170
:100D500095CF81E08093740121E0E6ECFFE0808193
:100D60009181892B09F020E03A9680E1E230F80782
:100D7000B1F720937401213009F092CF0E94C32073
:100D80000E949F238091D8008D7F8093D800A198E6
:100D90005D9A0E94032381E083BF889580B19927E3
:100DA0008F739070892BF1F04091740120E030E056
:100DB000E4ECFFE0808199278F709070049754F0E5
:100DC00080B19927022E02C0959587950A94E2F783
:100DD00080FD40E02F5F3F4F3A962630310551F7B6
:100DE00040937401489902C0109274010E94CB2074
:100DF00080917401882379F60E9425230E947A2F1E
:100E0000A19A8091D80082608093D80049CFAF9298
:100E1000BF92CF92DF92FF920F931F93CF93DF93F6
:100E2000CDB7DEB723970FB6F894DEBF0FBECDBFA8
:100E30002091640130916501809178018F5F8093EA
:100E40007801285D3F4F309365012093640188E26B
:100E500090E00E94154A209164013091650183E081
:100E6000283E380748F36E010894C11CD11C72E07B
:100E7000A72EB12CAC0EBD1E19C0489B1FC08823E5
:100E8000E9F480917401882311F1833001F110930A
:100E900062018230C9F000936301809178018F5F15
:100EA0008093780188E290E00E94154A0E944223D4
:100EB000182F0E943623082F10FFDFCF8091740176
:100EC00010936201823039F70E94C320EFCFA60150
:100ED00061E088E794E00E94613B89818823D9F42E
:100EE00081E08093740190917401E3E0F0E18081EE
:100EF000811190E0319680E1E730F807C1F79093D7
:100F00007401913009F44FC080917401823059F01E
:100F100010936201C0CF8091910F813021F782E060
:100F200080937401E0CF0E94C320C5010E94343930
:100F30008091D80088608093D8000E94142360E0DC
:100F40008A819B810E9441398091D800877F80935C
:100F5000D8000E949F2351E0F52EF3BE8895489B50
:100F600004C08091D900897011F0109274010E9420
:100F7000C32080917401882381F78091D800886014
:100F80008093D8000E94252360E08A819B810E9483
:100F900041398091D800877F8093D8000E947A2FB2
:100FA0008091740174CF0E94C3200E949F2380917E
:100FB000D8008D7F8093D800A1985D9A0E9403236A
:100FC00081E083BF889580B199278F739070892BBA
:100FD00011F449992CC040917401E7EAFFE010C078
:100FE00080B199272150304002C0959587952A9568
:100FF000E2F780FD40E031968FE0E23CF807A9F08F
:101000008081282F3327C901929582958F70892777
:101010009F70892704977CF32F7030702F30310533
:10102000F9F64999DDCF40E0DBCF40937401489950
:1010300002C0109274010E94CB2080917401882319
:1010400009F0BECF0E9425230E947A2FA19A809199
:10105000D80082608093D80057CF0F931F938CE005
:1010600090E00E94154A01E004C088E290E00E94EE
:10107000154A0E943623182F80916601882311F4A7
:101080001A32F9F0009366012091670130916801EE
:101090002115310551F080917401882361F41A32D1
:1010A000D9F0109268011092670180E090E00E94F0
:1010B000A847809174018530C1F6812F0E94E93ADA
:1010C000D4CF88E893E190936801809367010093FF
:1010D000660128E833E1DFCF2932310578F0285264
:1010E00030403093680120936701809167019091AF
:1010F0006801892BD1F280917401DDCF85E0809366
:10110000740180E395E79093680180936701809173
:101110007001909171010E94A84780917201909195
:1011200073010E94A847E1CF0F931F938CE090E0DA
:101130000E94154A10926F0101E032C00E943623CE
:101140008034E9F110E00E943A238032B1F10E942C
:101150003E23803181F180916F01882311F4103793
:10116000A1F100936F0120916D0130916E01211565
:10117000310551F080917401882361F4103781F1B9
:1011800010926E0110926D0180E090E00E94A847DD
:10119000809174018530A9F088E290E00E94154AA0
:1011A00080910710833051F60E943623182F89341E
:1011B00091F610E7D0CF1061CECF1062C8CF10E407
:1011C000C2CF812F0E94E93AE7CF88E893E190935C
:1011D0006E0180936D0100936F0128E833E1CACF5F
:1011E0002932310578F02852304030936E01209337
:1011F0006D0180916D0190916E01892B29F2809192
:101200007401C8CF85E08093740180E395E79093E3
:101210006E0180936D0180917001909171010E9427
:10122000A84780917201909173010E94A847E1CF75
:101230008FEF9FEF08959C01E92FFF27EE0FFF1F0F
:10124000EC5FFE4F85919491322F22277727262736
:10125000372782279327089560E00E941B0960E0EA
:101260000E941B0908950F931F93CF93DF938C0166
:10127000EB01672B49F0F80161918F01CA010E94CF
:101280001B09AC012197B9F7CA01DF91CF911F91DA
:101290000F9108950F931F93CF93DF939C01EB0160
:1012A000672B09F459C060E070E080E090E0A0E0B6
:1012B000B0E0F9012191422F5527273468F42134F9
:1012C00088F520532A30D8F124E0969587957795B4
:1012D00067952A95D1F744C021562630A8F747557F
:1012E00050408A019801442737FD4095542F260F1E
:1012F000371F481F591FCA01B901660F771F881F82
:10130000991F660F771F881F991F660F771F881F09
:10131000991F660F771F881F991F1196CA17DB0741
:1013200049F6D2CF475350408A019801442737FDF0
:101330004095542F260F371F481F591FDCCF4053AD
:1013400050408A019801442737FD4095542F260FBD
:10135000371F481F591FCFCF60E070E080E090E05A
:10136000DF91CF911F910F910895FC0161157105D7
:1013700011F40BC031969081892F81568A3110F477
:101380009052908361507040A9F70895EF92FF92B8
:101390000F931F93CF93DF937B01672B71F140E095
:1013A00050E060E070E000E010E0EC0129912032B4
:1013B000A1F0203220F0822F80538A3048F0CB01F8
:1013C000BA012AE030E040E050E00E94834B19C0AF
:1013D0002F70420F511D611D711DCB01BA012AE012
:1013E00030E040E050E00E94314BAB01BC010F5FA8
:1013F0001F4FE016F106D1F6E2CF20E030E040E0EA
:1014000050E0CA01B901DF91CF911F910F91FF9078
:10141000EF90089580937B01089580937901609304
:101420007A01089580917D01843020F48F5F80934C
:101430007D0102C010927D01E0917D01FF27EE0F3A
:10144000FF1FEC5FFC4F8591949160E00E94413951
:1014500008950E94982F10927C0110927D0184E0E3
:1014600093E0FC012591349160E0C9010E9441396B
:10147000089580917B01813009F0089583E0809385
:101480007B010E94290A0895CF93DF93CDB7DEB781
:1014900022970FB6F894DEBF0FBECDBFCE010196E6
:1014A0000E9434390E94A12F81E080937B01229613
:1014B0000FB6F894DEBF0FBECDBFDF91CF91089578
:1014C00080917B01833029F08430C1F0823009F1B2
:1014D000089580917901823010F00E94440A809131
:1014E0007A01853058F1863059F1863098F180388C
:1014F00079F7809179018823F1F0089580917E0138
:101500008F5F80937E01853118F383E080937B01A8
:10151000089580917F01909180018A30910528F093
:101520000A979093800180937F01892BD9F0809155
:101530007901823018F10E94440A08958130D8F36D
:1015400010927C010E94120A10927E0184E0809326
:101550007B01089580917C018F5F80937C018A30AC
:1015600050F708951092800110927F0160E08AEF99
:1015700090E00E9441390E94440A0895813019F098
:101580000E94120A089583E080937B010E94290A39
:10159000089580917B01823019F00E94A12F089557
:1015A00088EE93E09093800180937F010E94290A46
:1015B0000895FC01818180939E01AFE8B1E08281B2
:1015C0008D93319681E0A539B807C9F708959C013C
:1015D00080910210882351F4F901A2EEB2E08181DA
:1015E0008D93319682E0A93EB807C9F708954091DE
:1015F000DF025091E00291E04333590710F520914A
:10160000DD023091DE0291E02333390798F4F901CD
:10161000EC55FE4F84834F5F5F4F5093E002409341
:10162000DF022F5F3F4F3093DE022093DD0280E028
:1016300090E0089520E030E01092DE021092DD028A
:10164000E6CF87E390E508959C011092A7011092E0
:10165000A6011092A5011092A40180910210882386
:1016600051F4F901A2EEB2E081818D93319682E0CE
:10167000A93EB807C9F70895109202100895109274
:10168000021008958091E10299270895CF93DF9386
:10169000CDB7DEB72B970FB6F894DEBF0FBECDBF28
:1016A00087E18C83FE013596CE010C961192E817E6
:1016B000F907E1F788E08B83809112109927880F52
:1016C000991F880F991F8F5F994F9A8389836FEFB6
:1016D000CE0101960E9483372B960FB6F894DEBF99
:1016E0000FBECDBFDF91CF910895EF92FF920F9380
:1016F0001F93CF93DF93CDB7DEB72B970FB6F89438
:10170000DEBF0FBECDBF8091FD028130B1F18130CF
:1017100060F510928D0110928C016EE073E082EE04
:1017200092E00E94D64A892B09F481C0EE24FF245E
:1017300000E010E02CE831E040E051E068EA71E0C0
:101740008091FB029091FC020E94B118AC011092B2
:10175000A7011092A6011092A5011092A4018091F8
:10176000FD028F5F8093FD02BFC0823009F483C009
:10177000833081F140E050E0B7C085E1809384017F
:1017800040918C0150918D01E5E8F1E02091A40198
:101790003091A501D901A855BE4F09C08D91808314
:1017A0002F5F3F4F319681E0EC38F80749F024175E
:1017B0003507A0F31082319681E0EC38F807B9F7CD
:1017C0003093A5012093A40182E08093FD0240E0C4
:1017D00050E08AC086E18C832091A4013091A5015C
:1017E000832F99278D832E832091A6013091A70105
:1017F000832F99278F83288719861A861B8688E06E
:101800008B83809112109927880F991F880F991F39
:101810008F5F994F9A8389836FEFCE0101960E9463
:101820008337AC01109202101092FD025DC000E0FF
:1018300010E0A80148555E4F60E1C80180509C4F00
:101840000E94613BAC01005F1F4F0B36110540F455
:101850004115510571F3005F1F4F0B361105C0F3A1
:101860004115510509F073CF8BE790E090938D01FE
:1018700080938C016CCF88E080938301809112105B
:101880009927880F991F880F991F8F5F994F909301
:101890008201809381016FEF81E891E00E9483379C
:1018A000AC0180E54E30580709F464CF411551056D
:1018B000D9F48091A6019091A70101969093A70178
:1018C0008093A6012091A4013091A50180918C0103
:1018D00090918D012817390720F083E08093FD0255
:1018E00003C081E08093FD02CA012B960FB6F894E5
:1018F000DEBF0FBECDBFDF91CF911F910F91FF9043
:10190000EF900895CF93DF93CDB7DEB72B970FB647
:10191000F894DEBF0FBECDBF1092A7011092A601B2
:101920001092A5011092A4011092DC021092DB0229
:101930001092DE021092DD021092E0021092DF029D
:101940001092FA021092F90229E12C83292F3327F1
:101950002D838E836F83188619861A861B8688E0EE
:101960008B83809112109927880F991F880F991FD8
:101970008F5F994F9A8389836FEFCE0101960E9402
:1019800083372B960FB6F894DEBF0FBECDBFDF9125
:10199000CF910895CF93DF93CDB7DEB72B970FB6D6
:1019A000F894DEBF0FBECDBF9B01AC01ECE0220F6F
:1019B000331F441F551FEA95D1F7207030704070D7
:1019C0005F707F709067262B372B482B592B8CE14B
:1019D0008C83852F9927AA27BB278D834E83DA0115
:1019E000C9018070A070B070892F9A2FAB2FBB27D0
:1019F0008F83288719861A862070307040705F7038
:101A0000252F33274427552720672B8788E08B8392
:101A1000809112109927880F991F880F991F8F5F47
:101A2000994F9A8389836FEFCE0101960E94833785
:101A3000109202102B960FB6F894DEBF0FBECDBFEA
:101A4000DF91CF9108951F93CF93DF93EC0111E0C5
:101A500089810E94F70ABC01892BB9F41F5F219686
:101A60001830B1F78091A6019091A701019690934B
:101A7000A7018093A6018091A4019091A5010796EA
:101A80009093A5018093A40105C0882799270E94FF
:101A9000CA0CBC01CB01DF91CF911F910895CF9368
:101AA000DF93CDB7DEB72B970FB6F894DEBF0FBE2E
:101AB000CDBF8BE18C83FE013596CE010C96119241
:101AC000E817F907E1F788E08B83809112109927D6
:101AD000880F991F880F991F8F5F994F9A83898369
:101AE0006FEFCE0101960E948337109202102B9661
:101AF0000FB6F894DEBF0FBECDBFDF91CF91089532
:101B0000CF93DF93CDB7DEB72B970FB6F894DEBF38
:101B10000FBECDBFFC0141815527542F4427828140
:101B2000480F511D5093F8024093F7022381332749
:101B3000322F22278481280F311D8091F902909144
:101B4000FA02840F951F9093FA028093F902809114
:101B5000A6019091A7012817390739F069E370E5CC
:101B600080E090E00E94CA0C41C048E050E066E589
:101B700073E082EE92E00E94C84A892B39F58AE12F
:101B80008C83FE013596CE010C961192E817F90769
:101B9000E1F788E08B83809112109927880F991FB5
:101BA000880F991F8F5F994F9A8389836FEFCE01BA
:101BB00001960E9483371092A5011092A401109201
:101BC000A7011092A60180E090E010C044E050E030
:101BD00060E573E082EE92E00E94C84A892B79F2B8
:101BE00064E370E580E090E00E94CA0C2B960FB68B
:101BF000F894DEBF0FBECDBFDF91CF91089548E0CE
:101C000050E06AE173E082EE92E00E94C84A892BBC
:101C100091F044E050E064E173E082EE92E00E94D3
:101C2000C84A892B19F084E390E508950E94460B79
:101C300080E090E008950E94460B80E090E00895D7
:101C400068E373E082EE92E00E94D64A892BA9F401
:101C500062E373E082EE92E00E94D64A892B81F023
:101C600064E070E086EE92E00E944A097093FC0204
:101C70006093FB0280E090E0089580E090E008959A
:101C800084E390E50895FC0180910210882339F0E7
:101C900065E370E580E090E00E94CA0C089582E060
:101CA00080930210809112108093E10281818093D1
:101CB000E9021092EA0248E050E069E273E082EE45
:101CC00092E00E94C84A892B89F044E050E063E228
:101CD00073E082EE92E00E94C84A892B39F064E3F7
:101CE00070E580E090E00E94CA0C08950E94200EEA
:101CF000009739F09C01B901882799270E94CA0CE6
:101D000008950895EF92FF920F931F93CF93DF935F
:101D1000CDB7DEB768970FB6F894DEBF0FBECDBF64
:101D20000E9418098C0198878F8348E050E067E48F
:101D300073E082EE92E00E94C84A892BF1F4609130
:101D4000F9027091FA02A80188EA91E00E94330931
:101D500098878F830E942C0998878F832091EB02AC
:101D60003091EC028217930709F459C06AE370E5D9
:101D700080E090E00E94CA0C0CC144E050E061E4B5
:101D800073E082EE92E00E94C84A892B29F064E356
:101D900070E580E090E0EECF64E070E086EE92E0E7
:101DA0000E944A097C836B834F8158856091F902B8
:101DB0007091FA0288EA91E00E94330998878F8334
:101DC0000E942C0998878F832091EB023091EC02BE
:101DD0008217930759F64091F9025091FA02411582
:101DE000510509F443C080910D1086FD6BC0009130
:101DF000ED021091EE022091EF023091F00268EABC
:101E000071E08B819C810E94B6150097A9F50E9414
:101E1000F313009789F50E9439177C011FC0809148
:101E20000D1086FD90C06091F9027091FA02693040
:101E3000710538F5EE24FF2410E040E050E046172D
:101E4000570708F497C021E0AE01495F5F4F62E099
:101E500089E794E00E947A3B009771F4E114F10461
:101E600009F46EC0B7018827992784CF8B819C81A4
:101E70000E943515009759F29C01B90188279927CE
:101E800079CFEE24FF2410E040E050E0E0E0F0E005
:101E900048555E4F21E068E0CF0180509C4F0E9482
:101EA0007A3B009709F07C01185F412F5527FA0112
:101EB0006091F9027091FA02CB010897481759070F
:101EC00038F3BDCF7E010894E11CF11C00E010E066
:101ED0009E012B5F3F4F40E150E0BE01675F7F4FA7
:101EE0008B819C810E94B118009731F60E941809DD
:101EF00098878F83AC0162E070E0CE0103960E9468
:101F0000330998878F83AC0162E070E089EF92E03B
:101F10000E94330998878F836091F9027091FA02C9
:101F2000AC0188EA91E00E94330998878F830E9470
:101F30002C0998878F8329813A8182179307A9F406
:101F40000E944F0D26C0AE014F5F5F4F62E089E7F0
:101F500094E00E94613B009709F08ECF2F81388575
:101F600089819A812817390759F364E170E680E086
:101F700090E000CF48555E4F611B812F992721E0EB
:101F800080509C4F0E947A3B009709F45CCF7C0103
:101F90005ACF68960FB6F894DEBF0FBECDBFDF9163
:101FA000CF911F910F91FF90EF900895CF93DF9302
:101FB000FC0180910210882339F065E370E580E030
:101FC00090E00E94CA0CAEC081E080930210818133
:101FD0008093E9021092EA0282819927982F88273C
:101FE0009093EC028093EB022381820F911D9093DA
:101FF000EC028093EB0284819927AA27BB27B82F94
:10200000AA27992788278093ED029093EE02A09348
:10201000EF02B093F0022581332744275527A90109
:1020200033272227280F391F4A1F5B1F2093ED02F9
:102030003093EE024093EF025093F002868199278D
:10204000AA27BB27BA2FA92F982F8827820F931F63
:10205000A41FB51F8093ED029093EE02A093EF02B0
:10206000B093F0022781820F911DA11DB11D8093B5
:10207000ED029093EE02A093EF02B093F0028091F4
:1020800012108093E10269E070E082EE92E00E941B
:10209000B50948E050E06EE673E082EE92E00E94FF
:1020A000C84A892BD1F482E090E00E94154AF89446
:1020B00082EE92E00E94AC3AF8940FB6F8940F9238
:1020C000C7E2D0E10E94C320E0E0FAE08991819369
:1020D0002AE0E731F207D1F7FFCF48E050E065E6AC
:1020E00073E082EE92E00E94C84A892B79F044E0C6
:1020F00050E06FE573E082EE92E00E94C84A892BBF
:1021000029F064E370E580E090E05BCF65E080E07B
:1021100091E00E94820C009729F09C01B901882768
:1021200099274FCFDF91CF9108958F929F92AF92D1
:10213000BF92CF92DF92EF92FF920F931F93CF93B4
:10214000DF93CDB7DEB769970FB6F894DEBF0FBE49
:10215000CDBFBFEF8B2E9B2E9E828D82AFEFAA2E1E
:10216000AFEFBA2EAFEFCA2EAFEFDA2EAB86BC863A
:10217000CD86DE8648E050E06FE873E08FE891E0BE
:102180000E94C84A892B09F04EC0F89464E970E0B7
:1021900080E090E00E94C2199E838D8324E030E0AD
:1021A00046E950E060E070E0CE010B960E94D01945
:1021B000789410928F0110929001109291011092D8
:1021C0009201109293011092940110929501109235
:1021D00096012B853C854D855E856D817E81909134
:1021E0009E0188E18A8B9B8B872F99278C8B6D8B27
:1021F000852F9927AA27BB278E8B4F8B388F298F46
:1022000088E0898B809112109927880F991F880F79
:10221000991F8F5F994F988B8F876FEFCE010F9625
:102220000E948337D0C048E050E066E873E08FE852
:1022300091E00E94C84A892B11F5AE014B5F5F4FB8
:1022400062E089E794E00E94613B009709F470C066
:102250009C01B9018827992710928F011092900153
:102260001092910110929201109293011092940198
:1022700010929501109296010E94CA0CA4C044E0ED
:1022800050E060E873E08FE891E00E94C84A892B33
:1022900009F03FC064E070E083E991E00E944A09E0
:1022A000DC01CB019093FC028093FB02F3E0EF2E64
:1022B000F12CEC0EFD1E8E01095F1F4F9E012F5F5A
:1022C0003F4F40E051E068EA71E00E94B11800978A
:1022D00009F45DC020E68131920709F451C030E66F
:1022E0008331930709F44CC010928F011092900132
:1022F0001092910110929201109293011092940108
:1023000010929501109296019C01B9018827992796
:10231000B3CF48E050E067E773E08FE891E00E94B8
:10232000C84A892B09F164E370E580E090E094CF1E
:10233000AE01455F5F4F64E084E094E00E94613B42
:1023400010928F01109290011092910110929201BF
:10235000109293011092940110929501109296019F
:10236000009709F436CFD0CF82E090E00E94154A62
:10237000F894F8940FB6F8940F920E94C320FFCF00
:102380009E828D82AB86BC86CD86DE8612CF0E9471
:1023900018099C838B8369817A81AC0188EA91E07A
:1023A0000E9433099C838B830E942C099C838B831E
:1023B0009E838D838F819885A985BA858B879C871D
:1023C000AD87BE87F6CE69960FB6F894DEBF0FBE16
:1023D000CDBFDF91CF911F910F91FF90EF90DF90D4
:1023E000CF90BF90AF909F908F900895FC01828115
:1023F000809395018381809396011092970169E003
:1024000070E08FE891E00E94B5090E949510089550
:10241000FC01818180939E01828186958695805EF4
:1024200080938F01938192959F70828183708295B2
:10243000807F805E980F90939001948192959695FD
:102440009695937083818F70880F880F805E980FA8
:102450009093910184818F73805E80939201858136
:1024600086958695805E80939301968192959F7064
:10247000858183708295807F805E980F9093940110
:102480009781929596959695937086818F70880F17
:10249000880F805E980F9093950187818F73805E7F
:1024A000809396011092970169E070E08FE891E0C7
:1024B0000E94B5090E9495100895CF93DF93CDB780
:1024C000DEB722970FB6F894DEBF0FBECDBFFC017A
:1024D0001A8219828281883049F082E190E59A83DC
:1024E0008983CE0101960E942A3880C0838186317B
:1024F00029F18731A0F08B3109F43FC08C3148F1CC
:102500008D3109F455C08D3108F448C08E31E1F4A5
:10251000CF0103960E94430E9A83898315C08231AE
:1025200089F1833108F18431E1F1853190F1CF01F6
:1025300003960E94230D9A83898306C0CF010396D8
:102540000E94800D9A83898389819A81892B49F61B
:102550004DC0873191F18A31B9F7CF0103960E94BE
:10256000FF0D9A838983F0CF8031C9F1813161F702
:10257000CF0103960E94D90AE7CFCF0103960E94AC
:102580003C0BE2CFCF0103960E94F6119A83898318
:10259000DBCFCF0103960E94E70AD6CF0E943F0B04
:1025A000D3CFCF0103960E94D60F9A838983CCCFD5
:1025B000CF0103960E94240BC7CFCF0103960E9440
:1025C000820E9A838983892B09F08BCF0E94942DE8
:1025D0000E94B6360E94073D9A838983B5CFCF010A
:1025E00003960E9408129A838983AECF22960FB673
:1025F000F894DEBF0FBECDBFDF91CF910895EF926B
:10260000FF920F931F93CF93DF93CDB7DEB724973D
:102610000FB6F894DEBF0FBECDBF9A8389837B01CE
:102620005C834B838901232BF1F00E941809AC01D4
:1026300062E070E0CE0101960E943309AC0162E0D5
:1026400070E0CE0103960E9433096B817C81AC015E
:10265000C7010E9433090E942C09F80191838083ED
:1026600080E090E002C082E290E624960FB6F894F3
:10267000DEBF0FBECDBFDF91CF911F910F91FF90B5
:10268000EF9008958F929F92AF92BF92CF92DF9278
:10269000EF92FF920F931F93CF93DF93CDB7DEB7E7
:1026A0002C970FB6F894DEBF0FBECDBF5C017C83C4
:1026B0006B834A013E832D8318870F83C986DA8690
:1026C000EB86FC8680915101813039F08091510177
:1026D000823019F082E190E673C02091530130916D
:1026E000540181E090E0821B930B20EF37E0829F42
:1026F0008001839F100D929F100D1124005F1F4FCA
:102700008FEF9FEF9A838983209152017801EA0C21
:10271000FB1C00511040AE014B5F5F4F62E0C701F0
:1027200002960E947A3B009709F04AC0209152011C
:10273000A4016D81C70104960E947A3B009709F0BD
:102740003FC0209152018D819E818A0D9B1DF80111
:102750007496AE01495F5F4F62E08E0F9F1F0E942B
:102760007A3B009769F5209152018D819E818A0DF7
:102770009B1DF8017696AE01475F5F4F64E08E0FB8
:102780009F1F0E947A3B0097D9F4209152018D81BE
:102790009E818A0D9B1D065E1F4FAE014F5F5F4FEE
:1027A00062E0800F911F0E947A3B009749F42091CC
:1027B0005201AE014D5F5F4F62E0C7010E947A3B5C
:1027C0002C960FB6F894DEBF0FBECDBFDF91CF9130
:1027D0001F910F91FF90EF90DF90CF90BF90AF903F
:1027E0009F908F900895CF93DF93CDB7DEB7219759
:1027F0000FB6F894DEBF0FBECDBF8091510182307D
:1028000039F0809151018130F1F022E130E629C0A8
:1028100080915301909154011982892B11F481E028
:10282000898321E0AE014F5F5F4F61E080E090E07F
:102830000E947A3B9C01892B49F083E080935101EF
:1028400026E130E60EC020E030E00BC089819927F8
:10285000909354018093530181E080935001109232
:102860005101C90121960FB6F894DEBF0FBECDBF4E
:10287000DF91CF9108952F923F924F925F926F9286
:102880007F928F929F92AF92BF92CF92DF92EF9200
:10289000FF920F931F93CF93DF93CDB7DEB72697A9
:1028A0000FB6F894DEBF0FBECDBFFC015B015E83A7
:1028B0004D833901480127011601029708F062C0D3
:1028C0006F5F714008F05EC06114710409F45AC072
:1028D000012B09F457C0EF2809F454C0CD2809F49E
:1028E00051C08091530190915401E817F90739F4D0
:1028F00080915001813019F002E110E69CC0809176
:10290000530190915401E817F90741F0809151016A
:10291000813021F080915101823071F71A82198241
:1029200080EF97E0E89F7001E99FF00CF89FF00CB2
:10293000112480E190E0E80EF91E97012A0D3B1D5D
:102940003C832B83AE014F5F5F4F62E0C9010E9461
:10295000613B8C01F301B182A082892B81F58981D1
:102960009A81FFEF8F3F9F0781F084E0C82ED12C22
:10297000CA0CDB1C21E0C21622E0D20620F108E0DE
:1029800010E659C003E210E656C0F401118210822D
:102990002D813E818217930761F18F5F9F4F09F46C
:1029A00048C0F401808191810A96A80EB91EFFEFFC
:1029B000AF16F1E0BF0608F4C0CF08E010E6F4015E
:1029C0001182108238C0A40162E08B819C81029642
:1029D0000E94613B892B99F6F40180819181C80E98
:1029E000D91EF9EFCF16F1E0DF0648F689819A810A
:1029F000CFCF8F5F9F4FF9F0F401808191810496D2
:102A0000A20162E02B813C81820F931F0E94613BF7
:102A10008C01892B81F4F401808191810696A101BA
:102A200064E02B813C81820F931F0E94613B8C01EB
:102A300002C001E110E6C80126960FB6F894DEBF89
:102A40000FBECDBFDF91CF911F910F91FF90EF90FF
:102A5000DF90CF90BF90AF909F908F907F906F90BE
:102A60005F904F903F902F900895AF92BF92CF927A
:102A7000DF92EF92FF920F931F93CF93DF93CDB727
:102A8000DEB72C970FB6F894DEBF0FBECDBFAC01FA
:102A900001978E5F9F4F08F053C0809151018130A4
:102AA00039F080915101823019F082E190E64DC0F9
:102AB00080915301909154011E821D8218861F82BD
:102AC00061E0A62EB12C39E0C32ED12CCC0EDD1E38
:102AD00023E0E22EF12CEC0EFD1E8E010F5F1F4F46
:102AE0009E01295F3F4F60E070E0F501E81BF90BA4
:102AF000CF010E943B14009741F5809153019091C2
:102B0000540120915201A81AB90A80EF97E0AC0154
:102B1000A49EC001A59E900DB49E900D1124EF813E
:102B2000F8857096AE014B5F5F4F62E08E0F9F1F7E
:102B30000E947A3B009739F023E02093510105C0B1
:102B400081E290E602C022E0F8CF2C960FB6F8940E
:102B5000DEBF0FBECDBFDF91CF911F910F91FF90D0
:102B6000EF90DF90CF90BF90AF9008952F923F925B
:102B70004F925F926F927F928F929F92AF92BF928D
:102B8000CF92DF92EF92FF920F931F93CF93DF9339
:102B9000CDB7DEB764970FB6F894DEBF0FBECDBFDA
:102BA0005C013B014A01098B1A8B2B8B3C8B0197F3
:102BB0008E5F9F4F08F06FC080915101813039F0D6
:102BC00080915101823019F022E130E604C1409039
:102BD0005301509054011A8619861E821D821A8252
:102BE00019821C861B8629E0222E312C2C0E3D1EBC
:102BF0009101A401B301C5010E94FF12009709F4DD
:102C000057C0009709F04AC0E1E0F0E0CF01841915
:102C1000950920EF37E0829FA001839F500D929F7E
:102C2000500D112400E1402E512C440E551E8D8173
:102C30009E818816990609F47FC080915301909176
:102C4000540113E0212E312C2C0E3D1E6B857C850A
:102C5000BDE0CB2ED12CCC0EDD1EA7E0EA2EF12C50
:102C6000EC0EFD1E81019E012F5F3F4F4FEF5FEF86
:102C7000E81BF90BCF010E943B14892BB9F5E981C0
:102C8000FA81CF010A96880D991D8F5F914088F1D6
:102C900025E130E609C020E230E69DC08151904632
:102CA00009F481C024E130E683E08093510193C0B0
:102CB000E0915301F09154016B857C859DE0C92E14
:102CC000D12CCC0EDD1E87E0E82EF12CEC0EFD1E83
:102CD0008E010B5F1F4F9E01255F3F4FA50181E0D5
:102CE00090E08E1B9F0B0E943B148BCF28E030E6B8
:102CF000DBCFC988DA88EB88FC8809851A859401BE
:102D0000A301B501CF010E9442139C01892B61F6FA
:102D10001C821B828B859C8521E0A10162E0840DD1
:102D2000951D0E947A3B9C012115310509F0BCCF0D
:102D300082E0809351014FC020915201CA01449614
:102D4000EB85FC85A301682D8E0F9F1F0E947A3BA7
:102D50009C01892B09F0A8CF209152018B859C857D
:102D6000840D951DF4013696AE014F5E5F4F64E011
:102D70008E0F9F1F0E947A3B9C01892B09F094CFF4
:102D8000209152018B859C85480E591E84E090E06D
:102D9000880E991EA10162E0C201880D991D0E9452
:102DA0007A3B9C01C1CFEB85FC85CF010A96880D4B
:102DB000991D8F5F914008F06BCFC988DA88EB8846
:102DC000FC8809851A859401A301B501CF010E94F1
:102DD00042139C01A9CFC90164960FB6F894DEBFD7
:102DE0000FBECDBFDF91CF911F910F91FF90EF905C
:102DF000DF90CF90BF90AF909F908F907F906F901B
:102E00005F904F903F902F9008951F93CF93DF9343
:102E1000CDB7DEB721970FB6F894DEBF0FBECDBF9A
:102E2000182FAE014F5F5F4F62E080E090E00E949C
:102E3000613B9C01892B91F440E050E0898188231B
:102E400051F450935401409353011093520181E087
:102E50008093500103C041E050E0F3CFC9012196B7
:102E60000FB6F894DEBF0FBECDBFDF91CF911F919B
:102E700008952F923F924F925F926F927F928F921E
:102E80009F92AF92BF92CF92DF92EF92FF920F93F9
:102E90001F93CF93DF93CDB7DEB7E0970FB6F894CB
:102EA000DEBF0FBECDBF80915001813019F002E12D
:102EB00010E63DC1809153019091540140EF57E0DD
:102EC000849F4001859F900C949F900C112480E179
:102ED00090E0880E991E209153013091540181E0B9
:102EE00090E0821B930B849F5001859FB00C949FB0
:102EF000B00C112480E190E0A80EB91E809153011E
:102F0000909154012EEF3FEF3E832D831A86198650
:102F10006BE0C62ED12CCC0EDD1E7E010894E11C88
:102F2000F11C8E010D5F1F4F9E01275F3F4F4FEF3A
:102F30005FEF60E070E00E943B148C01892B31F060
:102F400083E08093510108E110E6F1C01A861986EA
:102F500018AA1FA62D813E812F5F3F4F09F47BC029
:102F600055E0C52ED12CCC0EDD1E89859A85A60193
:102F700062E0880D991D0E94613B7C01892B09F05C
:102F80006EC08D819E818F5F9F4F09F468C0C40120
:102F9000029629853A85AE01495F5F4F62E0820F54
:102FA000931F0E94613B7C0189859A850A962F8137
:102FB0003885820F931F8050924008F0C1CFE114F2
:102FC000F10409F0BDCF2D813E818FEF2F3F3807EF
:102FD00009F451C02115310509F444C06F81788589
:102FE000665F7F4F78876F8366247724661677063F
:102FF000E8F4661977096131710510F060E170E05D
:103000007C836B833FE1232E312C2C0E3D1E898562
:103010009A85880D991DA101860D971D0E94613B1F
:103020007C01892B09F445C06F8178858FA598A90B
:10303000860F971F98AB8FA789859A85EF2809F08F
:103040007FCF2D813E81860F971F9A8789872F5FBB
:103050003F4F09F085CF81E08093510168C0188609
:103060001F82ADCF6F817885665F7F4F78876F83D2
:1030700089859A85E8CFEFA4F8A8EA0CFB1C4FE0FD
:10308000642E712C6C0E7D1EA30162E0C7010E94AC
:10309000613B892B09F054CF42E050E0B301C601F7
:1030A0000E94F04A892B39F52D813E816F81788508
:1030B000DFCF2501460C571C8FA598A9480E591E35
:1030C000AE01415F5F4F6B81C2010E94613B7C0199
:1030D000892B09F0A9CFCB80DC80A601BE01615FFE
:1030E0007F4FC1010E94F04A892B79F46C0C7D1C42
:1030F0006F8178857BCF21E0A60162E0C7010E9445
:103100007A3B7C016F81788597CF21E0A1016C2DFE
:10311000C2010E947A3B7C018B819C81E114F10405
:1031200009F082CF680E791E6F8178855FCFC80164
:10313000E0960FB6F894DEBF0FBECDBFDF91CF9102
:103140001F910F91FF90EF90DF90CF90BF90AF90C5
:103150009F908F907F906F905F904F903F902F90B7
:1031600008952F923F924F925F926F927F928F922B
:103170009F92AF92BF92CF92DF92EF92FF920F9306
:103180001F93CF93DF93CDB7DEB72F970FB6F89489
:10319000DEBF0FBECDBF9D878C875B013A01490121
:1031A0001801FF86EE86AC0101978E5F9F4F08F0F5
:1031B0006EC0672B09F46BC08114910409F467C0D9
:1031C00080915001813029F0B2E1EB2EB0E6FB2E68
:1031D000B7C01F821E8240905301509054018091CD
:1031E0005301909154011D821C82188619861A86FB
:1031F0001B86A8E0CA2ED12CCC0EDD1EF2E0EF2EED
:10320000F12CEC0EFD1E8E010C5F1F4F9E012A5FFC
:103210003F4F60E070E00E943B147C01892B09F075
:103220008FC00C811D816016710608F4830180EF48
:1032300097E0489E3001499E700C589E700C1124F6
:1032400084E190E0680E791E8E819F81A501602F38
:10325000860D971D0E94613B7C01892BE9F02114AA
:10326000310449F088859985AA85BB85F101808361
:103270009183A283B3838E859F85892B09F460C0D7
:103280008A819B81EE85FF859183808359C07FE190
:10329000E72E70E6F72E54C0F401118300830E94DC
:1032A0001809AC0162E070E0CE010C960E9433096F
:1032B000AC0162E070E0CE0104960E943309AC01DB
:1032C000B801C5010E9433096C012E813F81200F96
:1032D000311F3F832E838C819D810817190710F5BC
:1032E0005E010894A11CB11C03C0E114F104D1F4E7
:1032F000A50161E0C301820F931F0E94613B7C0125
:103300006981C6010E941B096C018E819F81019613
:103310009C019F838E830F5F1F4F8C819D810817B7
:10332000190718F3C6010E942C092A813B818217D4
:10333000930709F494CFE3E1EE2EE0E6FE2E8FCF63
:10334000C7012F960FB6F894DEBF0FBECDBFDF9139
:10335000CF911F910F91FF90EF90DF90CF90BF9092
:10336000AF909F908F907F906F905F904F903F9025
:103370002F9008958BBFF72FE62FD895602D862FBD
:1033800099270895DC01CB01ABBFF92FE82FD89521
:10339000802D0BB63196011C0BBED895902D08954B
:1033A000CF92DF92EF92FF920F931F93CF93DF9311
:1033B0007A018B012115310589F0EC016901C80EF4
:1033C000D91EC801B7010E94BA1989930894E11C5B
:1033D000F11C011D111DCC16DD0699F7DF91CF916F
:1033E0001F910F91FF90EF90DF90CF900895FF9283
:1033F0000F931F93CF93DF93EC018B01F42EF99978
:103400000FC04F2D41504F3F89F0D2BDC1BDF89A3A
:1034100080B5F80181938F0121964150B0F706C025
:103420008AE090E00E94154AF99BEBCF80E090E0A3
:10343000DF91CF911F910F91FF900895FF920F930D
:103440001F93CF93DF93CDB7DEB722970FB6F894D3
:10345000DEBF0FBECDBF8C01F62EF9990BC012BD99
:1034600001BDF0BC0FB6F894FA9AF99A0FBE80E04D
:1034700090E024C00E940545892BD9F41A82198254
:1034800089819A818458954378F4F99903C00CC0D6
:10349000F99B0AC089819A8101969A8389838981DF
:1034A0009A8184589543A0F3F99BD9CF84E290E6A2
:1034B00005C08AE090E00E94154AF6CF22960FB62A
:1034C000F894DEBF0FBECDBFDF91CF911F910F915A
:1034D000FF900895E6ECFFE01182108213821282C1
:1034E0003A9680E1E230F807B9F70895FC0182814D
:1034F0009381958384838081843011F013821282BA
:103500000895FC018081833071F0843028F086308A
:1035100039F0873041F00895813051F08230D9F789
:103520007383628308958481958193838283089550
:10353000138212820895909110038091FE029817D1
:1035400029F09093FE0281E090E0089580E090E001
:1035500008956F927F928F929F92AF92BF92CF9277
:10356000DF92EF92FF920F931F93CF93DF93CDB72C
:10357000DEB722970FB6F894DEBF0FBECDBF0E9414
:1035800044028093FF023E010894611C711CCCC16F
:1035900080910C03882E992480910E03C82EDD247F
:1035A000C094D094C820D920C0FE0EC020E030E0E6
:1035B0008091C60F9091C70F892B11F421E030E064
:1035C0003093C70F2093C60F8091C60F9091C70FFD
:1035D000892B09F424C280910D0381FF00C397E079
:1035E0009093C50F482F55278A0101701070A02EA7
:1035F000002339F48091CE0F99278F709070049733
:1036000074F0C1FE0CC08091D00F9091D10F22E0D8
:1036100030E0822793279093D10F8093D00F809131
:103620000F03E82EFF24CA01809590959701217021
:10363000307082239323B82E882309F006C2C70175
:103640008095909580239123182F882309F0F6C147
:1036500020E08091D00F9091D10F892B09F021E0CB
:103660002093CF0FC2FE11C0AA2009F4BAC28091E4
:10367000DA0F9091DB0F009709F455C3809709F496
:10368000E1C31092DB0F1092DA0FBB2021F01092F1
:10369000DB0F1092DA0F2091DA0F3091DB0FC901A6
:1036A00096958795929582958F7089279F70892727
:1036B00081708093D90F26FF03C084608093D90F57
:1036C000AA2039F48091E20F99278F7090700497A7
:1036D000C4F0C3FE16C08091E40F9091E50F8038CE
:1036E000910509F427C321E08038920709F436C315
:1036F000892B09F026C380E890E09093E50F809332
:10370000E40FBB2009F0ADC1112309F0A3C1209142
:10371000E40F3091E50FC901880F892F881F990B9D
:10372000919581708093E30F30FF03C08460809394
:10373000E30F4091F00F4093040320910503309173
:1037400006032115310531F0285D3F4F3093060304
:10375000209305038091020390910303009749F0A1
:103760008932910508F411C28897909303038093DE
:10377000020321153105C9F084FC40C251E0243F09
:10378000350708F0C5C21092010310920003809122
:103790000403882309F4FCC2833008F474C3109234
:1037A00004031092060310920503AA2039F48091B5
:1037B000EC0F99278F709070049744F0C4FE06C0F8
:1037C00081E090E09093060380930503BB2039F0DD
:1037D0008091EC0F8F70843011F01092040311234C
:1037E000A1F08091EC0F99278F7090708330910534
:1037F00009F427C2843091050CF01CC28130910578
:1038000009F412C1029709F45BC2409104034130EC
:1038100009F405C2413008F40AC1423009F496C2E5
:10382000433009F451C22091000330910103211566
:103830003105C1F08091EE0F9091EF0F846090936D
:10384000EF0F8093EE0F8091ED0F82608093ED0F6C
:103850002932310508F4ABC12852304030930103BE
:10386000209300038091050390910603895E9340A5
:1038700030F08CE090E09093EF0F8093EE0FAA2051
:1038800009F473C08091040399279093F10F8093FA
:10389000F00FC5FE0CC08091F80F9091F90F20E158
:1038A00030E0822793279093F90F8093F80FBB2085
:1038B00009F066C0112309F06AC080910B038823C8
:1038C00009F070C08091F80F9091F90F892B09F4DD
:1038D00082C18091FC0F9091FD0F90930A03809319
:1038E000090388E290E09093080380930703809196
:1038F000F80F80930B03882309F49AC187E0809323
:10390000F70F0E946721A0910C0380910D03809313
:103910000F03A0930E03809110038F5F8093100319
:1039200088E290E00E94154A0E944402182F0E94EB
:10393000362380930C030E94422380930D0313309F
:1039400009F494C08091FF02181731F00E946A1A9E
:103950000E9467211093FF02112309F419CE14303D
:1039600009F48DC0A0910C03D0CF8091F60F992758
:103970008F70907004970CF08CCFBB2009F49ACF15
:1039800086EF9FE00E94761A112309F496CF60E13A
:1039900070E086EF9FE00E94811A80910B038823DC
:1039A00009F490CF8091F80F9091F90F892B89F14C
:1039B0002091070330910803285D3F4F309308039F
:1039C0002093070343E0283E340708F490CFC90151
:1039D00068EE73E00E945C4B772788EE93E0AC01C1
:1039E000649FC001659F900D749F900D1124281B4A
:1039F000390B3093080320930703809109039091BA
:103A00000A036817790708F4BCC11092F90F1092E5
:103A1000F80F8091F80F80930B0380E070CF109225
:103A2000C50F80910D03DECD1092040340E010928B
:103A3000EF0F1092EE0F1092ED0FF5CE62E070E0F6
:103A40008EEC9FE00E94811A03CE8EEC9FE00E94D4
:103A5000761AF5CD60E871E082EE9FE00E94811A4F
:103A600056CE82EE9FE00E94761A4ECE0E946A1ACF
:103A70000E94672180E090E00E94A84763CF809178
:103A80000E03682F772760957095A0910C038A2FFD
:103A9000992768237923B0E040E050E0E4ECFFE0B0
:103AA00001E010E084E0F82E26C0808187FD0EC082
:103AB0008F5F883008F081E08083C801042E02C047
:103AC000880F991F0A94E2F7B82B80811182282F62
:103AD000332720FDF18221FF03C081818260818331
:103AE00022FF03C08181816081834F5F5F4F3A96DF
:103AF0004630510559F0CB01042E02C095958795AB
:103B00000A94E2F780FDD1CF8081E0CF8B2F9927F7
:103B1000882309F4FACEC82EDD2460E070E027C0C7
:103B20001A8219827B010894E11CF11C53E0E5160E
:103B3000F10409F4D3C084E0E816F1040CF084C069
:103B400021E0E216F10409F463C142E0E416F10455
:103B500009F47FC189819A81892B09F4A2C0C3012C
:103B60000E942A38B7016630710509F4FBCEC60100
:103B7000062E02C0959587950A94E2F780FDD0CF76
:103B80007B010894E11CF11CEDCF413009F4EDC03C
:103B9000423009F0EECD81E0809304038091F20F72
:103BA0009091F30F9093030380930203E2CD109260
:103BB0000103109200034150423008F053CE82E0DE
:103BC000809304038091F40F9091F50F9093030379
:103BD0008093020347CE10920B0380E090CE90E0DA
:103BE000FFCC8091DA0F9091DB0F20E230E082274A
:103BF00093279093DB0F8093DA0F47CD295E3340F4
:103C000008F4D3CD29EE33E0309306032093050367
:103C100088E893E19093010380930003C6CD84E08C
:103C200090E09093EF0F8093EE0F4093ED0FFBCD5C
:103C300080E065CE8630910509F442C0079709F00F
:103C4000E4CD40930403E1CD55E0E516F10409F419
:103C5000C5C085E0E816F1040CF4A6C026E0E21623
:103C6000F10409F077CFCB01880F991F880F991FB6
:103C7000880F991F660F771F680F791F6C53704F5D
:103C800000E010E020E030E041E050E08BE095EB18
:103C90000E94B6159A83898389819A81892B09F0BC
:103CA0005ECF0E94F3139A838983892B09F057CF43
:103CB0000E9439179A838983892B09F453CF4FCFF8
:103CC00083E08093040343E084E090E09093EF0F5F
:103CD0008093EE0F85E08093ED0FA5CDCB01880F8B
:103CE000991F880F991F880F991F660F771F680FFC
:103CF000791F6C53704F00E010E020E030E041E0AD
:103D000050E085E095EB0E94B6159A83898322CF17
:103D1000295E334008F445CD88E893E19093010390
:103D2000809300033ECD80E290E09093DB0F809380
:103D3000DA0FABCC80E891E09093E50F8093E40F2D
:103D4000E0CC1092E50F1092E40FDBCC1092EF0F55
:103D50001092EE0F81E08093ED0F65CD80E091E051
:103D60009093E50F8093E40FCCCC82E08093040322
:103D70008091F40F9091F50F9093030380930203C9
:103D8000F8CC861B970B90930A0380930903AFCD61
:103D900081E0809304038091F20F9091F30F909350
:103DA000030380930203FDCCCB01880F991F880F7A
:103DB000991F880F991F660F771F680F791F6C5323
:103DC000704F00E010E020E030E041E050E087E09C
:103DD00095EB0E94B6159A838983BCCECB01880FE0
:103DE000991F880F991F880F991F660F771F680FFB
:103DF000791F6C53704F00E010E020E030E041E0AC
:103E000050E089E095EB0E94B6159A838983A2CE93
:103E1000CB01880F991F880F991F880F991F660F74
:103E2000771F680F791F6C53704F00E010E020E09F
:103E300030E041E050E081E095EB0E94B6159A83B6
:103E4000898388CE80E690E09093DB0F8093DA0F31
:103E50001CCCCB01880F991F880F991F880F991FC1
:103E6000660F771F680F791F6C53704F00E010E0EA
:103E700020E030E041E050E083E095EB0E94B61591
:103E80009A83898367CE83E0809304038ACCEF9280
:103E9000FF920F931F93CF93DF93CDB7DEB7289791
:103EA0000FB6F894DEBF0FBECDBF8E010F5F1F4F60
:103EB00028E030E044EB50E060E070E0C8010E9490
:103EC000D01948E050E068E973E0C8010E94B24AA6
:103ED000892B09F048C030E1E32E30E3F32E28E0CF
:103EE00030E044EC50E060E070E0C8010E94D0197E
:103EF00048E050E068E973E0C8010E94B24A892BAB
:103F000009F048C020E1E22E20E3F22E26E030E066
:103F100048ED50E060E070E0C8010E94D01946E032
:103F200050E068E973E0C8010E94B24A892B41F56C
:103F300090E1E92E90E3F92E28E030E044EF50E0E4
:103F400060E070E0C8010E94D01948E050E068EAE3
:103F500073E0C8010E94B24A892B39F180E1E82E52
:103F600080E3F82E22C048E050E060EA73E0C80128
:103F70000E94B24A892B09F4AECFEE24FF24AFCFC2
:103F800046E050E060EA73E0C8010E94B24A892B23
:103F900099F6CECF48E050E060EA73E0C8010E9495
:103FA000B24A892B09F0B2CFADCFC70128960FB620
:103FB000F894DEBF0FBECDBFDF91CF911F910F915F
:103FC000FF90EF9008951F920F920FB60F92112459
:103FD0008F9383B78E7F83BF8F910F900FBE0F900B
:103FE0001F901895E0E8F0E08081837F80832F9810
:103FF0000895E0E8F0E080818F63808308952FE0EA
:10400000803A920728F420EA3FE0281B390B02C0CF
:1040100020E030E030938D0020938C0008952FE055
:10402000813A920710F080EA9FE090938B00809392
:104030008A000895CF92DF92EF92FF920F931F9321
:10404000CF93DF93CDB7DEB729970FB6F894DEBFD5
:104050000FBECDBF8C01FB01DC018D919C91918342
:10406000808340E086B1682F7727607F7070660F8D
:10407000771F4F5F413009F455C0413098F342300B
:1040800009F469C04F5F4330A8F3CC24DD24FE015E
:10409000319681E0E82EF12C0EC0406E5F6F405EDD
:1040A0005F4F69F10894C11CD11C3196B9E0CB1661
:1040B000D10409F459C04081440F408397010C2C6E
:1040C00002C0220F331F0A94E2F7CB01822393230D
:1040D000892B11F0416040835527CA018F71907080
:1040E0004F97D9F6D8018D919C911197822B932BE4
:1040F0008D939C93406E5F6F405E5F4F99F6209565
:104100003095D8018D919C911197822393238D93A3
:104110009C930894C11CD11C3196B9E0CB16D104F4
:1041200051F622C029B189B13327207830703695F5
:104130002795369527953695279599278071907004
:10414000929582958F7089279F708927282B392B0C
:10415000622B732B8ECF82B399278D7190709695B9
:104160008795682B792B91CF29960FB6F894DEBFEF
:104170000FBECDBFDF91CF911F910F91FF90EF90B8
:10418000DF90CF900895A09A80E000008F5F823387
:10419000E1F7A0980895A09AA0980895E1E6F0E0CC
:1041A00090E89083108280E185BF90BF10BA8FB1F4
:1041B0008695877080930E10E1E8F0E08081887F1B
:1041C000808310928500109284000895FF920F93CF
:1041D0001F93CF93DF9300E010E0FF24A0E0B0E056
:1041E000C5ECDFE05A2F8881682F772740E0E1E0B7
:1041F000F0E008C05523B1F1513009F44FC04F5FD2
:10420000433020F5242F3327CB01022E02C0959591
:1042100087950A94E2F780FFF2CF5230E9F05330ED
:1042200048F3543089F1543028F1553041F7442394
:1042300009F43EC021503040CF0102C0880F991FC1
:104240002A95E2F7F82A4F5F4330E0F211962A965A
:10425000A630B10539F62FC0423010F01160CFCF33
:104260002A5F3F4FCF0102C0880F991F2A95E2F7BE
:10427000082BC5CF2F5F3F4FCF0102C0880F991F7A
:104280002A95E2F7182BBBCF2C5F3F4FCF0102C01E
:10429000880F991F2A95E2F7182BB1CF2D5F3F4F5A
:1042A000CF0102C0880F991F2A95E2F7082BA7CFEC
:1042B000106841E09CCF0093970F1093980FF092F5
:1042C000990FDF91CF911F910F91FF900895409129
:1042D000C60F5091C70F8091D00F9091D10F482BEE
:1042E000592B8091DA0F9091DB0F482B592B80913D
:1042F000E40F9091E50F482B592B8091EE0F909190
:10430000EF0F482B592B8091F80F9091F90F482B04
:10431000592B5093480340934703A0E0E0E0F0E0BE
:1043200020E030E061E070E011C022503040CB016D
:10433000022E02C0880F991F0A94E2F72E5F3F4FAA
:10434000E82B2F5F3F4F29303105A9F0CB01022E1A
:1043500002C0880F991F0A94E2F784239523892BC2
:1043600081F3223068F0283000F3F8602F5F3F4F70
:104370002930310559F780910D1087FF65C00DC0B8
:104380002A5F3F4FCB01022E02C0880F991F0A946B
:10439000E2F726503040A82BD4CF20910010309166
:1043A000011020FF07C0AF7B8091A40F9091A50F53
:1043B00080FDA06421FF07C0AF778091A40F90918A
:1043C000A50F81FDA06822FF07C0EE7F8091A40F9A
:1043D0009091A50F82FDE16023FF07C0ED7F8091E2
:1043E000A40F9091A50F83FDE26024FF07C0EB7F2F
:1043F0008091A40F9091A50F84FDE46025FF07C074
:10440000E77F8091A40F9091A50F85FDE86026FFBE
:1044100007C0EF7E8091A40F9091A50F86FDE0610B
:1044200027FD0BC030FF10C0FB7F8091A40F90913F
:10443000A50F90FF09C0F86007C0EF7D8091A40F21
:1044400087FFF0CFE062EECFA2B9E5B9F8B90895E1
:104450008F929F92AF92BF92CF92DF92EF92FF9294
:104460000F931F93CF93DF934C016B01EA01888573
:104470009985892B29F48A859B85892B09F477C036
:10448000F601A280B3808C859D85892B21F48E85D1
:104490009F85892BA9F1A814B90448F1C884D9844F
:1044A0006A857B85E880F9800A811B81882777FDF2
:1044B0008095982F9401442755270E94314BE60E92
:1044C000F71E081F191F9601442737FD4095542FEA
:1044D000C801B7010E94A54B922F27FD85C0243645
:1044E0000CF07FC088E29802C00111247FC0CC8408
:1044F000DD846E857F85EC80FD800E811F81D6CFA7
:104500008C819D81AE81BF810097A105B10519F60F
:10451000F601848195818A199B099D878C87808506
:1045200099272781821B91099F878E8764817581D6
:104530008827992727813327442755270E94314B05
:104540007B018C01F601A280B380B50188279927F1
:1045500020853327442755270E94314BE61AF70A56
:10456000080B190BEC82FD820E831F8394CF888188
:104570009981AA81BB810097A105B10509F080CF7F
:10458000FB018281938120813181821B930B99876A
:104590008887878199272681821B91099B878A8733
:1045A000A280B380B5018827992726813327442725
:1045B00055270E94314B7B018C01F601608171818E
:1045C0008827992727813327442755270E94314B75
:1045D000E61AF70A080B190BE882F9820A831B8393
:1045E00052CF88E79FE002C090E07CCFDF91CF916F
:1045F0001F910F91FF90EF90DF90CF90BF90AF9001
:104600009F908F900895F894CF93DF93EF93FF934B
:10461000C0E8D8E0E1E6F0E0C083D083FF91EF91FD
:10462000DF91CF9178940895F894CF93DF93EF932F
:10463000FF93C0E8D1E0E1E6F0E0C083D083FF91D2
:10464000EF91DF91CF9178940895F894CF93DF9311
:10465000EF93FF93C0E8D0E0E1E6F0E0C083D083C1
:10466000FF91EF91DF91CF9178940895809143036A
:1046700099270895809144039927089580914503CF
:1046800099270895809146039927089580914703BB
:104690009091480308958091490390914A030895A9
:1046A00090914B0380911303981729F09093130373
:1046B00081E090E0089580E090E0089590914C03AF
:1046C00080911203981729F09093120381E090E0F3
:1046D000089580E090E0089590914D03809111033A
:1046E000981729F09093110381E090E0089580E0FD
:1046F00090E008950E944402853059F08091420371
:10470000882339F483E08093420310923F03109290
:104710003E030895CF93DF93EC010E94440285305D
:1047200059F082E080934203D0934103C093400349
:1047300010923F0310923E03DF91CF9108950E94A3
:10474000F21F84B5887F84BD16BC17BC84B5887FF2
:1047500084BD80918100887F8093810010928000C9
:104760001092810080918100887F809381002F9832
:104770002E9A1EB8409A00004098419A0000419835
:10478000429A0000429880917A008F7780937A0055
:104790008091B000887F8093B0001092B2000E9498
:1047A0004402813039F08AEF8093B3008FE0809328
:1047B000B00006C08CE98093B3008BE08093B0001A
:1047C00082E087BB80937000089542E0842F992790
:1047D00023E030E0FC01EE0FFF1FEE0FFF1FE80F9C
:1047E000F91FE95EFC4F8081818321503040319771
:1047F0008FEF2F3F3807B9F7415040F780B193B1A1
:1048000022B330B173B149B150B163B1829586958D
:1048100086958370817092959F709270892B2695F2
:1048200026952470822B369536953870832B7071BF
:10483000872B469546954072842B550F550F507423
:10484000852B6295607F6078862B8093140389B1F5
:1048500090B143B162B320B133B159B170B1829517
:104860008F708170969596959270892B4470842BE9
:104870006870862B220F220F2071822B3295307F99
:104880003072832B5295507F5074852B7295770F21
:10489000770F707C7078872B8093190383B129B1CF
:1048A00090B130B149B181702270822B990F990F6C
:1048B0009470892B32953F703870832B4295407FDE
:1048C0004071842B80931E03A0914403B091450353
:1048D00072E0872F99275FEF60E043E09C01220F91
:1048E000331F220F331F280F391F2C5E3C4FF90155
:1048F000E40FF11D80815823682B4150C0F77130BF
:10490000F9F0713048F07230F9F0715010F7A0935F
:104910004403B09345030AC0A0934403B0934503F6
:1049200080914303582B65236093430380914D038B
:104930008F5F80934D0382E090E00E94154A45CF3F
:10494000A52BA6237150C5CFB52BB6237150C1CF6F
:1049500042E0842F992723E030E0FC01EE0FFF1F97
:10496000EE0FFF1FE80FF91FEA5DFC4F8081818386
:104970002150304031978FEF2F3F3807B9F7415022
:1049800040F780B18093230393B189B19F738295DF
:10499000880F880F807C982B9093280389B192B35D
:1049A00029B132B3869586958570969596959270C5
:1049B000892B22952F702870822B3071832B809346
:1049C0002D03A0914403B091450372E0872F9927EE
:1049D0005FEF60E043E09C01220F331F220F331F83
:1049E000280F391F2D5D3C4FF901E40FF11D808127
:1049F0005823682B4150C0F77130F9F0713048F0FE
:104A00007230F9F0715010F7A0934403B09345034E
:104A10000AC0A0934403B093450380914303582BED
:104A200056235093430380914D038F5F80934D0332
:104A300082E090E00E94154A8BCFA52BA6237150EF
:104A4000C5CFB52BB6237150C1CF23E030E0E7E3EB
:104A5000F3E0808181832150304031978FEF2F3FE9
:104A60003807B9F780B18F73809334038091330393
:104A7000880F489B4CC0482F4E7F40933303809152
:104A80003203880F499B40C0582F5E7F50933203FA
:104A90003FEF20E093E0E92FFF27EC5CFC4F8081A3
:104AA0003823282B9150B8F780914303382B2323C8
:104AB00020934303842F99278F7190708F31910534
:104AC000D1F1892B39F5209146032E7F209346039F
:104AD000852F99278F7190708F31910521F1892B46
:104AE00019F42D7F209346034B9B22C0822F8860B0
:104AF0008093460380914D038F5F80934D0382E046
:104B000090E00E94154AA1CF582F5160BFCF482F87
:104B10004160B3CF20914603852F99278F71907004
:104B20008F319105E1F62260209346034B99DECF49
:104B3000822F877FDDCF209146032160209346039B
:104B4000C7CFCF92DF92EF92FF920F931F93CF9335
:104B5000DF9391E09093420357C0833009F45DC026
:104B6000963009F4D1C0973008F09AC0933009F418
:104B700008C2943008F071C1913009F476C29230C5
:104B800009F4CCC2C0913E03D0913F032091980F0D
:104B90004091990F30919B0F00919C0F10919E0FA7
:104BA0006996D0933F03C0933E038091970F8EB9CF
:104BB000409A000040982EB9419A000041984EB9A1
:104BC000429A0000429880919A0F8EB9439A000051
:104BD00043983EB9449A000044980EB9459A0000A3
:104BE000459880919D0F8EB9469A000046981EB94F
:104BF000479A0000479880914B038F5F80934B0347
:104C000089E190E00E94154A0E944402853081F0BB
:104C100090914203992309F0A0CF2091980F4091E1
:104C2000990F30919B0F00919C0F10919E0FBDCF5B
:104C300090914203943070F794E090934203109265
:104C40003F0310923E0380910710833009F480C027
:104C50004091990F4C614093990F30919B0F3068B0
:104C600030939B0F00919C0F036000939C0F109159
:104C70009E0F106710939E0F2091980FC0913E03D6
:104C8000D0913F03C436D10508F48ACFC0E0D0E00C
:104C900010923F0310923E0395E09093420380CF21
:104CA000993009F417C19A3008F06AC0973009F4B6
:104CB00098C1983009F066CF80910710833009F4CD
:104CC00097C230919B0F306830939B0F00919C0FDF
:104CD000036000939C0F2091980F4091990FC09111
:104CE0003E03D0913F0391E0C43FD90708F42AC2A4
:104CF000C0E0D0E010923F0310923E0399E0909301
:104D0000420310919E0F4CCF80910710833009F41D
:104D100059C14091990F4C614093990F2091980F80
:104D2000C0913E03D0913F03B1E0C43FDB0708F1DF
:104D3000C0E0D0E010923F0310923E0397E09093C2
:104D4000420330919B0F00919C0F10919E0F28CF32
:104D50002091980F206F2093980F4091990F4F61E9
:104D60004093990F30919B0F00919C0F10919E0FD3
:104D700085CF30919B0F00919C0F10919E0F10CF0B
:104D80009A3009F492C19B3009F0FCCE8091071053
:104D9000833009F40BC24091990F437E4093990FE1
:104DA00030919B0F3F7730939B0F00919C0F0C7FAE
:104DB00000939C0F10919E0F1F7810939E0F2091CF
:104DC000980FC0913E03D0913F0381E0C43FD807C4
:104DD00008F4E6CEC0E0D0E010923F0310923E030C
:104DE000D0903C03D394D0923C03C0901210EC2C92
:104DF000FF240894E11CF11CC70164E670E00E94E6
:104E0000704B77278CE99FEF689FF001699FF00D49
:104E1000789FF00D1124C7018E0F9F1F6AE070E08C
:104E20000E94704B7727CB01880F991F880F991F1D
:104E3000880F991F660F771F680F791F8C2D8E0FB3
:104E40008F5F861B09F48AE0D81608F4E0C110923F
:104E50003C0394E090934203A3CE943009F4F3CE44
:104E6000953009F08FCE80910710833009F4AFC1DF
:104E70004091990F437E4093990F30919B0F3F775C
:104E800030939B0F00919C0F0C7F00939C0F10910F
:104E90009E0F1F7810939E0F2091980FC0913E0394
:104EA000D0913F03A3E0C438DA0708F479CEC0E01C
:104EB000D0E010923F0310923E0310923C03809189
:104EC00012109927833691050CF413C196E0909344
:104ED000420366CE80910710833009F40EC14091E1
:104EE000990F437E4093990F30919B0F3F773093FA
:104EF0009B0F00919C0F0C7F00939C0F10919E0FB5
:104F00001F7810939E0F2091980FC0913E03D0916F
:104F10003F03A1E0C43FDA0708F442CEC0E0D0E08E
:104F200010923F0310923E03F0903C03F394F092F2
:104F30003C0380911210E82FFF273196CF0164E6E1
:104F400070E00E94704B77278CE99FEFDC016A9F2D
:104F5000C0016B9F900D7A9F900D11248E0F9F1FA3
:104F60006AE070E00E94704B862F662309F48AE0A5
:104F7000F81608F4BEC010923C039AE090934203E6
:104F80000FCEE7E9FFE08FEF81939FE0EF39F9075C
:104F9000D9F78091910F8823E9F4C0913E03D09115
:104FA0003F038091400390914103C817D90708F44B
:104FB000EDCDC0E0D0E010923F0310923E0310927E
:104FC0004203E4CD2091980F20672093980F4091E1
:104FD000990FA6CEC0E0D0E010923F0310923E039E
:104FE000D5CD80910710833009F4CFC04091990F3F
:104FF000437E4093990F30919B0F3F7730939B0FE7
:1050000000919C0F0C7F00939C0F10919E0F1F78B6
:1050100010939E0F2091980FC0913E03D0913F03B3
:1050200081E0C43FD80708F4BBCDC0E0D0E01092C7
:105030003F0310923E03E0913C03EF5FE0933C039B
:10504000809112109927019664E670E00E94704BDF
:10505000862F662309F48AE0E81708F437CF109208
:105060003C0398E0909342039BCDE7E9FFE08FEF8C
:1050700081939FE0EF39F907D9F7C0913E03D091B2
:105080003F03A3E0C83EDA0708F480CDC0E0D0E0DB
:1050900010923F0310923E038091910F882309F4F0
:1050A0008ECF93E09093420371CD809107108330AF
:1050B00009F463C010919E0F106710939E0F4091EA
:1050C000990FC0913E03D0913F03B1E0C43FDB078D
:1050D00090F1C0E0D0E010923F0310923E039BE0BD
:1050E000909342032091980F30919B0F00919C0F59
:1050F00057CD98E09093420353CD2091980F2F7095
:105100002093980F4091990F407E4093990F3091D2
:105110009B0F00919C0F10919E0FF7CE8091910FE5
:10512000882399F410924203C0E0D0E010923F032C
:1051300010923E032BCD2091980F30919B0F009140
:105140009C0F2ECD10919E0F2BCD209140033091BE
:105150004103C0913E03D0913F03C90196958795C5
:10516000C817D90708F057C0E7E9FFE08FEF819330
:10517000BFE0EF39FB07D9F709CD4091990F4C619A
:105180004093990F10919E0F9CCF2091980F2F70F4
:105190002093980F4091990F407E4093990F309142
:1051A0009B0F00919C0F10919E0F36CF2091980F6E
:1051B0002F702093980F4091990F407E4093990F44
:1051C00030919B0F00919C0F10919E0FFACD209172
:1051D000980F2F702093980F4091990F407E409325
:1051E000990F30919B0F00919C0F10919E0F56CEFE
:1051F0002091980F20682093980F4091990F436059
:105200004093990F30919B0F00919C0F68CD8AE0DD
:1052100080934203C5CCC217D30708F0DBCEE7E981
:10522000FFE011928FE0EF39F807D9F7AFCCFF928A
:105230000F931F93CF93DF9381E0809342031FEF7F
:10524000F12E21C080914203882311F40E94E620B0
:105250008091970F8EB9409A000040988091980FE6
:105260008EB9419A000041988091990F8EB9429A67
:105270000000429880914B038F5F80934B0389E13C
:1052800090E00E94154A0E944402182F853051F187
:10529000809142038823E1F01330C1F2863009F493
:1052A00061C08730E0F5833009F44FC1843008F0E5
:1052B00071C0813009F4E5C1823009F40CC2C0919B
:1052C0003E03D0913F036996D0933F03C0933E03C2
:1052D000112309F4B7CF143009F4B8CF133009F013
:1052E000B7CFB4CF809142038430A0F684E080939E
:1052F0004203C0E0D0E010923F0310923E03809141
:10530000970F88638093970F8091980F8E68809392
:10531000980F8091990F83608093990FD4CF893033
:1053200009F4C8C08A3008F066C0873009F433C178
:10533000883029F68091980F8E608093980FC091E5
:105340003E03D0913F03E1E0C43FDE0708F4BBCF4A
:10535000C0E0D0E010923F0310923E0389E08093BA
:105360004203B1CF8091970F88638093970FC091CC
:105370003E03D0913F03F1E0C43FDF0708F4A3CF21
:10538000C0E0D0E010923F0310923E0387E080938C
:10539000420399CF843009F453C1853009F08FCF8F
:1053A0008091970F877C8093970F8091980F8177DA
:1053B0008093980F8091990F8C7F8093990FC09163
:1053C0003E03D0913F03E3E0C438DE0708F47BCF0F
:1053D000C0E0D0E010923F0310923E0310923D03D4
:1053E000809112109927833691050CF470C186E0E4
:1053F0008093420368CF8A3009F405C18B3009F0ED
:105400005ECF8091970F877C8093970F8091980F44
:1054100081778093980F8091990F8C7F8093990F5B
:10542000C0913E03D0913F0381E0C43FD80708F408
:105430004ACFC0E0D0E010923F0310923E030091AB
:105440003D030F5F00933D0340911210242F33273B
:105450002F5F3F4FC90164E670E00E94704B7727D1
:105460008CE99FEF689FF001699FF00D789FF00D28
:105470001124C9018E0F9F1F6AE070E00E94704BDB
:105480007727CB01880F991F880F991F880F991FC5
:10549000660F771F680F791F4E0F4F5F461B09F489
:1054A0004AE0041708F43DC110923D0384E0809364
:1054B000420309CF8091970F877C8093970F80914B
:1054C000980F81778093980F8091990F8C7F8093AC
:1054D000990FC0913E03D0913F03F1E0C43FDF0735
:1054E00008F4F1CEC0E0D0E010923F0310923E03EA
:1054F00040913D034F5F40933D03209112103327AD
:105500002F5F3F4FC90164E670E00E94704B772720
:105510008CE99FEFFC016E9FC0016F9F900D7E9FF5
:10552000900D1124820F931F6AE070E00E94704B6F
:10553000862F662309F48AE0481708F4C8C0109241
:105540003D038AE080934203BECEF092970FF09223
:10555000980F8093990F8091910F8823A9F4C0919F
:105560003E03D0913F038091400390914103C817BF
:10557000D90708F4A8CEC0E0D0E010923F03109203
:105580003E03109242039FCEC0E0D0E010923F0352
:1055900010923E0398CE8091970F877C8093970F4F
:1055A0008091980F81778093980F8091990F8C7FCD
:1055B0008093990FC0913E03D0913F0381E0C43F97
:1055C000D80708F480CEC0E0D0E010923F031092DC
:1055D0003E0320913D032F5F20933D0380911210E5
:1055E0009927019664E670E00E94704B862F66232F
:1055F00009F48AE0281708F4FACE10923D0388E0F7
:105600008093420360CE8091980F80688093980FBA
:105610008091990F83608093990FC0913E03D09140
:105620003F03F1E0C43FDF0708F44DCEC0E0D0E017
:1056300010923F0310923E038BE08093420343CECF
:105640008091970F88638093970F8091980F8E6851
:105650008093980F8091990F83608093990FC091E8
:105660003E03D0913F03C436D10508F42CCEC0E0F0
:10567000D0E010923F0310923E0385E080934203F6
:1056800022CEF092970FF092980F83E08093990FBB
:10569000C0913E03D0913F0383E0C83ED80708F491
:1056A00012CEC0E0D0E010923F0310923E038091F2
:1056B000910F882399F180910710813021F080911A
:1056C0000E10882359F583E080934203FCCD88E0D7
:1056D00080934203F8CD8091910F882349F4109272
:1056E0004203C0E0D0E010923F0310923E03EBCDA6
:1056F0002091400330914103C0913E03D0913F037C
:10570000C90196958795C817D90778F4F092970F35
:10571000F092980F83E08093990FD5CD10924203B9
:10572000CECD8AE080934203CECDC217D30708F0D6
:105730002BCF1092970F1092980F1092990FC3CD04
:10574000AF92BF92CF92DF92EF92FF920F931F938F
:10575000CF93DF93CDB7DEB72C970FB6F894DEBFAB
:105760000FBECDBF8AE090E090934F0380934E032D
:1057700088EE93E0909351038093500320EA3FE03A
:10578000309353032093520384E1809354038AE5BA
:105790008093550382E38093560384EF91E09093C6
:1057A0005803809357038CEA9DE090935A038093AB
:1057B000590330935C0320935B038CE380935D0378
:1057C00087E380935E038FE580935F0343E0A42E1D
:1057D000B12CAC0EBD1EEE24FF2400E010E06E01E3
:1057E0000894C11CD11C96014AE050E0B50182E149
:1057F00095EB0E94B118892BF9F489819A81099758
:10580000D9F48B819C8190934F0380934E038D81BB
:105810009E8190935103809350038F81988590933C
:105820005303809352038985809354038A85809320
:1058300055038B8580935603EE24FF2400E010E08F
:1058400096014AE050E0B50181E195EB0E94B11864
:10585000892BF9F489819A810997D9F48B819C81EC
:1058600090935803809357038D819E8190935A03A0
:10587000809359038F81988590935C0380935B0399
:10588000898580935D038A8580935E038B858093F1
:105890005F0381E080937E0010927C0087E080931C
:1058A0007A0010927B0080917A00806880937A0061
:1058B00080917A00806480937A0080EA9FE09093E0
:1058C00089008093880080ED97E090938B0080930F
:1058D0008A0090938D0080938C008FE380938000EA
:1058E0008AE1809381008AEF90E00E94154A20911E
:1058F0007800809179009927982F8827820F911D31
:1059000090933B0380933A0319C00E94F91F40E62D
:1059100053E06EE473E0C8010E9428220E94FF1F3A
:1059200040E753E067E573E0C8010E9428220E9427
:105930000F2080914C038F5F80934C0380917A00FD
:10594000806480937A008AEF90E00E94154A20914B
:105950007800809179009927582F4427420F511DD4
:1059600080913A0390913B03480F591F50933B039A
:1059700040933A03809139038F5F809339039927CD
:1059800083709070892BA9F6CA0165E070E00E94CF
:105990005C4B8B0170933B0360933A0370934A0313
:1059A0006093490380911B10882309F4AECF809146
:1059B000910F882309F0A9CF0E94F21FB1CF2F9237
:1059C0003F924F925F926F927F928F929F92AF928F
:1059D000BF92CF92DF92EF92FF920F931F93CF93DC
:1059E000DF93CDB7DEB761970FB6F894DEBF0FBE79
:1059F000CDBF1C0172E0472E512C4C0E5D1E88E07D
:105A0000F20111928A95E9F76AE0662E712C6C0E0C
:105A10007D1ED301F10188E001900D928150E1F7E4
:105A200051EB852E53E0952E62015E010894A11C76
:105A3000B11C740100E010E041E050E0B701C50185
:105A40000E94BF4A298121502983822F86958695FD
:105A50008695F301E80FF11D80819927AA27BB27BE
:105A6000277004C0B595A795979587952A95D2F785
:105A700081709070892B61F081E090E0002E02C06F
:105A8000880F991F0A94E2F7F6012081282B2083C2
:105A90000F5F1F4F0894E11CF11C0830110561F6DF
:105AA00088E090E0880E991E0894C11CD11C91EFEB
:105AB000891693E0990609F0BCCFF101D20188E084
:105AC0000D9001928150E1F761960FB6F894DEBF18
:105AD0000FBECDBFDF91CF911F910F91FF90EF903F
