:020000040000FA
:100000000C9419020C9442020C9442020C94420289
:100010000C9442020C9442020C9442020C94420250
:100020000C9442020C94F1210C9442020C94420272
:100030000C9442020C9442020C9442020C94420230
:100040000C9450440C9442020C9403320C944202DF
:100050000C9442020C9442020C9442020C94420210
:100060000C9442020C9442020C9442020C94420200
:100070000C9442020C9442020C9442020C944202F0
:100080000C9442020C9442020C9442020C944202E0
:100090000C944202D22700000000E1B400000000EE
:1000A000000000000000000000000000004001000F
:1000B000A40000005365702033302032303131000D
:1000C0000000000030383A34373A3339000000007D
:1000D0000000000002001000342E312E320000001B
:1000E0000000000000000000000000000000000010
:1000F0000000000054414150504C494300000000B2
:100100000000000000002110422063308440A55010
:10011000C660E770088129914AA16BB18CC1ADD14D
:10012000CEE1EFF13112100273325222B5529442F5
:10013000F772D662399318837BB35AA3BDD39CC39D
:10014000FFF3DEE36224433420040114E664C77441
:10015000A44485546AA54BB528850995EEE5CFF5ED
:10016000ACC58DD55336722611163006D776F66695
:100170009556B4465BB77AA719973887DFF7FEE73D
:100180009DD7BCC7C448E5588668A7784008611861
:1001900002282338CCC9EDD98EE9AFF9488969998D
:1001A0000AA92BB9F55AD44AB77A966A711A500A35
:1001B000333A122AFDDBDCCBBFFB9EEB799B588BDD
:1001C0003BBB1AABA66C877CE44CC55C222C033C81
:1001D000600C411CAEED8FFDECCDCDDD2AAD0BBD2D
:1001E000688D499D977EB66ED55EF44E133E322ED5
:1001F000511E700E9FFFBEEFDDDFFCCF1BBF3AAF7D
:10020000599F788F8891A981CAB1EBA10CD12DC1DA
:100210004EF16FE18010A100C230E3200450254070
:1002200046706760B9839893FBA3DAB33DC31CD3D0
:100230007FE35EF3B1029012F322D23235421452C0
:1002400077625672EAB5CBA5A89589856EF54FE51C
:100250002CD50DC5E234C324A01481046674476410
:1002600024540544DBA7FAB79987B8975FE77EF770
:100270001DC73CD7D326F2369106B0165766767660
:10028000154634564CD96DC90EF92FE9C899E9893C
:100290008AB9ABA94458654806782768C018E108B0
:1002A0008238A3287DCB5CDB3FEB1EFBF98BD89B10
:1002B000BBAB9ABB754A545A376A167AF10AD01A00
:1002C000B32A923A2EFD0FED6CDD4DCDAABD8BAD5C
:1002D000E89DC98D267C076C645C454CA23C832C50
:1002E000E01CC10C1FEF3EFF5DCF7CDF9BAFBABFB0
:1002F000D98FF89F176E367E554E745E932EB23EA0
:10030000D10EF01EE803F401FA007D00640054559C
:10031000504C00005455504C0000494F434F4E463E
:100320004947005455504C0000494F434F4E4649F1
:1003300047005455504C0000494F434F4E464947E3
:10034000005455504C0000494F434F4E464947001A
:100350005455504C0000494F434F4E4649470054B6
:1003600055504C0000494F434F4E464947005441B9
:100370004150504C4943005741544348444F470073
:100380005455504C0000494F434F4E464947005486
:10039000414150504C494300000000000000000063
:1003A000ADADADADADADADAD54414150504C494397
:1003B000003738392E2F302526271C1D1E13141503
:1003C0000A0B0C0102033A3B3C31323328292A1F25
:1003D00020211617180D0E0F0405063D3E3F34353B
:1003E000362B2C2D222324191A1B10111207080951
:1003F00040554B574E00FA000E04130064002604CB
:1004000013007D001E041300F40106041300E8032A
:1004100002041301FA00060413006400120413001E
:100420007D000E041300F40102041300E80300042D
:100430001301A8E3B0E1E0E0FAE081918D938AE056
:10044000E731F807D1F711241FBECFEFD0E1DEBFAF
:10045000CDBF11E0A0E0B1E0E6ECFDE900E00BBFAC
:1004600002C007900D92A436B107D9F710E1A4E6B7
:10047000B1E001C01D92A733B107E1F70E946F03FD
:100480000C94E24E0C94000080917E01992708950F
:10049000CF92DF92EF92FF920F931F93CF93DF9350
:1004A000CDB7DEB722970FB6F894DEBF0FBECDBF33
:1004B0001A8219820E94920A6C01EE24FF2487019D
:1004C000C801B7010E94C81B682FC6010E94950A87
:1004D0006C010894E11CF11C011D111D84E9E81652
:1004E000F1040105110561F7C6010E94A60A8C01FD
:1004F0006AE970E080E090E00E94D01B08171907BD
:1005000021F189819A81009711F584E190E09A8325
:10051000898340E050E08E010F5F1F4FB80180914A
:10052000B10F9091B20F0E944D4680E290E39A8302
:10053000898340E050E0B8018091AF0F9091B00FF7
:100540000E944D4689819A8102C089819A812296B2
:100550000FB6F894DEBF0FBECDBFDF91CF911F91D4
:100560000F91FF90EF90DF90CF900895AF92BF92E0
:10057000CF92DF92EF92FF920F931F93CF93DF936F
:10058000109265011092640124E1C22ED12C90E2F8
:10059000A92E90E3B92E0E94920AEC0184EAE82E7B
:1005A000F12C012D112DF894C801B7010E94C81B30
:1005B0007894682FCE010E94950AEC010894E11C02
:1005C000F11C011D111D80E0E81680E4F80681E0B1
:1005D000080780E0180739F7CE010E94A60A8C01AF
:1005E000F89464E970E080E090E00E94D01B789479
:1005F0000817190739F08091640190916501892BE2
:1006000009F450C00E94920AEC01EE24FF248701F5
:10061000F894C801B7010E94C81B7894682FCE01D6
:100620000E94950AEC010894E11CF11C011D111DAA
:1006300084E9E816F1040105110551F7CE010E9485
:10064000A60A8C01F8946AE970E080E090E00E94CC
:10065000D01B78940817190709F49DCF8091640185
:1006600090916501892B09F096CFD0926501C092D7
:10067000640140E050E064E671E08091B10F909138
:10068000B20F0E944D46B0926501A092640140E015
:1006900050E064E671E08091AF0F9091B00F0E943E
:1006A0004D4679CFD0926501C092640140E050E0A0
:1006B00064E671E08091B10F9091B20F0E944D46B7
:1006C000B0926501A092640140E050E064E671E000
:1006D0008091AF0F9091B00F0E944D4693CFEF9253
:1006E000FF920F931F93CF93DF93CDB7DEB722977F
:1006F0000FB6F894DEBF0FBECDBF10927E0181E031
:100700008093B50F0E94E03C90932A1080932910AB
:100710000B9709F4A5C1809137108A3009F447C1BD
:100720008C3009F45BC1893109F476C1823309F454
:10073000A1C1843609F482C1109237100E94480288
:100740009A8389830E94932F62E084E00E9423476A
:100750009093B00F8093AF0F62E084E00E94234734
:100760009093B20F8093B10F89819A81892B09F4FC
:10077000E1C040E050E08E010F5F1F4FB801809153
:10078000AF0F9091B00F0E944D4689819A81907071
:100790009A83898340E050E0B8018091B10F909135
:1007A000B20F0E944D460E94DC2281E00E94131984
:1007B0009A838983892B09F4B3C081E190E09A83FD
:1007C000898340E050E08E010F5F1F4FB801809198
:1007D000B10F9091B20F0E944D4687E190E69A8347
:1007E000898340E050E0B8018091AF0F9091B00F45
:1007F0000E944D46EE24FF2400E020E030E04AEC69
:1008000050E060E071E086EB9DE20E94164B809123
:100810001C10882309F096C011B812B880EC84B976
:1008200015B89FEF97B980E28AB99DB91EB883E0E9
:1008300083BB14BA80911510833009F4E1C0EE2413
:10084000FF2401E020E030E046E950E06AE071E09A
:100850008EEB96E20E94164BEE24FF2403E020E08C
:1008600030E044EF50E06FE071E08EE09AE00E94EB
:10087000164B02E020E030E04EE650E064E171E02B
:1008800087EB97E20E94164BEE24FF2400E020E065
:1008900030E048E750E06CE371E087E696E00E94C4
:1008A000164B0E94C53CA19A80917F01882391F14B
:1008B00060E080918001909181010E94AC3B81E0D9
:1008C0000E94840B0E94FA3180911510882391F0C8
:1008D000843081F04AE7E42E41E0F42E04E020E089
:1008E00030E04AEF50E061E471E08EEB97E30E9464
:1008F000164B12C15AE7E52E51E0F52E04E020E038
:1009000030E04AEF50E061E471E085EB96E30E944D
:10091000164B02C182E00E94840B0E94D50CD4CFFA
:100920000E9447199A838983892B09F052C00E943B
:10093000AA2F60CF0E9455219A838983892B09F4BD
:1009400032CF17CF80EC81B912B89FEF94B915B8A8
:100950008FE087B980E28AB99DB91EB883E083BB76
:1009600014BAEE24FF2401E020E030E046E950E034
:1009700069E171E08BE397E20E94164B80911510BC
:10098000882309F489C0813009F4B6C0843009F4A1
:100990009BC0EE24FF2402E020E030E04EE650E071
:1009A00067E371E08DE29BE20E94164B6DCF8BE016
:1009B00090E090932A10809329108FEF80937F010D
:1009C0008093A10F84E690E0909381018093800151
:1009D000B3CECE0101960E94953A0CCF8BE090E009
:1009E00090932A10809329108FEF80937F0180933A
:1009F000A10F8DE790E090938101809380019CCEC0
:100A000001E020E030E046E950E065E071E08BEF86
:100A100095E20E94164B20CF8BE090E090932A1035
:100A2000809329108FEF80937F018093A10F8AEF2D
:100A300090E090938101809380017ECE8BE090E0E6
:100A400090932A10809329108FEF80937F018093D9
:100A5000A10F88EE93E090938101809380016CCE8A
:100A600080E891E00E94D83C8FEF80937F018093D3
:100A7000A10F51CE8BE090E090932A108093291023
:100A80008FEF80937F018093A10F84EF91E090938B
:100A900081018093800150CE03E020E030E04EEBF6
:100AA00050E06EE171E087EB9CE10E94164B20E084
:100AB00030E04EE650E063E271E085E697E00E94A8
:100AC000164B809115105FCFEE24FF2403E020E049
:100AD00030E04EEB50E06DE271E082E590E40E9480
:100AE000164B20E030E044EF50E062E371E08DE42B
:100AF00098E00E94164B4DCFEE24FF2403E020E047
:100B000030E044EF50E068E271E087EA99E00E944B
:100B1000164B809115103ACF3CE7E32E31E0F32ECF
:100B200004E020E030E04FEF50E066E471E08EE159
:100B30009BE30E94164BEE24FF2420E030E04EE6BB
:100B400050E06BE471E088EB95E00E94164B0E9448
:100B5000184C80E090E022960FB6F894DEBF0FBEEE
:100B6000CDBFDF91CF911F910F91FF90EF9008952E
:100B7000EF92FF920F931F93CF93DF93CDB7DEB722
:100B800022970FB6F894DEBF0FBECDBF8FEF9FEF59
:100B900090936701809366017E010894E11CF11C2B
:100BA00006E010E412C0813008F48BC08091680127
:100BB000873639F01A83098380917E01882309F4EE
:100BC0007CC0109268010E94D12280E590E00E94D2
:100BD000374D0E94EC35882329F0809168018160AF
:100BE000809368010E94893A882329F080916801E6
:100BF0008460809368010E94A91C882329F0809159
:100C000068018860809368010E94D73E882329F09C
:100C1000809168018061809368010E946625882325
:100C200029F0809168018064809368010E94822588
:100C3000882329F0809168018260809368010E9476
:100C40007425882329F0809168018062809368016F
:100C50009091820180916901981739F09093690110
:100C6000809168018068809368018091660190910D
:100C7000670101979093670180936601892B09F0C2
:100C8000A2CF8FEF9FEF90936701809366011A8246
:100C9000198280911510843008F485CF843009F0D2
:100CA00090CF80916801873F09F48BCF1A83098325
:100CB00080917E01882309F084CFC7010E94953A74
:100CC00080CF809168018F3E09F074CF7ACFAF92C8
:100CD000BF92DF92EF92FF920F931F93CF93DF9318
:100CE000CDB7DEB722970FB6F894DEBF0FBECDBFEB
:100CF0004FEF5FEF6AE671E08091B10F9091B20F14
:100D00000E9489458130A1F71092A10F80911C109B
:100D1000882309F082C0E6EAFFE08FEF81932FE09D
:100D2000EE3AF207D9F780911510833009F4C1C06B
:100D30008091A60F887F8093A60F5E010894A11C66
:100D4000B11C80917E01882319F483E080937E0199
:100D50001A82198240E050E0B5018091B10F909164
:100D6000B20F0E94894589819A8120916A01309150
:100D70006B012817390728F49C0190936B0180932D
:100D80006A01C9016AE070E00E947E4EF62E8AE098
:100D9000689FC0011124E22EE81A80911C1088235C
:100DA00009F05DC000E010E00FC08091A60F887FC1
:100DB0008093A60F84EF91E00E94374D0F5F1F4F85
:100DC0000A30110509F46EC0902F0F1510F0FF20A6
:100DD00049F4809115108330E1F18091A60F826073
:100DE0008093A60F9E1510F0EE2049F48091151007
:100DF000833049F18091A60F84608093A60F84EF21
:100E000091E00E94374D80911510833071F68091EA
:100E1000AB0F837E8093AB0FCDCF80911510E3EDA8
:100E2000FFE097E0882309F44EC090833A9620E1D2
:100E3000E530F207B9F788EF809305105E0108945A
:100E4000A11CB11C7ECF8091AB0F84608093AB0F4F
:100E5000D6CF8091AB0F88608093AB0FC3CF00E0FB
:100E600010E062E0D62E802F0F1510F0FF2011F455
:100E7000D09205108E1510F0EE2029F48091051007
:100E800084608093051084EF91E00E94374D1092AA
:100E9000051084EF91E00E94374D0F5F1F4F0A301D
:100EA000110509F788EB9BE00E94374D1092A10FC6
:100EB00048CF8091AB0F837E8093AB0F5E01089487
:100EC000A11CB11C3ECF1082B1CF1F93CF93DF93F3
:100ED0008CE090E00E94374DC0E3D5E729C08091B7
:100EE000750190917601009751F0222309F057C0C7
:100EF0003A3209F454C0109276011092750140FD07
:100F00000CC0489B0AC0332341F480917E018823A2
:100F100009F45CC0833009F459C01093740188E26D
:100F200090E00E94374D809182018F5F8093820113
:100F30000E945825182F0E944C25382F412F5527E5
:100F40008091740199278095909581709070842389
:100F50009523892B11F03A3279F120917E012430CA
:100F600009F0BDCF80917301381709F4B8CF3093E1
:100F70007301D0937601C093750180E395E788975C
:100F80009093760180937501243009F0B8CF332314
:100F900009F4B5CFD0937601C0937501B0CF8932F3
:100FA000910568F7222379F484E080937E01D09341
:100FB0007601C0937501EBCF88E893E190937601B9
:100FC00080937501CACF10927E0195CF81E0809306
:100FD0007E0121E0E4EDFFE080819181892B09F021
:100FE00020E03A9680E1E031F807B1F720937E01E6
:100FF000213009F092CF0E94D1220E94B525809124
:10100000D8008D7F8093D800A1985D9A0E94192501
:1010100081E083BF889580B199278F739070892B69
:10102000F1F040917E0120E030E0E2EDFFE08081D0
:1010300099278F709070049754F080B19927022EF1
:1010400002C0959587950A94E2F780FD40E02F5FF6
:101050003F4F3A962630310551F740937E0148992B
:1010600002C010927E010E94D92280917E018823C5
:1010700079F60E943B250E94D33160E080912110D7
:10108000909122100E94AC3BA19A8091D80082607E
:101090008093D8000E94CA0C40CFAF92BF92CF92EB
:1010A000DF92FF920F931F93CF93DF93CDB7DEB7FD
:1010B00023970FB6F894DEBF0FBECDBF20916E010F
:1010C00030916F01809182018F5F80938201285D52
:1010D0003F4F30936F0120936E0188E290E00E94B1
:1010E000374D20916E0130916F0183E0283E380723
:1010F00048F36E010894C11CD11CB2E0AB2EB12C98
:10110000AC0EBD1E0FC08330E9F010936C0100934C
:101110006D01809182018F5F8093820188E290E06F
:101120000E94374D0E945825182F0E944C25082FE9
:1011300010FDEBCF489BE9CF882339F780917E01E2
:10114000882309F7A60161E088E794E00E94B43D96
:101150008981882309F081C081E080937E016091BC
:10116000A00F40E050E0A6EBBFE0E42F8C91992760
:101170008F709070892B11F4662391F4E695E695B3
:10118000E695FF27EF5EFF4E808199279A01277031
:10119000307002C0959587952A95E2F780FD6BC067
:1011A00080917E01882331F04F5F5F4F11964B3164
:1011B0005105D9F68091D10F813009F457C0809143
:1011C0007E01813009F45AC0823009F09ECF0E941E
:1011D000D122C5010E949F3B0E94781C0E947D2362
:1011E0008091D80088608093D8000E942A2561E011
:1011F0008A819B810E94AC3B8091D800877F80933D
:10120000D8000E94B52571E0F72EF3BE8895489B63
:1012100004C08091D900897011F010927E010E9463
:10122000D12280917E01882381F78091D800886047
:101230008093D8000E943B2560E08091211090911E
:1012400022100E94AC3B8091D800877F8093D80009
:101250000E94D3310E94CA0C58CF6091A00F613018
:1012600009F07FCF82E080937E017BCF10927E01D8
:101270001092D10F4ACF10927E019CCF0E94D122B2
:101280000E94781C0E947D230E94B5258091D80081
:101290008D7F8093D800A1985D9A0E94192581E0E6
:1012A00083BF889580B199278F739070892B11F433
:1012B00049992CC040917E01E6EBFFE010C080B15F
:1012C00099272150304002C0959587952A95E2F7DD
:1012D00080FD40E031968FE0E13DF807A9F0808184
:1012E000282F3327C901929582958F7089279F7087
:1012F000892704977CF32F7030702F303105F9F671
:101300004999DDCF40E0DBCF40937E01489902C090
:1013100010927E010E94D92280917E01882309F0DB
:10132000BECF0E943B250E94D33160E08091211006
:10133000909122100E94AC3BA19A8091D8008260CB
:101340008093D8000E94CA0C80917E013DCF0F93FC
:101350001F938CE090E00E94374D01E004C088E2CA
:1013600090E00E94374D0E944C25182F809170010B
:10137000882311F41A32F9F0009370012091710161
:10138000309172012115310551F080917E01882341
:1013900061F41A32D9F0109272011092710180E05A
:1013A00090E00E94CA4A80917E018530C1F6812F6B
:1013B0000E943C3DD4CF88E893E1909372018093E2
:1013C00071010093700128E833E1DFCF2932310544
:1013D00078F028523040309372012093710180914F
:1013E000710190917201892BD1F280917E01DDCF44
:1013F00085E080937E0180E395E79093720180936E
:10140000710180917A0190917B010E94CA4A80917A
:101410007C0190917D010E94CA4AE1CF0F931F93F6
:101420008CE090E00E94374D1092790101E032C0CB
:101430000E944C258034E9F110E00E945025803252
:10144000B1F10E945425803181F180917901882386
:1014500011F41037A1F100937901209177013091B7
:1014600078012115310551F080917E01882361F4C6
:10147000103781F1109278011092770180E090E0AE
:101480000E94CA4A80917E018530A9F088E290E0EE
:101490000E94374D80911510833051F60E944C25E3
:1014A000182F893491F610E7D0CF1061CECF10629B
:1014B000C8CF10E4C2CF812F0E943C3DE7CF88E81F
:1014C00093E190937801809377010093790128E864
:1014D00033E1CACF2932310578F0285230403093B9
:1014E0007801209377018091770190917801892B81
:1014F00029F280917E01C8CF85E080937E0180E350
:1015000095E7909378018093770180917A0190918B
:101510007B010E94CA4A80917C0190917D010E94CA
:10152000CA4AE1CF8FEF9FEF08959C01E92FFF2773
:10153000EE0FFF1FEC5FFE4F85919491322F222713
:1015400077272627372782279327089560E00E9470
:10155000950A60E00E94950A08950F931F93CF9318
:10156000DF938C01EB01672B49F0F80161918F014A
:10157000CA010E94950AAC012197B9F7CA01DF910F
:10158000CF911F910F9108950F931F93CF93DF93E6
:101590009C01EB01672B09F459C060E070E080E02A
:1015A00090E0A0E0B0E0F9012191422F55272734C7
:1015B00068F4213488F520532A30D8F124E0969538
:1015C0008795779567952A95D1F744C0215626309F
:1015D000A8F7475550408A019801442737FD4095A8
:1015E000542F260F371F481F591FCA01B901660F14
:1015F000771F881F991F660F771F881F991F660F17
:10160000771F881F991F660F771F881F991F1196D4
:10161000CA17DB0749F6D2CF475350408A019801D9
:10162000442737FD4095542F260F371F481F591F59
:10163000DCCF405350408A019801442737FD409544
:10164000542F260F371F481F591FCFCF60E070E07F
:1016500080E090E0DF91CF911F910F910895FC0100
:101660006115710511F40BC031969081892F815657
:101670008A3110F49052908361507040A9F7089518
:10168000EF92FF920F931F93CF93DF937B01672B12
:1016900071F140E050E060E070E000E010E0EC014B
:1016A00029912032A1F0203220F0822F80538A30FD
:1016B00048F0CB01BA012AE030E040E050E00E945F
:1016C000A54E19C02F70420F511D611D711DCB0118
:1016D000BA012AE030E040E050E00E94534EAB01F6
:1016E000BC010F5F1F4FE016F106D1F6E2CF20E0FC
:1016F00030E040E050E0CA01B901DF91CF911F9185
:101700000F91FF90EF900895809385010895809345
:101710008301609384010895809187019927019640
:1017200065E070E00E94924EFC0180938701FF27E4
:10173000EE0FFF1FEC5FFC4F8591949160E00E94DB
:10174000AC3B0895CF93DF93CDB7DEB724970FB6A8
:10175000F894DEBF0FBECDBF1A821982CE01039668
:101760000E949F3B2B813C818091211090912210FF
:101770008217930759F12A3F3105C9F02B3F3105F4
:1017800050F42D373105E9F01A821982CE01019605
:101790000E94953A1BC081E0243F380769F0285E1B
:1017A000334091F789E590E59A838983EFCF87E508
:1017B00090E59A838983EACF88E590E59A838983C7
:1017C000E5CF86E590E59A838983E0CF0E94FA31E0
:1017D00081E08093850124960FB6F894DEBF0FBE9A
:1017E000CDBFDF91CF9108950E94F1311092860113
:1017F0001092870160E080912110909122100E9448
:10180000AC3B0895CF93DF93CDB7DEB724970FB6E7
:10181000F894DEBF0FBECDBF80918501833031F0DB
:10182000843001F1823009F0ACC028C0809183017E
:10183000823010F00E94A20B80918401853008F460
:1018400057C0863009F457C0863008F45EC080382F
:1018500009F097C080918301882309F092C00E940B
:10186000A20B8FC0809188018F5F809388018531A2
:1018700008F487C083E08093850183C0809189014B
:1018800090918A018A30910528F00A9790938A01F5
:1018900080938901892B09F440C0809183018230B3
:1018A00008F449C01A821982CE0103960E949F3B18
:1018B0002B813C81809121109091221082179307F7
:1018C00089F02A3F310509F447C02B3F3105C0F5A7
:1018D0002D37310509F44BC01A821982CE010196C9
:1018E0000E94953A0E94FA3181E08093850149C0B7
:1018F000813008F4B4CF109286010E948C0B1092B4
:10190000880184E0809385013CC0809186018F5FCF
:10191000809386018A30A8F1A2CF10928A0110929A
:10192000890160E080912110909122100E94AC3BCF
:101930000E94A20B26C08130A1F00E948C0B21C016
:1019400081E0243F3807C1F0285E334029F685E561
:1019500090E59A838983C2CF83E590E59A83898352
:10196000BDCF83E0809385010E94F40B0AC082E51D
:1019700090E59A838983B2CF84E590E59A83898341
:10198000ADCF24960FB6F894DEBF0FBECDBFDF916A
:10199000CF91089580918501813009F0089583E009
:1019A000809385010E94F40B089580918501823017
:1019B00019F00E94FA3108958EE690E090938A0122
:1019C000809389010E94F40B0895FC01818180932A
:1019D000A801A9E9B1E082818D93319681E0AF3908
:1019E000B807C9F708959C0180911010882351F41D
:1019F000F901ACEEB2E081818D93319682E0A33F94
:101A0000B807C9F708954091E9025091EA0291E0C0
:101A10004333590710F52091E7023091E80291E035
:101A20002333390798F4F901E255FE4F84834F5F61
:101A30005F4F5093EA024093E9022F5F3F4F30938C
:101A4000E8022093E70280E090E0089520E030E093
:101A50001092E8021092E702E6CF87E390E508953E
:101A60009C011092B1011092B0011092AF0110923E
:101A7000AE0180911010882351F4F901ACEEB2E070
:101A800081818D93319682E0A33FB807C9F708950D
:101A90001092101008951092101008958091EB028A
:101AA00099270895CF93DF93CDB7DEB72B970FB665
:101AB000F894DEBF0FBECDBF87E18C83FE01359663
:101AC000CE010C961192E817F907E1F788E08B83B5
:101AD000809120109927880F991F880F991F8F5F79
:101AE000994F9A8389836FEFCE0101960E94EE3958
:101AF0002B960FB6F894DEBF0FBECDBFDF91CF910E
:101B00000895EF92FF920F931F93CF93DF93CDB77A
:101B1000DEB72B970FB6F894DEBF0FBECDBF809116
:101B200007038130B1F1813060F510929701109276
:101B300096016EE073E08CEE92E00E94F84D892BE6
:101B400009F481C0EE24FF2400E010E026E931E032
:101B500040E051E062EB71E0809105039091060353
:101B60000E94BF1AAC011092B1011092B001109204
:101B7000AF011092AE01809107038F5F809307033E
:101B8000BFC0823009F483C0833081F140E050E06F
:101B9000B7C085E180938E014091960150919701E5
:101BA000EFE8F1E02091AE013091AF01D901AE54E0
:101BB000BE4F09C08D9180832F5F3F4F319681E0EA
:101BC000E639F80749F024173507A0F3108231965B
:101BD00081E0E639F807B9F73093AF012093AE0101
:101BE00082E08093070340E050E08AC086E18C8366
:101BF0002091AE013091AF01832F99278D832E83E1
:101C00002091B0013091B101832F99278F832887CC
:101C100019861A861B8688E08B838091201099276D
:101C2000880F991F880F991F8F5F994F9A83898317
:101C30006FEFCE0101960E94EE39AC0110921010A8
:101C4000109207035DC000E010E0A8014E545E4F03
:101C500060E1C80180509C4F0E94B43DAC01005F20
:101C60001F4F0B36110540F44115510571F3005F0C
:101C70001F4F0B361105C0F34115510509F073CF05
:101C80008BE790E090939701809396016CCF88E06A
:101C900080938D01809120109927880F991F880FBC
:101CA000991F8F5F994F90938C0180938B016FEFF9
:101CB0008BE891E00E94EE39AC0180E54E30580788
:101CC00009F464CF41155105D9F48091B001909188
:101CD000B10101969093B1018093B0012091AE01C2
:101CE0003091AF01809196019091970128173907A3
:101CF00020F083E08093070303C081E08093070313
:101D0000CA012B960FB6F894DEBF0FBECDBFDF9190
:101D1000CF911F910F91FF90EF900895CF93DF9394
:101D2000CDB7DEB72B970FB6F894DEBF0FBECDBF91
:101D30001092B1011092B0011092AF011092AE0159
:101D40001092E6021092E5021092E8021092E70269
:101D50001092EA021092E902109204031092030317
:101D600029E12C83292F33272D838E836F831886B7
:101D700019861A861B8688E08B838091201099270C
:101D8000880F991F880F991F8F5F994F9A838983B6
:101D90006FEFCE0101960E94EE392B960FB6F894A4
:101DA000DEBF0FBECDBFDF91CF910895CF93DF93FC
:101DB000CDB7DEB72B970FB6F894DEBF0FBECDBF01
:101DC0009B01AC01ECE0220F331F441F551FEA9525
:101DD000D1F72070307040705F707F709067262B55
:101DE000372B482B592B8CE18C83852F9927AA27D9
:101DF000BB278D834E83DA01C9018070A070B0705B
:101E0000892F9A2FAB2FBB278F83288719861A8695
:101E10002070307040705F70252F3327442755277E
:101E200020672B8788E08B83809120109927880F6B
:101E3000991F880F991F8F5F994F9A8389836FEF3E
:101E4000CE0101960E94EE39109210102B960FB61B
:101E5000F894DEBF0FBECDBFDF91CF9108951F93E1
:101E6000CF93DF93EC0111E089810E94030DBC0147
:101E7000892BB9F41F5F21961830B1F78091B0011A
:101E80009091B10101969093B1018093B00180913E
:101E9000AE019091AF0107969093AF018093AE0190
:101EA00005C0882799270E94D60EBC01CB01DF917F
:101EB000CF911F910895CF93DF93CDB7DEB72B97C6
:101EC0000FB6F894DEBF0FBECDBF8BE18C83FE0151
:101ED0003596CE010C961192E817F907E1F788E0E4
:101EE0008B83809120109927880F991F880F991F45
:101EF0008F5F994F9A8389836FEFCE0101960E947D
:101F0000EE39109210102B960FB6F894DEBF0FBE6C
:101F1000CDBFDF91CF910895CF93DF93CDB7DEB7DB
:101F20002B970FB6F894DEBF0FBECDBFFC014181E9
:101F30005527542F44278281480F511D5093020387
:101F40004093010323813327322F22278481280FD6
:101F5000311D8091030390910403840F951F90938A
:101F60000403809303038091B0019091B10128177D
:101F7000390739F069E370E580E090E00E94D60E01
:101F800041C048E050E066E573E08CEE92E00E94CC
:101F9000EA4D892B39F58AE18C83FE013596CE0115
:101FA0000C961192E817F907E1F788E08B8380918E
:101FB00020109927880F991F880F991F8F5F994FBD
:101FC0009A8389836FEFCE0101960E94EE391092B9
:101FD000AF011092AE011092B1011092B00180E0F9
:101FE00090E010C044E050E060E573E08CEE92E0D9
:101FF0000E94EA4D892B79F264E370E580E090E07D
:102000000E94D60E2B960FB6F894DEBF0FBECDBF42
:10201000DF91CF91089548E050E06AE173E08CEEE3
:1020200092E00E94EA4D892B91F044E050E064E197
:1020300073E08CEE92E00E94EA4D892B19F084E364
:1020400090E508950E94520D80E090E008950E946E
:10205000520D80E090E0089568E373E08CEE92E02A
:102060000E94F84D892BA9F462E373E08CEE92E0B4
:102070000E94F84D892B81F064E070E080EF92E0DF
:102080000E94C40A709306036093050380E090E009
:10209000089580E090E0089584E390E50895FC01C0
:1020A00080911010882339F065E370E580E090E0BE
:1020B0000E94D60E089582E0809310108091201027
:1020C0008093EB0281818093F3021092F40248E046
:1020D00050E069E273E08CEE92E00E94EA4D892BB9
:1020E00089F044E050E063E273E08CEE92E00E94FD
:1020F000EA4D892B39F064E370E580E090E00E94BE
:10210000D60E08950E942C10009739F09C01B90159
:10211000882799270E94D60E08950895CF92DF92BE
:10212000EF92FF920F931F93CF93DF93CDB7DEB75C
:1021300028970FB6F894DEBF0FBECDBF8AEF90E0B0
:102140009A8389838091F7029091F802A091F90215
:10215000B091FA028D839E83AF83B8870E94920A62
:102160008C019C838B8348E050E067E473E08CEE45
:1021700092E00E94EA4D892BE1F460910303709193
:102180000403A80182EB91E00E94AD0A9C838B833B
:102190000E94A60A9C838B832091F5023091F6025F
:1021A0008217930709F446C06AE370E580E090E087
:1021B000FAC044E050E061E473E08CEE92E00E94EB
:1021C000EA4D892B29F064E370E580E090E0EBC0F4
:1021D00064E070E080EF92E00E94C40A6B017C0131
:1021E0004B815C81609103037091040382EB91E069
:1021F0000E94AD0A9C838B830E94A60A9C838B83DA
:102200002091F5023091F6028217930769F640910A
:102210000303509104034115510509F0ABC0C601F9
:102220000E944317009709F4B5C09C01B9018827A3
:102230009927B9C060910303709104036930710557
:1022400020F500E010E0FF2440E050E0461757077B
:10225000F0F121E0AE014D5F5F4F62E089E794E06D
:102260000E94CD3D009709F08C0121E0AE014B5F4B
:102270005F4F64E084E094E00E94CD3D01151105BC
:10228000A9F1B801882799278EC000E010E0FF244B
:1022900040E050E0E0E0F0E04E545E4F21E068E0C6
:1022A000CF0180509C4F0E94CD3D009709F08C01DA
:1022B00028E0F20E4F2D5527FA016091030370912B
:1022C0000403CB0108974817590730F3BFCF4E548A
:1022D0005E4F6F198F2D992721E080509C4F0E94EF
:1022E000CD3D009709F4B5CF8C01B3CF82E090E0EB
:1022F0000E94374DF894F8940FB6F8940F920E940C
:10230000D122CE0101960E949F3B89819A81843619
:10231000910549F18D379105F9F08A3F9105A9F0B2
:1023200031E0843F930751F0885E934031F484E6B6
:1023300090E09093381080933710FFCF82E390E0C5
:102340009093381080933710F8CF89E190E0909304
:10235000381080933710F1CF8CE090E090933810D4
:1023600080933710EACF8AE090E090933810809302
:102370003710E3CF0091F7021091F8022091F90293
:102380003091FA0262EB71E0C6010E94C417009717
:1023900009F04BCF0E940116009709F046CF0E942A
:1023A00047198C016BCF0E94D60E28960FB6F89471
:1023B000DEBF0FBECDBFDF91CF911F910F91FF9078
:1023C000EF90DF90CF900895CF93DF93FC01809141
:1023D0001010882339F065E370E580E090E00E94FA
:1023E000D60EAEC081E08093101081818093F302FD
:1023F0001092F40282819927982F88279093F602F1
:102400008093F5022381820F911D9093F6028093B1
:10241000F50284819927AA27BB27B82FAA279927D5
:1024200088278093F7029093F802A093F902B09363
:10243000FA022581332744275527A901332722276C
:10244000280F391F4A1F5B1F2093F7023093F802B1
:102450004093F9025093FA0286819927AA27BB2755
:10246000BA2FA92F982F8827820F931FA41FB51F5B
:102470008093F7029093F802A093F902B093FA02C6
:102480002781820F911DA11DB11D8093F7029093AA
:10249000F802A093F902B093FA0280912010809381
:1024A000EB0269E070E08CEE92E00E942F0B48E0B6
:1024B00050E06EE673E08CEE92E00E94EA4D892BCC
:1024C000D1F482E090E00E94374DF8948CEE92E0D7
:1024D0000E94FF3CF8940FB6F8940F92C8E3D0E145
:1024E0000E94D122E0E0FAE0899181932AE0E7316D
:1024F000F207D1F7FFCF48E050E065E673E08CEEDD
:1025000092E00E94EA4D892B79F044E050E06FE5BB
:1025100073E08CEE92E00E94EA4D892B29F064E38F
:1025200070E580E090E05BCF65E080E091E00E94A4
:102530008E0E009729F09C01B901882799274FCF6B
:10254000DF91CF9108958F929F92AF92BF92CF92D9
:10255000DF92EF92FF920F931F93CF93DF93CDB74C
:10256000DEB769970FB6F894DEBF0FBECDBFBFEFE1
:102570008B2E9B2E9E828D82AFEFAA2EAFEFBA2EAE
:10258000AFEFCA2EAFEFDA2EAB86BC86CD86DE86E5
:1025900048E050E06FE873E089E991E00E94EA4D7D
:1025A000892B09F04EC0F89464E970E080E090E077
:1025B0000E94D01B9E838D8324E030E046E950E0EA
:1025C00060E070E0CE010B960E94DE1B78941092C2
:1025D000990110929A0110929B0110929C01109205
:1025E0009D0110929E0110929F011092A0012B85D7
:1025F0003C854D855E856D817E819091A80188E145
:102600008A8B9B8B872F99278C8B6D8B852F992796
:10261000AA27BB278E8B4F8B388F298F88E0898B19
:10262000809120109927880F991F880F991F8F5F1D
:10263000994F988B8F876FEFCE010F960E94EE39DE
:10264000D0C048E050E066E873E089E991E00E947C
:10265000EA4D892B11F5AE014B5F5F4F62E089E7D0
:1026600094E00E94B43D009709F470C09C01B90148
:10267000882799271092990110929A0110929B0134
:1026800010929C0110929D0110929E0110929F0148
:102690001092A0010E94D60EA4C044E050E060E871
:1026A00073E089E991E00E94EA4D892B09F03FC06F
:1026B00064E070E08DE991E00E94C40ADC01CB0186
:1026C0009093060380930503F3E0EF2EF12CEC0EBC
:1026D000FD1E8E01095F1F4F9E012F5F3F4F40E09F
:1026E00051E062EB71E00E94BF1A009709F45DC0EF
:1026F00020E68131920709F451C030E68331930717
:1027000009F44CC01092990110929A0110929B0109
:1027100010929C0110929D0110929E0110929F01B7
:102720001092A0019C01B90188279927B3CF48E0F6
:1027300050E067E773E089E991E00E94EA4D892B58
:1027400009F164E370E580E090E094CFAE01455F6D
:102750005F4F64E084E094E00E94B43D10929901E0
:1027600010929A0110929B0110929C0110929D016F
:1027700010929E0110929F011092A001009709F4FF
:1027800036CFD0CF82E090E00E94374DF894F89495
:102790000FB6F8940F920E94D122FFCF9E828D82B5
:1027A000AB86BC86CD86DE8612CF0E94920A9C83C1
:1027B0008B8369817A81AC0182EB91E00E94AD0A42
:1027C0009C838B830E94A60A9C838B839E838D832C
:1027D0008F819885A985BA858B879C87AD87BE87B1
:1027E000F6CE69960FB6F894DEBF0FBECDBFDF916F
:1027F000CF911F910F91FF90EF90DF90CF90BF90FE
:10280000AF909F908F900895FC01828180939F01EB
:1028100083818093A0011092A10169E070E089E9B1
:1028200091E00E942F0B0E94A3120895FC01818168
:102830008093A801828186958695805E8093990118
:10284000938192959F70828183708295807F805E54
:10285000980F90939A01948192959695969593707E
:1028600083818F70880F880F805E980F90939B01F3
:1028700084818F73805E80939C0185818695869587
:10288000805E80939D01968192959F708581837073
:102890008295807F805E980F90939E01978192959C
:1028A00096959695937086818F70880F880F805EBD
:1028B000980F90939F0187818F73805E8093A00112
:1028C0001092A10169E070E089E991E00E942F0B6C
:1028D0000E94A3120895CF93DF93CDB7DEB722975E
:1028E0000FB6F894DEBF0FBECDBFFC011A8219826D
:1028F0008281883049F082E190E59A838983CE0114
:1029000001960E94953A80C08381863129F18731F2
:10291000A0F08B3109F43FC08C3148F18D3109F4BE
:1029200055C08D3108F448C08E31E1F4CF010396D3
:102930000E944F109A83898315C0823189F18331B7
:1029400008F18431E1F1853190F1CF0103960E94C5
:102950002F0F9A83898306C0CF0103960E948C0FA4
:102960009A83898389819A81892B49F64DC0873161
:1029700091F18A31B9F7CF0103960E940B109A8327
:102980008983F0CF8031C9F1813161F7CF0103969E
:102990000E94E50CE7CFCF0103960E94480DE2CFDD
:1029A000CF0103960E9404149A838983DBCFCF0161
:1029B00003960E94F30CD6CF0E944B0DD3CFCF01CC
:1029C00003960E94E4119A838983CCCFCF010396AA
:1029D0000E94300DC7CFCF0103960E948E109A83BC
:1029E0008983892B09F08BCF0E94AA2F0E9421395D
:1029F0000E945A3F9A838983B5CFCF0103960E94E4
:102A000016149A838983AECF22960FB6F894DEBF50
:102A10000FBECDBFDF91CF910895EF92FF920F933C
:102A20001F93CF93DF93CDB7DEB724970FB6F894FB
:102A3000DEBF0FBECDBF9A8389837B015C834B834E
:102A40008901232BF1F00E94920AAC0162E070E050
:102A5000CE0101960E94AD0AAC0162E070E0CE01A9
:102A600003960E94AD0A6B817C81AC01C7010E9474
:102A7000AD0A0E94A60AF8019183808380E090E06D
:102A800002C082E290E624960FB6F894DEBF0FBE35
:102A9000CDBFDF91CF911F910F91FF90EF900895DF
:102AA0008F929F92AF92BF92CF92DF92EF92FF925E
:102AB0000F931F93CF93DF93CDB7DEB72C970FB64D
:102AC000F894DEBF0FBECDBF5C017C836B834A01EF
:102AD0003E832D8318870F83C986DA86EB86FC86B2
:102AE00080915101813039F080915101823019F08B
:102AF00082E190E673C0209153013091540181E04E
:102B000090E0821B930B20EF37E0829F8001839F30
:102B1000100D929F100D1124005F1F4F8FEF9FEF3C
:102B20009A838983209152017801EA0CFB1C0051A1
:102B30001040AE014B5F5F4F62E0C70102960E94FA
:102B4000CD3D009709F04AC020915201A4016D814A
:102B5000C70104960E94CD3D009709F03FC0209127
:102B600052018D819E818A0D9B1DF8017496AE01E4
:102B7000495F5F4F62E08E0F9F1F0E94CD3D00971F
:102B800069F5209152018D819E818A0D9B1DF8016E
:102B90007696AE01475F5F4F64E08E0F9F1F0E94E5
:102BA000CD3D0097D9F4209152018D819E818A0DEF
:102BB0009B1D065E1F4FAE014F5F5F4F62E0800FAF
:102BC000911F0E94CD3D009749F420915201AE0122
:102BD0004D5F5F4F62E0C7010E94CD3D2C960FB65E
:102BE000F894DEBF0FBECDBFDF91CF911F910F9143
:102BF000FF90EF90DF90CF90BF90AF909F908F901D
:102C00000895CF93DF93CDB7DEB721970FB6F89431
:102C1000DEBF0FBECDBF80915101823039F080916F
:102C200051018130F1F022E130E629C08091530159
:102C3000909154011982892B11F481E0898321E05C
:102C4000AE014F5F5F4F61E080E090E00E94CD3DBC
:102C50009C01892B49F083E08093510126E130E605
:102C60000EC020E030E00BC0898199279093540179
:102C70008093530181E08093500110925101C9016A
:102C800021960FB6F894DEBF0FBECDBFDF91CF9176
:102C900008952F923F924F925F926F927F928F9200
:102CA0009F92AF92BF92CF92DF92EF92FF920F93DB
:102CB0001F93CF93DF93CDB7DEB726970FB6F89467
:102CC000DEBF0FBECDBFFC015B015E834D833901CA
:102CD000480127011601029708F062C06F5F71403A
:102CE00008F05EC06114710409F45AC0012B09F4A4
:102CF00057C0EF2809F454C0CD2809F451C0809181
:102D0000530190915401E817F90739F4809150016B
:102D1000813019F002E110E69CC08091530190913E
:102D20005401E817F90741F080915101813021F0F9
:102D300080915101823071F71A82198280EF97E0F9
:102D4000E89F7001E99FF00CF89FF00C112480E1DE
:102D500090E0E80EF91E97012A0D3B1D3C832B8362
:102D6000AE014F5F5F4F62E0C9010E94B43D8C012C
:102D7000F301B182A082892B81F589819A81FFEFCD
:102D80008F3F9F0781F084E0C82ED12CCA0CDB1C3A
:102D900021E0C21622E0D20620F108E010E659C078
:102DA00003E210E656C0F401118210822D813E81AB
:102DB0008217930761F18F5F9F4F09F448C0F401B8
:102DC000808191810A96A80EB91EFFEFAF16F1E03F
:102DD000BF0608F4C0CF08E010E6F40111821082AB
:102DE00038C0A40162E08B819C8102960E94B43DB0
:102DF000892B99F6F40180819181C80ED91EF9EFD3
:102E0000CF16F1E0DF0648F689819A81CFCF8F5F38
:102E10009F4FF9F0F401808191810496A20162E054
:102E20002B813C81820F931F0E94B43D8C01892B22
:102E300081F4F401808191810696A10164E02B81E7
:102E40003C81820F931F0E94B43D8C0102C001E1BE
:102E500010E6C80126960FB6F894DEBF0FBECDBFB0
:102E6000DF91CF911F910F91FF90EF90DF90CF9066
:102E7000BF90AF909F908F907F906F905F904F909A
:102E80003F902F900895AF92BF92CF92DF92EF9232
:102E9000FF920F931F93CF93DF93CDB7DEB72C979D
:102EA0000FB6F894DEBF0FBECDBFAC0101978E5FA9
:102EB0009F4F08F053C080915101813039F08091CB
:102EC0005101823019F082E190E64DC080915301AA
:102ED000909154011E821D8218861F8261E0A62EE9
:102EE000B12C39E0C32ED12CCC0EDD1E23E0E22E16
:102EF000F12CEC0EFD1E8E010F5F1F4F9E01295F0E
:102F00003F4F60E070E0F501E81BF90BCF010E9434
:102F10004916009741F580915301909154012091F9
:102F20005201A81AB90A80EF97E0AC01A49EC00133
:102F3000A59E900DB49E900D1124EF81F88570969A
:102F4000AE014B5F5F4F62E08E0F9F1F0E94CD3D31
:102F5000009739F023E02093510105C081E290E60B
:102F600002C022E0F8CF2C960FB6F894DEBF0FBE59
:102F7000CDBFDF91CF911F910F91FF90EF90DF9028
:102F8000CF90BF90AF9008952F923F924F925F9253
:102F90006F927F928F929F92AF92BF92CF92DF9269
:102FA000EF92FF920F931F93CF93DF93CDB7DEB7CE
:102FB00064970FB6F894DEBF0FBECDBF5C013B0136
:102FC0004A01098B1A8B2B8B3C8B01978E5F9F4F8D
:102FD00008F06FC080915101813039F0809151012A
:102FE000823019F022E130E604C140905301509044
:102FF00054011A8619861E821D821A8219821C8625
:103000001B8629E0222E312C2C0E3D1E9101A4019D
:10301000B301C5010E940D15009709F457C0009730
:1030200009F04AC0E1E0F0E0CF018419950920EFF2
:1030300037E0829FA001839F500D929F500D112475
:1030400000E1402E512C440E551E8D819E81881624
:10305000990609F47FC0809153019091540113E0C7
:10306000212E312C2C0E3D1E6B857C85BDE0CB2E98
:10307000D12CCC0EDD1EA7E0EA2EF12CEC0EFD1EAD
:1030800081019E012F5F3F4F4FEF5FEFE81BF90B70
:10309000CF010E944916892BB9F5E981FA81CF0148
:1030A0000A96880D991D8F5F914088F125E130E6E1
:1030B00009C020E230E69DC08151904609F481C0EC
:1030C00024E130E683E08093510193C0E091530105
:1030D000F09154016B857C859DE0C92ED12CCC0EDE
:1030E000DD1E87E0E82EF12CEC0EFD1E8E010B5F3D
:1030F0001F4F9E01255F3F4FA50181E090E08E1B91
:103100009F0B0E9449168BCF28E030E6DBCFC988A1
:10311000DA88EB88FC8809851A859401A301B5013A
:10312000CF010E9450159C01892B61F61C821B82E5
:103130008B859C8521E0A10162E0840D951D0E9494
:10314000CD3D9C012115310509F0BCCF82E0809373
:1031500051014FC020915201CA014496EB85FC8574
:10316000A301682D8E0F9F1F0E94CD3D9C01892BCE
:1031700009F0A8CF209152018B859C85840D951D67
:10318000F4013696AE014F5E5F4F64E08E0F9F1FD5
:103190000E94CD3D9C01892B09F094CF20915201D2
:1031A0008B859C85480E591E84E090E0880E991E00
:1031B000A10162E0C201880D991D0E94CD3D9C01D4
:1031C000C1CFEB85FC85CF010A96880D991D8F5FD5
:1031D000914008F06BCFC988DA88EB88FC880985B4
:1031E0001A859401A301B501CF010E9450159C01DD
:1031F000A9CFC90164960FB6F894DEBF0FBECDBF4C
:10320000DF91CF911F910F91FF90EF90DF90CF90C2
:10321000BF90AF909F908F907F906F905F904F90F6
:103220003F902F9008951F93CF93DF93CDB7DEB7D4
:1032300021970FB6F894DEBF0FBECDBF182FAE0199
:103240004F5F5F4F62E080E090E00E94B43D9C01E0
:10325000892B91F440E050E08981882351F4509308
:103260005401409353011093520181E08093500127
:1032700003C041E050E0F3CFC90121960FB6F894A6
:10328000DEBF0FBECDBFDF91CF911F9108952F926A
:103290003F924F925F926F927F928F929F92AF92E6
:1032A000BF92CF92DF92EF92FF920F931F93CF9333
:1032B000DF93CDB7DEB7E0970FB6F894DEBF0FBE51
:1032C000CDBF80915001813019F002E110E63DC17F
:1032D000809153019091540140EF57E0849F400149
:1032E000859F900C949F900C112480E190E0880EB3
:1032F000991E209153013091540181E090E0821B8E
:10330000930B849F5001859FB00C949FB00C1124A7
:1033100080E190E0A80EB91E809153019091540174
:103320002EEF3FEF3E832D831A8619866BE0C62E63
:10333000D12CCC0EDD1E7E010894E11CF11C8E0107
:103340000D5F1F4F9E01275F3F4F4FEF5FEF60E024
:1033500070E00E9449168C01892B31F083E0809344
:10336000510108E110E6F1C01A86198618AA1FA6B5
:103370002D813E812F5F3F4F09F47BC055E0C52E64
:10338000D12CCC0EDD1E89859A85A60162E0880DC0
:10339000991D0E94B43D7C01892B09F06EC08D817E
:1033A0009E818F5F9F4F09F468C0C40102962985F2
:1033B0003A85AE01495F5F4F62E0820F931F0E9422
:1033C000B43D7C0189859A850A962F813885820FC4
:1033D000931F8050924008F0C1CFE114F10409F02E
:1033E000BDCF2D813E818FEF2F3F380709F451C0AB
:1033F0002115310509F444C06F817885665F7F4FE0
:1034000078876F836624772466167706E8F4661952
:1034100077096131710510F060E170E07C836B83A6
:103420003FE1232E312C2C0E3D1E89859A85880D77
:10343000991DA101860D971D0E94B43D7C01892B29
:1034400009F445C06F8178858FA598A9860F971FCD
:1034500098AB8FA789859A85EF2809F07FCF2D81BA
:103460003E81860F971F9A8789872F5F3F4F09F00C
:1034700085CF81E08093510168C018861F82ADCF4F
:103480006F817885665F7F4F78876F8389859A859E
:10349000E8CFEFA4F8A8EA0CFB1C4FE0642E712CD7
:1034A0006C0E7D1EA30162E0C7010E94B43D892B12
:1034B00009F054CF42E050E0B301C6010E94124E21
:1034C000892B39F52D813E816F817885DFCF2501EC
:1034D000460C571C8FA598A9480E591EAE01415F96
:1034E0005F4F6B81C2010E94B43D7C01892B09F0C2
:1034F000A9CFCB80DC80A601BE01615F7F4FC101F7
:103500000E94124E892B79F46C0C7D1C6F8178859A
:103510007BCF21E0A60162E0C7010E94CD3D7C0186
:103520006F81788597CF21E0A1016C2DC2010E94A7
:10353000CD3D7C018B819C81E114F10409F082CFA7
:10354000680E791E6F8178855FCFC801E0960FB64F
:10355000F894DEBF0FBECDBFDF91CF911F910F91C9
:10356000FF90EF90DF90CF90BF90AF909F908F90A3
:103570007F906F905F904F903F902F9008952F9283
:103580003F924F925F926F927F928F929F92AF92F3
:10359000BF92CF92DF92EF92FF920F931F93CF9340
:1035A000DF93CDB7DEB72F970FB6F894DEBF0FBE0F
:1035B000CDBF9D878C875B013A0149011801FF86C9
:1035C000EE86AC0101978E5F9F4F08F06EC0672BAF
:1035D00009F46BC08114910409F467C08091500113
:1035E000813029F0B2E1EB2EB0E6FB2EB7C01F828E
:1035F0001E8240905301509054018091530190914C
:1036000054011D821C82188619861A861B86A8E022
:10361000CA2ED12CCC0EDD1EF2E0EF2EF12CEC0EDA
:10362000FD1E8E010C5F1F4F9E012A5F3F4F60E021
:1036300070E00E9449167C01892B09F08FC00C8133
:103640001D816016710608F4830180EF97E0489EA3
:103650003001499E700C589E700C112484E190E05A
:10366000680E791E8E819F81A501602F860D971DA2
:103670000E94B43D7C01892BE9F02114310449F00A
:1036800088859985AA85BB85F10180839183A28372
:10369000B3838E859F85892B09F460C08A819B81C5
:1036A000EE85FF859183808359C07FE1E72E70E628
:1036B000F72E54C0F401118300830E94920AAC01DA
:1036C00062E070E0CE010C960E94AD0AAC0162E0AF
:1036D00070E0CE0104960E94AD0AAC01B801C501AC
:1036E0000E94AD0A6C012E813F81200F311F3F8364
:1036F0002E838C819D810817190710F55E010894AF
:10370000A11CB11C03C0E114F104D1F4A50161E0D6
:10371000C301820F931F0E94B43D7C016981C601E1
:103720000E94950A6C018E819F8101969C019F8366
:103730008E830F5F1F4F8C819D810817190718F327
:10374000C6010E94A60A2A813B818217930709F4C9
:1037500094CFE3E1EE2EE0E6FE2E8FCFC7012F9649
:103760000FB6F894DEBF0FBECDBFDF91CF911F9192
:103770000F91FF90EF90DF90CF90BF90AF909F9010
:103780008F907F906F905F904F903F902F90089513
:103790008BBFF72FE62FD895602D862F9927089598
:1037A000DC01CB01ABBFF92FE82FD895802D0BB6EC
:1037B0003196011C0BBED895902D0895CF92DF92C3
:1037C000EF92FF920F931F93CF93DF937A018B01B8
:1037D0002115310589F0EC016901C80ED91EC80117
:1037E000B7010E94C81B89930894E11CF11C011DBC
:1037F000111DCC16DD0699F7DF91CF911F910F9126
:10380000FF90EF90DF90CF900895FF920F931F935A
:10381000CF93DF93EC018B01F42EF9990FC04F2D5C
:1038200041504F3F89F0D2BDC1BDF89A80B5F80133
:1038300081938F0121964150B0F706C08AE090E055
:103840000E94374DF99BEBCF80E090E0DF91CF9164
:103850001F910F91FF900895FF920F931F93CF93A5
:10386000DF93CDB7DEB722970FB6F894DEBF0FBE59
:10387000CDBF8C01F62EF9990BC012BD01BDF0BC75
:103880000FB6F894FA9AF99A0FBE80E090E024C03F
:103890000E942248892BD9F41A82198289819A813F
:1038A0008458954378F4F99903C00CC0F99B0AC079
:1038B00089819A8101969A83898389819A81845822
:1038C0009543A0F3F99BD9CF84E290E605C08AE046
:1038D00090E00E94374DF6CF22960FB6F894DEBFE7
:1038E0000FBECDBFDF91CF911F910F91FF90089533
:1038F000E4EDFFE011821082138212823A9680E199
:10390000E031F807B9F70895FC018281938195832E
:1039100084838081843011F0138212820895FC0127
:103920008081833071F0843028F0863039F0873020
:1039300041F00895813051F08230D9F7738362836A
:1039400008958481958193838283089513821282DE
:10395000089590911A0380910803981729F0909385
:10396000080381E090E0089580E090E008956F9270
:103970007F928F929F92AF92BF92CF92DF92EF92FF
:10398000FF920F931F93CF93DF93CDB7DEB72297AC
:103990000FB6F894DEBF0FBECDBF0E9444028093E5
:1039A00009033E010894611C711CCCC1809116036F
:1039B000882E992480911803C82EDD24C094D094B9
:1039C000C820D920C0FE0EC020E030E08091D40F86
:1039D0009091D50F892B11F421E030E03093D50F71
:1039E0002093D40F8091D40F9091D50F892B09F497
:1039F00024C28091170381FF00C397E09093D30FF7
:103A0000482F55278A0101701070A02E002339F429
:103A10008091DC0F99278F709070049774F0C1FE2D
:103A20000CC08091DE0F9091DF0F22E030E0822702
:103A300093279093DF0F8093DE0F80911903E82E78
:103A4000FF24CA01809590959701217030708223E0
:103A50009323B82E882309F006C2C701809590955C
:103A600080239123182F882309F0F6C120E080914C
:103A7000DE0F9091DF0F892B09F021E02093DD0FFD
:103A8000C2FE11C0AA2009F4BAC28091E80F909139
:103A9000E90F009709F455C3809709F4E1C3109228
:103AA000E90F1092E80FBB2021F01092E90F10925D
:103AB000E80F2091E80F3091E90FC901969587959D
:103AC000929582958F7089279F7089278170809346
:103AD000E70F26FF03C084608093E70FAA2039F424
:103AE0008091F00F99278F7090700497C4F0C3FEF7
:103AF00016C08091F20F9091F30F8038910509F470
:103B000027C321E08038920709F436C3892B09F0D6
:103B100026C380E890E09093F30F8093F20FBB20D0
:103B200009F0ADC1112309F0A3C12091F20F30912A
:103B3000F30FC901880F892F881F990B9195817008
:103B40008093F10F30FF03C084608093F10F4091A8
:103B5000FE0F40930E0320910F03309110032115A7
:103B6000310531F0285D3F4F3093100320930F0350
:103B700080910C0390910D03009749F089329105D3
:103B800008F411C2889790930D0380930C032115BC
:103B90003105C9F084FC40C251E0243F350708F0EC
:103BA000C5C210920B0310920A0380910E03882362
:103BB00009F4FCC2833008F474C310920E0310920F
:103BC000100310920F03AA2039F48091FA0F99275D
:103BD0008F709070049744F0C4FE06C081E090E0BE
:103BE0009093100380930F03BB2039F08091FA0F5C
:103BF0008F70843011F010920E031123A1F0809188
:103C0000FA0F99278F7090708330910509F427C2BD
:103C1000843091050CF01CC28130910509F412C169
:103C2000029709F45BC240910E03413009F405C2CA
:103C3000413008F40AC1423009F496C2433009F415
:103C400051C220910A0330910B0321153105C1F0B7
:103C50008091FC0F9091FD0F84609093FD0F8093F5
:103C6000FC0F8091FB0F82608093FB0F293231059E
:103C700008F4ABC12852304030930B0320930A0361
:103C800080910F0390911003895E934030F08CE097
:103C900090E09093FD0F8093FC0FAA2009F473C06D
:103CA00080910E0399279093FF0F8093FE0FC5FE1E
:103CB0000CC0809106109091071020E130E082271F
:103CC00093279093071080930610BB2009F066C0DD
:103CD000112309F06AC080911503882309F070C090
:103CE0008091061090910710892B09F482C1809170
:103CF0000A1090910B10909314038093130388E2A1
:103D000090E09093120380931103809106108093AA
:103D10001503882309F49AC187E0809305100E9457
:103D20007D23A09116038091170380931903A0931C
:103D3000180380911A038F5F80931A0388E290E042
:103D40000E94374D0E944402182F0E944C258093F8
:103D500016030E94582580931703133009F494C06A
:103D600080910903181731F00E94781C0E947D236E
:103D700010930903112309F419CE143009F48DC0EE
:103D8000A0911603D0CF8091041099278F70907066
:103D900004970CF08CCFBB2009F49ACF84E090E11B
:103DA0000E94841C112309F496CF60E170E084E046
:103DB00090E10E948F1C80911503882309F490CF15
:103DC0008091061090910710892B89F120911103A1
:103DD00030911203285D3F4F30931203209311035B
:103DE00043E0283E340708F490CFC90168EE73E041
:103DF0000E947E4E772788EE93E0AC01649FC0015D
:103E0000659F900D749F900D1124281B390B3093E2
:103E100012032093110380911303909114036817E8
:103E2000790708F4BCC11092071010920610809117
:103E300006108093150380E070CF1092D30F80910D
:103E40001703DECD10920E0340E01092FD0F10928A
:103E5000FC0F1092FB0FF5CE62E070E08CED9FE05E
:103E60000E948F1C03CE8CED9FE00E94841CF5CD38
:103E700060E871E080EF9FE00E948F1C56CE80EFDB
:103E80009FE00E94841C4ECE0E94781C0E947D23DD
:103E900080E090E00E94CA4A63CF80911803682FA7
:103EA000772760957095A09116038A2F992768232C
:103EB0007923B0E040E050E0E2EDFFE001E010E007
:103EC00084E0F82E26C0808187FD0EC08F5F883089
:103ED00008F081E08083C801042E02C0880F991F7A
:103EE0000A94E2F7B82B80811182282F332720FD16
:103EF000F18221FF03C081818260818322FF03C0A0
:103F00008181816081834F5F5F4F3A9646305105D2
:103F100059F0CB01042E02C0959587950A94E2F7DB
:103F200080FDD1CF8081E0CF8B2F9927882309F4A2
:103F3000FACEC82EDD2460E070E027C01A82198214
:103F40007B010894E11CF11C53E0E516F10409F42F
:103F5000D3C084E0E816F1040CF084C021E0E2163E
:103F6000F10409F463C142E0E416F10409F47FC1ED
:103F700089819A81892B09F4A2C0C3010E94953AD4
:103F8000B7016630710509F4FBCEC601062E02C0EA
:103F9000959587950A94E2F780FDD0CF7B01089430
:103FA000E11CF11CEDCF413009F4EDC0423009F0C5
:103FB000EECD81E080930E0380910010909101106E
:103FC00090930D0380930C03E2CD10920B0310929B
:103FD0000A034150423008F053CE82E080930E0332
:103FE000809102109091031090930D0380930C0325
:103FF00047CE1092150380E090CE90E0FFCC8091E8
:10400000E80F9091E90F20E230E082279327909308
:10401000E90F8093E80F47CD295E334008F4D3CDF4
:1040200029EE33E03093100320930F0388E893E1E7
:1040300090930B0380930A03C6CD84E090E09093A5
:10404000FD0F8093FC0F4093FB0FFBCD80E065CE0E
:104050008630910509F442C0079709F0E4CD4093FA
:104060000E03E1CD55E0E516F10409F4C5C085E085
:10407000E816F1040CF4A6C026E0E216F10409F0FB
:1040800077CFCB01880F991F880F991F880F991F31
:10409000660F771F680F791F6E52704F00E010E0B7
:1040A00020E030E041E050E08BE095EB0E94C41747
:1040B0009A83898389819A81892B09F05ECF0E9436
:1040C00001169A838983892B09F057CF0E944719DB
:1040D0009A838983892B09F453CF4FCF83E0809350
:1040E0000E0343E084E090E09093FD0F8093FC0F7B
:1040F00085E08093FB0FA5CDCB01880F991F880F1A
:10410000991F880F991F660F771F680F791F6E52CE
:10411000704F00E010E020E030E041E050E085E04A
:1041200095EB0E94C4179A83898322CF295E33407E
:1041300008F445CD88E893E190930B0380930A033C
:104140003ECD80E290E09093E90F8093E80FABCCF6
:1041500080E891E09093F30F8093F20FE0CC1092FF
:10416000F30F1092F20FDBCC1092FD0F1092FC0FA8
:1041700081E08093FB0F65CD80E091E09093F30F99
:104180008093F20FCCCC82E080930E0380910210DA
:104190009091031090930D0380930C03F8CC861B31
:1041A000970B9093140380931303AFCD81E080931A
:1041B0000E03809100109091011090930D03809355
:1041C0000C03FDCCCB01880F991F880F991F880F16
:1041D000991F660F771F680F791F6E52704F00E0AE
:1041E00010E020E030E041E050E087E095EB0E94F5
:1041F000C4179A838983BCCECB01880F991F880F7F
:10420000991F880F991F660F771F680F791F6E52CD
:10421000704F00E010E020E030E041E050E089E045
:1042200095EB0E94C4179A838983A2CECB01880F95
:10423000991F880F991F880F991F660F771F680FA6
:10424000791F6E52704F00E010E020E030E041E056
:1042500050E081E095EB0E94C4179A83898388CE51
:1042600080E690E09093E90F8093E80F1CCCCB019F
:10427000880F991F880F991F880F991F660F771F46
:10428000680F791F6E52704F00E010E020E030E0C0
:1042900041E050E083E095EB0E94C4179A83898344
:1042A00067CE83E080930E038ACCEF92FF920F9348
:1042B0001F93CF93DF93CDB7DEB728970FB6F8944F
:1042C000DEBF0FBECDBF8E010F5F1F4F28E030E075
:1042D00044EB50E060E070E0C8010E94DE1B48E063
:1042E00050E068E973E0C8010E94D44D892B09F0C1
:1042F00048C030E1E32E30E3F32E28E030E044EC18
:1043000050E060E070E0C8010E94DE1B48E050E031
:1043100068E973E0C8010E94D44D892B09F048C0B8
:1043200020E1E22E20E3F22E26E030E048ED50E0DE
:1043300060E070E0C8010E94DE1B46E050E068E9E2
:1043400073E0C8010E94D44D892B41F590E1E92E1C
:1043500090E3F92E28E030E044EF50E060E070E0B8
:10436000C8010E94DE1B48E050E068EA73E0C80123
:104370000E94D44D892B39F180E1E82E80E3F82E9C
:1043800022C048E050E060EA73E0C8010E94D44DCA
:10439000892B09F4AECFEE24FF24AFCF46E050E0E6
:1043A00060EA73E0C8010E94D44D892B99F6CECF04
:1043B00048E050E060EA73E0C8010E94D44D892BC8
:1043C00009F0B2CFADCFC70128960FB6F894DEBF83
:1043D0000FBECDBFDF91CF911F910F91FF90EF9056
:1043E00008951F920F920FB60F9211248F9383B7E7
:1043F0008E7F83BF8F910F900FBE0F901F901895E7
:10440000E0E8F0E08081837F80832F980895E0E8E2
:10441000F0E080818F63808308952FE0803A9207D7
:1044200028F420EA3FE0281B390B02C020E030E0EE
:1044300030938D0020938C0008952FE0813A9207ED
:1044400010F080EA9FE090938B0080938A0008959B
:10445000CF92DF92EF92FF920F931F93CF93DF9350
:10446000CDB7DEB729970FB6F894DEBF0FBECDBF2C
:104470008C01FB01DC018D919C919183808340E054
:1044800086B1682F7727607F7070660F771F4F5F48
:10449000413009F455C0413098F3423009F469C005
:1044A0004F5F4330A8F3CC24DD24FE01319681E038
:1044B000E82EF12C0EC0406E5F6F405E5F4F69F1D9
:1044C0000894C11CD11C3196B9E0CB16D10409F473
:1044D00059C04081440F408397010C2C02C0220F29
:1044E000331F0A94E2F7CB0182239323892B11F027
:1044F000416040835527CA018F7190704F97D9F65C
:10450000D8018D919C911197822B932B8D939C9325
:10451000406E5F6F405E5F4F99F620953095D801F1
:104520008D919C911197822393238D939C93089452
:10453000C11CD11C3196B9E0CB16D10451F622C072
:1045400029B189B133272078307036952795369573
:104550002795369527959927807190709295829529
:104560008F7089279F708927282B392B622B732BFB
:104570008ECF82B399278D71907096958795682B11
:10458000792B91CF29960FB6F894DEBF0FBECDBF21
:10459000DF91CF911F910F91FF90EF90DF90CF901F
:1045A0000895A09A80E000008F5F8233E1F7A09821
:1045B0000895A09AA0980895E1E6F0E090E890832D
:1045C000108280E185BF90BF10BA8FB18695877049
:1045D00080931C10E1E8F0E08081887F8083109256
:1045E0008500109284000895FF920F931F93CF933C
:1045F000DF9300E010E0FF24A0E0B0E0C3EDDFE0D7
:104600005A2F8881682F772740E0E1E0F0E008C06A
:104610005523B1F1513009F44FC04F5F433020F5BD
:10462000242F3327CB01022E02C0959587950A943B
:10463000E2F780FFF2CF5230E9F0533048F35430C4
:1046400089F1543028F1553041F7442309F43EC034
:1046500021503040CF0102C0880F991F2A95E2F700
:10466000F82A4F5F4330E0F211962A96A630B10542
:1046700039F62FC0423010F01160CFCF2A5F3F4F84
:10468000CF0102C0880F991F2A95E2F7082BC5CFEA
:104690002F5F3F4FCF0102C0880F991F2A95E2F785
:1046A000182BBBCF2C5F3F4FCF0102C0880F991F43
:1046B0002A95E2F7182BB1CF2D5F3F4FCF0102C0F3
:1046C000880F991F2A95E2F7082BA7CF106841E0C1
:1046D0009CCF0093A60F1093A70FF092A80FDF9125
:1046E000CF911F910F91FF9008951092490310925E
:1046F000480381E080934C0308954091D40F50917A
:10470000D50F8091DE0F9091DF0F482B592B8091B0
:10471000E80F9091E90F482B592B8091F20F90915F
:10472000F30F482B592B8091FC0F9091FD0F482BD4
:10473000592B8091061090910710482B592B5093BC
:10474000520340935103A0E0E0E0F0E020E030E0CD
:1047500061E070E011C022503040CB01022E02C057
:10476000880F991F0A94E2F72E5F3F4FE82B2F5FC7
:104770003F4F29303105A9F0CB01022E02C0880F2E
:10478000991F0A94E2F784239523892B81F3223021
:1047900068F0283000F3F8602F5F3F4F2930310573
:1047A00059F780911B1087FF65C00DC02A5F3F4FEE
:1047B000CB01022E02C0880F991F0A94E2F72650FF
:1047C0003040A82BD4CF20910E1030910F1020FF35
:1047D00007C0AF7B8091B30F9091B40F80FDA064B0
:1047E00021FF07C0AF778091B30F9091B40F81FD87
:1047F000A06822FF07C0EE7F8091B30F9091B40FA5
:1048000082FDE16023FF07C0ED7F8091B30F90919F
:10481000B40F83FDE26024FF07C0EB7F8091B30FEC
:104820009091B40F84FDE46025FF07C0E77F80917D
:10483000B30F9091B40F85FDE86026FF07C0EF7EAF
:104840008091B30F9091B40F86FDE06127FD0BC0FE
:1048500030FF10C0FB7F8091B30F9091B40F90FF99
:1048600009C0F86007C0EF7D8091B30F87FFF0CFDC
:10487000E062EECFA2B9E5B9F8B908958F929F92A0
:10488000AF92BF92CF92DF92EF92FF920F931F935E
:10489000CF93DF934C016B01EA0188859985892BC1
:1048A00029F48A859B85892B09F477C0F601A280BB
:1048B000B3808C859D85892B21F48E859F85892BDE
:1048C000A9F1A814B90448F1C884D9846A857B8504
:1048D000E880F9800A811B81882777FD8095982FD1
:1048E0009401442755270E94534EE60EF71E081FD9
:1048F000191F9601442737FD4095542FC801B70171
:104900000E94C74E922F27FD85C024360CF07FC031
:1049100088E29802C00111247FC0CC84DD846E85BA
:104920007F85EC80FD800E811F81D6CF8C819D819B
:10493000AE81BF810097A105B10519F6F60184810A
:1049400095818A199B099D878C8780859927278166
:10495000821B91099F878E8764817581882799279B
:1049600027813327442755270E94534E7B018C0112
:10497000F601A280B380B5018827992720853327C7
:10498000442755270E94534EE61AF70A080B190BC5
:10499000EC82FD820E831F8394CF88819981AA8146
:1049A000BB810097A105B10509F080CFFB01828191
:1049B000938120813181821B930B9987888787811E
:1049C00099272681821B91099B878A87A280B380C1
:1049D000B5018827992726813327442755270E9428
:1049E000534E7B018C01F6016081718188279927E4
:1049F00027813327442755270E94534EE61AF70A8A
:104A0000080B190BE882F9820A831B8352CF88E7CF
:104A10009FE002C090E07CCFDF91CF911F910F917A
:104A2000FF90EF90DF90CF90BF90AF909F908F90CE
:104A30000895F894CF93DF93EF93FF93C0E8D8E005
:104A4000E1E6F0E0C083D083FF91EF91DF91CF9159
:104A500078940895F894CF93DF93EF93FF93C0E891
:104A6000D1E0E1E6F0E0C083D083FF91EF91DF91E8
:104A7000CF9178940895F894CF93DF93EF93FF93B9
:104A8000C0E8D0E0E1E6F0E0C083D083FF91EF9191
:104A9000DF91CF917894089580914D0399270895DF
:104AA00080914E039927089580914F039927089587
:104AB000809150039927089580915103909152035A
:104AC0000895809153039091540308959091550354
:104AD00080911D03981729F090931D0381E090E0C9
:104AE000089580E090E008959091560380911C0312
:104AF000981729F090931C0381E090E0089580E0DE
:104B000090E008959091570380911B03981729F026
:104B100090931B0381E090E0089580E090E0089579
:104B20000E944402853059F080914C03882339F467
:104B300083E080934C031092490310924803089538
:104B4000CF93DF93EC010E944402853059F082E05C
:104B500080934C03D0934B03C0934A0310924903B4
:104B600010924803DF91CF9108950E94002284B5EE
:104B7000887F84BD16BC17BC84B5887F84BD8091B6
:104B80008100887F809381001092800010928100C4
:104B900080918100887F809381002F982E9A1EB883
:104BA000409A00004098419A00004198429A0000C3
:104BB000429880917A008F7780937A008091B0003C
:104BC000887F8093B0001092B2000E94440281302E
:104BD00039F08AEF8093B3008FE08093B00006C075
:104BE0008CE98093B3008BE08093B00082E087BBB8
:104BF00080937000089542E0842F992723E030E0ED
:104C0000FC01EE0FFF1FEE0FFF1FE80FF91FEF5D16
:104C1000FC4F808181832150304031978FEF2F3FAF
:104C20003807B9F7415040F780B193B122B330B1A2
:104C300073B149B150B163B1829586958695837001
:104C4000817092959F709270892B2695269524707D
:104C5000822B369536953870832B7071872B46954D
:104C600046954072842B550F550F5074852B6295D5
:104C7000607F6078862B80931E0389B190B143B129
:104C800062B320B133B159B170B182958F70817028
:104C9000969596959270892B4470842B6870862B1C
:104CA000220F220F2071822B3295307F3072832B9E
:104CB0005295507F5074852B7295770F770F707CCB
:104CC0007078872B8093230383B129B190B130B1E1
:104CD00049B181702270822B990F990F9470892BA2
:104CE00032953F703870832B4295407F4071842B02
:104CF00080932803A0914E03B0914F0372E0872F59
:104D000099275FEF60E043E09C01220F331F220FE1
:104D1000331F280F391F225E3C4FF901E40FF11DAC
:104D200080815823682B4150C0F77130F9F0713001
:104D300048F07230F9F0715010F7A0934E03B09321
:104D40004F030AC0A0934E03B0934F0380914D03CD
:104D5000582B652360934D03809157038F5F809399
:104D6000570382E090E00E94374D45CFA52BA62344
:104D70007150C5CFB52BB6237150C1CF42E0842FFF
:104D8000992723E030E0FC01EE0FFF1FEE0FFF1F1D
:104D9000E80FF91FE05DFC4F808181832150304096
:104DA00031978FEF2F3F3807B9F7415040F780B167
:104DB00080932D0393B189B19F738295880F880FDB
:104DC000807C982B9093320389B192B329B132B38E
:104DD000869586958570969596959270892B2295E5
:104DE0002F702870822B3071832B80933703A09112
:104DF0004E03B0914F0372E0872F99275FEF60E079
:104E000043E09C01220F331F220F331F280F391F4D
:104E1000235D3C4FF901E40FF11D80815823682B7D
:104E20004150C0F77130F9F0713048F07230F9F04C
:104E3000715010F7A0934E03B0934F030AC0A09394
:104E40004E03B0934F0380914D03582B562350933C
:104E50004D03809157038F5F8093570382E090E06A
:104E60000E94374D8BCFA52BA6237150C5CFB52BF4
:104E7000B6237150C1CF23E030E0E1E4F3E080815C
:104E800081832150304031978FEF2F3F3807B9F79A
:104E900080B18F7380933E0380913D03880F489BC0
:104EA0004CC0482F4E7F40933D0380913C03880FB8
:104EB000499B40C0582F5E7F50933C033FEF20E05A
:104EC00093E0E92FFF27E25CFC4F80813823282BF9
:104ED0009150B8F780914D03382B232320934D0335
:104EE000842F99278F7190708F319105D1F1892B83
:104EF00039F5209150032E7F20935003852F992759
:104F00008F7190708F31910521F1892B19F42D7FCC
:104F1000209350034B9B22C0822F886080935003C4
:104F2000809157038F5F8093570382E090E00E9447
:104F3000374DA1CF582F5160BFCF482F4160B3CF1D
:104F400020915003852F99278F7190708F31910593
:104F5000E1F62260209350034B99DECF822F877FAA
:104F6000DDCF20915003216020935003C7CFCF9213
:104F7000DF92EF92FF920F931F93CF93DF9391E015
:104F800090934C0357C0833009F45DC0963009F408
:104F9000D1C0973008F09AC0933009F408C2943019
:104FA00008F071C1913009F476C2923009F4CCC294
:104FB000C0914803D09149032091A70F4091A80FB9
:104FC0003091AA0F0091AB0F1091AD0F6996D0935D
:104FD0004903C09348038091A60F8EB9409A000000
:104FE00040982EB9419A000041984EB9429A00006B
:104FF00042988091A90F8EB9439A000043983EB918
:10500000449A000044980EB9459A00004598809152
:10501000AC0F8EB9469A000046981EB9479A000018
:105020004798809155038F5F8093550389E190E005
:105030000E94374D0E944402853081F090914C03CC
:10504000992309F0A0CF2091A70F4091A80F30918C
:10505000AA0F0091AB0F1091AD0FBDCF90914C03F3
:10506000943070F794E090934C031092490310929F
:10507000480380911510833009F480C04091A80F37
:105080004C614093A80F3091AA0F30683093AA0F5B
:105090000091AB0F03600093AB0F1091AD0F106741
:1050A0001093AD0F2091A70FC0914803D0914903F1
:1050B000C436D10508F48ACFC0E0D0E0109249038D
:1050C0001092480395E090934C0380CF993009F4F7
:1050D00017C19A3008F06AC0973009F498C1983027
:1050E00009F066CF80911510833009F497C2309192
:1050F000AA0F30683093AA0F0091AB0F03600093A2
:10510000AB0F2091A70F4091A80FC0914803D091F9
:10511000490391E0C43FD90708F42AC2C0E0D0E0B7
:10512000109249031092480399E090934C03109118
:10513000AD0F4CCF80911510833009F459C14091C7
:10514000A80F4C614093A80F2091A70FC09148036E
:10515000D0914903B1E0C43FDB0708F1C0E0D0E0E3
:10516000109249031092480397E090934C033091BA
:10517000AA0F0091AB0F1091AD0F28CF2091A70F70
:10518000206F2093A70F4091A80F4F614093A80F65
:105190003091AA0F0091AB0F1091AD0F85CF3091D8
:1051A000AA0F0091AB0F1091AD0F10CF9A3009F4F8
:1051B00092C19B3009F0FCCE80911510833009F428
:1051C0000BC24091A80F437E4093A80F3091AA0FC5
:1051D0003F773093AA0F0091AB0F0C7F0093AB0F7A
:1051E0001091AD0F1F781093AD0F2091A70FC091B4
:1051F0004803D091490381E0C43FD80708F4E6CEC4
:10520000C0E0D0E01092490310924803D0904603CA
:10521000D394D0924603C0902010EC2CFF24089425
:10522000E11CF11CC70164E670E00E94924E7727F2
:105230008CE99FEF689FF001699FF00D789FF00D5A
:105240001124C7018E0F9F1F6AE070E00E94924EEA
:105250007727CB01880F991F880F991F880F991FF7
:10526000660F771F680F791F8C2D8E0F8F5F861B3F
:1052700009F48AE0D81608F4E0C11092460394E0DD
:1052800090934C03A3CE943009F4F3CE953009F0FB
:105290008FCE80911510833009F4AFC14091A80FD3
:1052A000437E4093A80F3091AA0F3F773093AA0F07
:1052B0000091AB0F0C7F0093AB0F1091AD0F1F78D7
:1052C0001093AD0F2091A70FC0914803D0914903CF
:1052D000A3E0C438DA0708F479CEC0E0D0E0109239
:1052E0004903109248031092460380912010992799
:1052F000833691050CF413C196E090934C0366CE6F
:1053000080911510833009F40EC14091A80F437E9F
:105310004093A80F3091AA0F3F773093AA0F0091C6
:10532000AB0F0C7F0093AB0F1091AD0F1F78109354
:10533000AD0F2091A70FC0914803D0914903A1E080
:10534000C43FDA0708F442CEC0E0D0E0109249032F
:1053500010924803F0904603F394F0924603809134
:105360002010E82FFF273196CF0164E670E00E94FD
:10537000924E77278CE99FEFDC016A9FC0016B9FFB
:10538000900D7A9F900D11248E0F9F1F6AE070E0A0
:105390000E94924E862F662309F48AE0F81608F4DC
:1053A000BEC0109246039AE090934C030FCEE6EAFB
:1053B000FFE08FEF81939FE0EE3AF907D9F78091F4
:1053C000A00F8823E9F4C0914803D091490380914C
:1053D0004A0390914B03C817D90708F4EDCDC0E0FC
:1053E000D0E0109249031092480310924C03E4CD90
:1053F0002091A70F20672093A70F4091A80FA6CE5A
:10540000C0E0D0E01092490310924803D5CD8091BE
:105410001510833009F4CFC04091A80F437E40930C
:10542000A80F3091AA0F3F773093AA0F0091AB0FCE
:105430000C7F0093AB0F1091AD0F1F781093AD0F41
:105440002091A70FC0914803D091490381E0C43F48
:10545000D80708F4BBCDC0E0D0E010924903109209
:105460004803E0914603EF5FE093460380912010EC
:105470009927019664E670E00E94924E862F66237B
:1054800009F48AE0E81708F437CF1092460398E051
:1054900090934C039BCDE6EAFFE08FEF81939FE072
:1054A000EE3AF907D9F7C0914803D0914903A3E038
:1054B000C83EDA0708F480CDC0E0D0E0109249037E
:1054C000109248038091A00F882309F48ECF93E0B7
:1054D00090934C0371CD80911510833009F463C013
:1054E0001091AD0F10671093AD0F4091A80FC091B0
:1054F0004803D0914903B1E0C43FDB0790F1C0E01D
:10550000D0E010924903109248039BE090934C0323
:105510002091A70F3091AA0F0091AB0F57CD98E0C3
:1055200090934C0353CD2091A70F2F702093A70F7A
:105530004091A80F407E4093A80F3091AA0F009190
:10554000AB0F1091AD0FF7CE8091A00F882399F487
:1055500010924C03C0E0D0E010924903109248032F
:105560002BCD2091A70F3091AA0F0091AB0F2ECD1C
:105570001091AD0F2BCD20914A0330914B03C09178
:105580004803D0914903C90196958795C817D90753
:1055900008F057C0E6EAFFE08FEF8193BFE0EE3AF4
:1055A000FB07D9F709CD4091A80F4C614093A80F94
:1055B0001091AD0F9CCF2091A70F2F702093A70FB4
:1055C0004091A80F407E4093A80F3091AA0F009100
:1055D000AB0F1091AD0F36CF2091A70F2F702093F6
:1055E000A70F4091A80F407E4093A80F3091AA0FBB
:1055F0000091AB0F1091AD0FFACD2091A70F2F7036
:105600002093A70F4091A80F407E4093A80F3091A0
:10561000AA0F0091AB0F1091AD0F56CE2091A70F9E
:1056200020682093A70F4091A80F43604093A80FD4
:105630003091AA0F0091AB0F68CD8AE080934C03A4
:10564000C5CCC217D30708F0DBCEE6EAFFE0119223
:105650008FE0EE3AF807D9F7AFCCFF920F931F9384
:10566000CF93DF9381E080934C031FEFF12E21C095
:1056700080914C03882311F40E94F4228091A60F9C
:105680008EB9409A000040988091A70F8EB9419A38
:10569000000041988091A80F8EB9429A000042986C
:1056A000809155038F5F8093550389E190E00E94BC
:1056B000374D0E944402182F853051F180914C03E0
:1056C0008823E1F01330C1F2863009F461C08730DD
:1056D000E0F5833009F44FC1843008F071C08130A7
:1056E00009F4E5C1823009F40CC2C0914803D0919D
:1056F00049036996D0934903C0934803112309F4E1
:10570000B7CF143009F4B8CF133009F0B7CFB4CF06
:1057100080914C038430A0F684E080934C03C0E079
:10572000D0E010924903109248038091A60F88633D
:105730008093A60F8091A70F8E688093A70F80910A
:10574000A80F83608093A80FD4CF893009F4C8C014
:105750008A3008F066C0873009F433C1883029F6F2
:105760008091A70F8E608093A70FC0914803D091BE
:105770004903E1E0C43FDE0708F4BBCFC0E0D0E05E
:10578000109249031092480389E080934C03B1CFF3
:105790008091A60F88638093A60FC0914803D09193
:1057A0004903F1E0C43FDF0708F4A3CFC0E0D0E035
:1057B000109249031092480387E080934C0399CFDD
:1057C000843009F453C1853009F08FCF8091A60F42
:1057D000877C8093A60F8091A70F81778093A70F76
:1057E0008091A80F8C7F8093A80FC0914803D0911F
:1057F0004903E3E0C438DE0708F47BCFC0E0D0E023
:105800001092490310924803109247038091201090
:105810009927833691050CF470C186E080934C0380
:1058200068CF8A3009F405C18B3009F05ECF8091D2
:10583000A60F877C8093A60F8091A70F8177809316
:10584000A70F8091A80F8C7F8093A80FC091480369
:10585000D091490381E0C43FD80708F44ACFC0E0A3
:10586000D0E01092490310924803009147030F5F64
:105870000093470340912010242F33272F5F3F4F81
:10588000C90164E670E00E94924E77278CE99FEF91
:10589000689FF001699FF00D789FF00D1124C901F8
:1058A0008E0F9F1F6AE070E00E94924E7727CB0117
:1058B000880F991F880F991F880F991F660F771FF0
:1058C000680F791F4E0F4F5F461B09F44AE004171B
:1058D00008F43DC11092470384E080934C0309CF44
:1058E0008091A60F877C8093A60F8091A70F817768
:1058F0008093A70F8091A80F8C7F8093A80FC091F1
:105900004803D0914903F1E0C43FDF0708F4F1CE2A
:10591000C0E0D0E010924903109248034091470341
:105920004F5F409347032091201033272F5F3F4F55
:10593000C90164E670E00E94924E77278CE99FEFE0
:10594000FC016E9FC0016F9F900D7E9F900D1124F2
:10595000820F931F6AE070E00E94924E862F6623AA
:1059600009F48AE0481708F4C8C0109247038AE097
:1059700080934C03BECEF092A60FF092A70F8093B7
:10598000A80F8091A00F8823A9F4C0914803D0915B
:10599000490380914A0390914B03C817D90708F433
:1059A000A8CEC0E0D0E010924903109248031092B4
:1059B0004C039FCEC0E0D0E0109249031092480300
:1059C00098CE8091A60F877C8093A60F8091A70F19
:1059D00081778093A70F8091A80F8C7F8093A80F69
:1059E000C0914803D091490381E0C43FD80708F42F
:1059F00080CEC0E0D0E0109249031092480320917D
:105A000047032F5F20934703809120109927019629
:105A100064E670E00E94924E862F662309F48AE0C5
:105A2000281708F4FACE1092470388E080934C03BD
:105A300060CE8091A70F80688093A70F8091A80FF8
:105A400083608093A80FC0914803D0914903F1E08F
:105A5000C43FDF0708F44DCEC0E0D0E01092490308
:105A6000109248038BE080934C0343CE8091A60FA5
:105A700088638093A60F8091A70F8E688093A70FED
:105A80008091A80F83608093A80FC0914803D091A4
:105A90004903C436D10508F42CCEC0E0D0E0109202
:105AA00049031092480385E080934C0322CEF09284
:105AB000A60FF092A70F83E08093A80FC091480330
:105AC000D091490383E0C83ED80708F412CEC0E065
:105AD000D0E010924903109248038091A00F8823D0
