:020000040000FA
:100000000C9419020C9442020C9442020C94420289
:100010000C9442020C9442020C9442020C94420250
:100020000C9442020C94FD1F0C9442020C94420268
:100030000C9442020C9442020C9442020C94420230
:100040000C94DA410C9442020C940F300C9442024E
:100050000C9442020C9442020C9442020C94420210
:100060000C9442020C9442020C9442020C94420200
:100070000C9442020C9442020C9442020C944202F0
:100080000C9442020C9442020C9442020C944202E0
:100090000C944202745100000000000000000000B7
:1000A000000000000000000000000000004001000F
:1000B000A40000004A756E2020312032303131001A
:1000C0000000000031363A33383A30370000000083
:1000D0000000000002000E00342E312E320000001D
:1000E0000000000000000000000000000000000010
:1000F0000000000054414150504C494300000000B2
:100100000000000000002110422063308440A55010
:10011000C660E770088129914AA16BB18CC1ADD14D
:10012000CEE1EFF13112100273325222B5529442F5
:10013000F772D662399318837BB35AA3BDD39CC39D
:10014000FFF3DEE36224433420040114E664C77441
:10015000A44485546AA54BB528850995EEE5CFF5ED
:10016000ACC58DD55336722611163006D776F66695
:100170009556B4465BB77AA719973887DFF7FEE73D
:100180009DD7BCC7C448E5588668A7784008611861
:1001900002282338CCC9EDD98EE9AFF9488969998D
:1001A0000AA92BB9F55AD44AB77A966A711A500A35
:1001B000333A122AFDDBDCCBBFFB9EEB799B588BDD
:1001C0003BBB1AABA66C877CE44CC55C222C033C81
:1001D000600C411CAEED8FFDECCDCDDD2AAD0BBD2D
:1001E000688D499D977EB66ED55EF44E133E322ED5
:1001F000511E700E9FFFBEEFDDDFFCCF1BBF3AAF7D
:10020000599F788F8891A981CAB1EBA10CD12DC1DA
:100210004EF16FE18010A100C230E3200450254070
:1002200046706760B9839893FBA3DAB33DC31CD3D0
:100230007FE35EF3B1029012F322D23235421452C0
:1002400077625672EAB5CBA5A89589856EF54FE51C
:100250002CD50DC5E234C324A01481046674476410
:1002600024540544DBA7FAB79987B8975FE77EF770
:100270001DC73CD7D326F2369106B0165766767660
:10028000154634564CD96DC90EF92FE9C899E9893C
:100290008AB9ABA94458654806782768C018E108B0
:1002A0008238A3287DCB5CDB3FEB1EFBF98BD89B10
:1002B000BBAB9ABB754A545A376A167AF10AD01A00
:1002C000B32A923A2EFD0FED6CDD4DCDAABD8BAD5C
:1002D000E89DC98D267C076C645C454CA23C832C50
:1002E000E01CC10C1FEF3EFF5DCF7CDF9BAFBABFB0
:1002F000D98FF89F176E367E554E745E932EB23EA0
:10030000D10EF01EE803F401FA007D00640054559C
:10031000504C00005455504C0000494F434F4E463E
:100320004947005455504C0000494F434F4E4649F1
:1003300047005455504C0000494F434F4E464947E3
:10034000005455504C0000494F434F4E464947001A
:100350005455504C0000494F434F4E4649470054B6
:1003600055504C0000494F434F4E464947005441B9
:100370004150504C4943005741544348444F470073
:100380005455504C0000494F434F4E464947005486
:10039000414150504C494300000000000000000063
:1003A000ADADADADADADADAD54414150504C494397
:1003B000003738392E2F302526271C1D1E13141503
:1003C0000A0B0C0102033A3B3C31323328292A1F25
:1003D00020211617180D0E0F0405063D3E3F34353B
:1003E000362B2C2D222324191A1B10111207080951
:1003F00040554B574E00FA000E04130064002604CB
:1004000013007D001E041300F40106041300E8032A
:1004100002041301FA00060413006400120413001E
:100420007D000E041300F40102041300E80300042D
:100430001301A4E3B0E1E0E0FAE081918D938AE05A
:10044000E731F807D1F711241FBECFEFD0E1DEBFAF
:10045000CDBF11E0A0E0B1E0E0EDF8E900E00BBFB6
:1004600002C007900D92A436B107D9F710E1A4E6B7
:10047000B1E001C01D92A433B107E1F70E94A902C7
:100480000C94674C0C94000080917E01992708958C
:10049000EF92FF920F931F93CF93DF93109265011A
:1004A000109264010E944009EC0184EAE82EF12CCC
:1004B000012D112DF894C801B7010E94D419789428
:1004C000682FCE010E944309EC010894E11CF11C45
:1004D000011D111D80E0E81680E4F80681E00807A0
:1004E00080E0180739F7CE010E9454098C01F89476
:1004F00064E970E080E090E00E94DC1978940817CD
:10050000190781F28091640190916501892B51F660
:1005100084E190E0909365018093640140E050E0B5
:1005200064E671E08091AD0F9091AE0F0E94D743C9
:1005300080E290E3909365018093640140E050E095
:1005400064E671E08091AB0F9091AC0F0E94D743AD
:10055000A9CFEF92FF920F931F93CF93DF93CDB765
:10056000DEB722970FB6F894DEBF0FBECDBF109254
:100570007E0181E08093B10F0E94FD3A9093271095
:10058000809326100B9709F440C10E949F2D62E0D2
:1005900084E00E94AD449093AC0F8093AB0F62E077
:1005A00084E00E94AD449093AE0F8093AD0F0E9403
:1005B000611F9A838983892B09F00CC10E94E8206E
:1005C00081E00E941F179A838983892B09F49EC0BA
:1005D00081E190E09A83898340E050E08E010F5FD3
:1005E0001F4FB8018091AD0F9091AE0F0E94D7437D
:1005F00087E190E69A83898340E050E0B8018091DA
:10060000AB0F9091AC0F0E94D743EE24FF2400E083
:1006100020E030E04AEC50E060E071E082EC9BE2E8
:100620000E949B4880911910882309F09FC011B83F
:1006300012B880EC84B915B89FEF97B980E28AB9F7
:100640009DB91EB883E083BB14BA80911210833029
:1006500009F46AC0EE24FF2401E020E030E046E91E
:1006600050E06AE071E08AEC94E20E949B48EE243C
:10067000FF2403E020E030E044EF50E06FE071E061
:100680008CEB98E00E949B4802E020E030E04EE6D0
:1006900050E064E171E083EC95E20E949B48EE2417
:1006A000FF2400E020E030E048E750E06CE371E038
:1006B0008AE295E00E949B480E94C83AA19A8091E4
:1006C0007F01882309F44CC060E080918001909103
:1006D00081010E94AF3981E00E94320A0E940630F7
:1006E00080911210882361F1843051F12AE7E22EC3
:1006F00021E0F22E04E020E030E04AEF50E061E437
:1007000071E08AEB95E30E949B48C9C00E94531791
:100710009A838983892B29F0CE0101960E9498380B
:1007200074CF0E94B62D71CF01E020E030E046E9A1
:1007300050E065E071E087E094E20E949B4897CF2B
:100740003AE7E32E31E0F32E04E020E030E04AEF18
:1007500050E061E471E083EA94E30E949B489FC00B
:1007600082E00E94320A0E94260BBACF80EC81B947
:1007700012B89FEF94B915B88FE087B980E28AB9B3
:100780009DB91EB883E083BB14BAEE24FF2401E0B8
:1007900020E030E046E950E069E171E087E495E26D
:1007A0000E949B48809112108823C9F1813009F47E
:1007B00066C0843009F44BC0EE24FF2402E020E040
:1007C00030E04EE650E067E371E089E399E20E9491
:1007D0009B4865CF40E050E08E010F5F1F4FB8018E
:1007E0008091AB0F9091AC0F0E94D74389819A8181
:1007F00090709A83898340E050E0B8018091AD0FFA
:100800009091AE0F0E94D743D9CE80E891E00E942C
:10081000F53A8FEF80937F0180939D0FB6CE03E072
:1008200020E030E04EEB50E06EE171E083EC9AE1C5
:100830000E949B4820E030E04EE650E063E271E029
:1008400088E296E00E949B4880911210AFCFEE2480
:10085000FF2403E020E030E04EEB50E06DE271E079
:100860008FE69EE30E949B4820E030E044EF50E09A
:1008700062E371E087E097E00E949B489DCFEE2401
:10088000FF2403E020E030E044EF50E068E271E054
:1008900085E598E00E949B48809112108ACF9CE7E2
:1008A000E92E91E0F92E04E020E030E04FEF50E037
:1008B00066E471E081E299E30E949B48EE24FF2404
:1008C00020E030E04EE650E06BE471E08BE794E02E
:1008D0000E949B480E949D4980E090E022960FB6BE
:1008E000F894DEBF0FBECDBFDF91CF911F910F9166
:1008F000FF90EF900895EF92FF920F931F93CF9385
:10090000DF93CDB7DEB722970FB6F894DEBF0FBEE8
:10091000CDBF8FEF9FEF90936701809366017E01BB
:100920000894E11CF11C06E010E412C0813008F4C8
:100930008BC080916801873639F01A8309838091D2
:100940007E01882309F47CC0109268010E94DD209A
:1009500080E590E00E94BC4A0E94DA33882329F0A7
:10096000809168018160809368010E948C3888239F
:1009700029F0809168018460809368010E94B51A13
:10098000882329F0809168018860809368010E9423
:10099000F43C882329F0809168018061809368018C
:1009A0000E947223882329F08091680180648093DB
:1009B00068010E948E23882329F08091680182605B
:1009C000809368010E948023882329F08091680128
:1009D00080628093680190918201809169019817EB
:1009E00039F0909369018091680180688093680173
:1009F00080916601909167010197909367018093C0
:100A00006601892B09F0A2CF8FEF9FEF90936701CA
:100A1000809366011A82198280911210843008F442
:100A200085CF843009F090CF80916801873F09F429
:100A30008BCF1A83098380917E01882309F084CFAC
:100A4000C7010E94983880CF809168018F3E09F0DD
:100A500074CF7ACFAF92BF92DF92EF92FF920F9353
:100A60001F93CF93DF93CDB7DEB722970FB6F894DD
:100A7000DEBF0FBECDBF4FEF5FEF6AE671E0809142
:100A8000AD0F9091AE0F0E9413438130A1F71092E9
:100A90009D0F80911910882309F082C0E2EAFFE0DF
:100AA0008FEF81932FE0EA3AF207D9F78091121085
:100AB000833009F4C1C08091A20F887F8093A20F78
:100AC0005E010894A11CB11C80917E01882319F459
:100AD00083E080937E011A82198240E050E0B501E4
:100AE0008091AD0F9091AE0F0E94134389819A813E
:100AF00020916A0130916B012817390728F49C0175
:100B000090936B0180936A01C9016AE070E00E94D2
:100B1000034CF62E8AE0689FC0011124E22EE81AE9
:100B200080911910882309F05DC000E010E00FC02B
:100B30008091A20F887F8093A20F84EF91E00E94A2
:100B4000BC4A0F5F1F4F0A30110509F46EC0902F89
:100B50000F1510F0FF2049F4809112108330E1F15D
:100B60008091A20F82608093A20F9E1510F0EE205C
:100B700049F480911210833049F18091A20F846072
:100B80008093A20F84EF91E00E94BC4A80911210E2
:100B9000833071F68091A70F837E8093A70FCDCF0E
:100BA00080911210E0EDFFE097E0882309F44EC039
:100BB00090833A9620E1E230F207B9F788EF80930C
:100BC00002105E010894A11CB11C7ECF8091A70F7A
:100BD00084608093A70FD6CF8091A70F8860809301
:100BE000A70FC3CF00E010E042E0D42E802F0F15F6
:100BF00010F0FF2011F4D09202108E1510F0EE20AC
:100C000029F48091021084608093021084EF91E0B7
:100C10000E94BC4A1092021084EF91E00E94BC4AEC
:100C20000F5F1F4F0A30110509F788EB9BE00E9408
:100C3000BC4A10929D0F48CF8091A70F837E80936E
:100C4000A70F5E010894A11CB11C3ECF1082B1CF4A
:100C50001F93CF93DF938CE090E00E94BC4AC0E3E7
:100C6000D5E729C08091750190917601009751F0E8
:100C7000222309F057C03A3209F454C01092760189
:100C80001092750140FD0CC0489B0AC0332341F40B
:100C900080917E01882309F45CC0833009F459C037
:100CA0001093740188E290E00E94BC4A8091820116
:100CB0008F5F809382010E946423182F0E94582323
:100CC000382F412F55278091740199278095909551
:100CD0008170907084239523892B11F03A3279F139
:100CE00020917E01243009F0BDCF80917301381727
:100CF00009F4B8CF30937301D0937601C093750196
:100D000080E395E78897909376018093750124306E
:100D100009F0B8CF332309F4B5CFD0937601C0934F
:100D20007501B0CF8932910568F7222379F484E008
:100D300080937E01D0937601C0937501EBCF88E854
:100D400093E19093760180937501CACF10927E0152
:100D500095CF81E080937E0121E0E1EDFFE080818D
:100D60009181892B09F020E03A9680E1ED30F80777
:100D7000B1F720937E01213009F092CF0E94DD204F
:100D80000E94C1238091D8008D7F8093D800A198C4
:100D90005D9A0E94252381E083BF889580B19927C1
:100DA0008F739070892BF1F040917E0120E030E04C
:100DB000EFECFFE0808199278F709070049754F0DA
:100DC00080B19927022E02C0959587950A94E2F783
:100DD00080FD40E02F5F3F4F3A962630310551F7B6
:100DE00040937E01489902C010927E010E94E52046
:100DF00080917E01882379F60E9447230E94DF2F8D
:100E0000A19A8091D80082608093D80049CFAF9298
:100E1000BF92CF92DF92FF920F931F93CF93DF93F6
:100E2000CDB7DEB723970FB6F894DEBF0FBECDBFA8
:100E300020916E0130916F01809182018F5F8093CC
:100E40008201285D3F4F30936F0120936E0188E24D
:100E500090E00E94BC4A20916E0130916F0183E0C6
:100E6000283E380748F36E010894C11CD11C72E07B
:100E7000A72EB12CAC0EBD1E19C0489B1FC08823E5
:100E8000E9F480917E01882311F1833001F1109300
:100E90006C018230C9F000936D01809182018F5FF7
:100EA0008093820188E290E00E94BC4A0E94642301
:100EB000182F0E945823082F10FFDFCF80917E014A
:100EC00010936C01823039F70E94DD20EFCFA6012C
:100ED00061E088E794E00E94D13B89818823B1F5E5
:100EE00081E080937E0160919C0F40E050E0A2EB96
:100EF000BFE0E42F8C9199278F709070892B11F4AB
:100F0000662391F4E695E695E695FF27E25FFF4EAE
:100F1000808199279A012770307002C09595879536
:100F20002A95E2F780FD1AC080917E01882359F04E
:100F30004F5F5F4F11964B315105D9F6813009F45F
:100F400054C0823071F010936C01A5CF60919C0F5A
:100F5000613059F682E080937E01C7CF10927E0106
:100F6000F2CF0E94DD20C5010E94A2390E94841A9E
:100F70000E9489218091D80088608093D8000E94C7
:100F8000362360E08A819B810E94AF398091D8002E
:100F9000877F8093D8000E94C12351E0F52EF3BED5
:100FA0008895489B04C08091D900897011F01092F7
:100FB0007E010E94DD2080917E01882381F780914F
:100FC000D80088608093D8000E94472360E08A811F
:100FD0009B810E94AF398091D800877F8093D80091
:100FE0000E94DF2F80917E0152CF0E94DD200E945F
:100FF000841A0E9489210E94C1238091D8008D7F8C
:101000008093D800A1985D9A0E94252381E083BF38
:10101000889580B199278F739070892B11F4499925
:101020002CC040917E01E2EBFFE010C080B1992717
:101030002150304002C0959587952A95E2F780FDB2
:1010400040E031968FE0ED3CF807A9F08081282F31
:101050003327C901929582958F7089279F708927C0
:1010600004977CF32F7030702F303105F9F64999D1
:10107000DDCF40E0DBCF40937E01489902C0109263
:101080007E010E94E52080917E01882309F0BECF79
:101090000E9447230E94DF2FA19A8091D80082608E
:1010A0008093D80080917E014CCF0F931F938CE0EA
:1010B00090E00E94BC4A01E004C088E290E00E94F7
:1010C000BC4A0E945823182F80917001882311F484
:1010D0001A32F9F000937001209171013091720180
:1010E0002115310551F080917E01882361F41A3277
:1010F000D9F0109272011092710180E090E00E948C
:101100004F4880917E018530C1F6812F0E94593B66
:10111000D4CF88E893E1909372018093710100939A
:10112000700128E833E1DFCF2932310578F0285209
:101130003040309372012093710180917101909140
:101140007201892BD1F280917E01DDCF85E0809301
:101150007E0180E395E79093720180937101809105
:101160007A0190917B010E944F4880917C0190917F
:101170007D010E944F48E1CF0F931F938CE090E0D8
:101180000E94BC4A1092790101E032C00E945823AB
:101190008034E9F110E00E945C238032B1F10E94BA
:1011A0006023803181F180917901882311F4103717
:1011B000A1F10093790120917701309178012115F7
:1011C000310551F080917E01882361F4103781F15F
:1011D000109278011092770180E090E00E944F48D1
:1011E00080917E018530A9F088E290E00E94BC4A9F
:1011F00080911210833051F60E945823182F8934A1
:1012000091F610E7D0CF1061CECF1062C8CF10E4B6
:10121000C2CF812F0E94593BE7CF88E893E190939A
:101220007801809377010093790128E833E1CACFF0
:101230002932310578F028523040309378012093DC
:1012400077018091770190917801892B29F2809123
:101250007E01C8CF85E080937E0180E395E790937F
:1012600078018093770180917A0190917B010E94AF
:101270004F4880917C0190917D010E944F48E1CFC1
:101280008FEF9FEF08959C01E92FFF27EE0FFF1FBF
:10129000EC5FFE4F85919491322F222777272627E6
:1012A000372782279327089560E00E94430960E072
:1012B0000E94430908950F931F93CF93DF938C01EE
:1012C000EB01672B49F0F80161918F01CA010E947F
:1012D0004309AC012197B9F7CA01DF91CF911F9162
:1012E0000F9108950F931F93CF93DF939C01EB0110
:1012F000672B09F459C060E070E080E090E0A0E066
:10130000B0E0F9012191422F5527273468F42134A8
:1013100088F520532A30D8F124E096958795779563
:1013200067952A95D1F744C021562630A8F747552E
:1013300050408A019801442737FD4095542F260FCD
:10134000371F481F591FCA01B901660F771F881F31
:10135000991F660F771F881F991F660F771F881FB9
:10136000991F660F771F881F991F1196CA17DB07F1
:1013700049F6D2CF475350408A019801442737FDA0
:101380004095542F260F371F481F591FDCCF40535D
:1013900050408A019801442737FD4095542F260F6D
:1013A000371F481F591FCFCF60E070E080E090E00A
:1013B000DF91CF911F910F910895FC016115710587
:1013C00011F40BC031969081892F81568A3110F427
:1013D0009052908361507040A9F70895EF92FF9268
:1013E0000F931F93CF93DF937B01672B71F140E045
:1013F00050E060E070E000E010E0EC012991203264
:10140000A1F0203220F0822F80538A3048F0CB01A7
:10141000BA012AE030E040E050E00E942A4C19C0B6
:101420002F70420F511D611D711DCB01BA012AE0C1
:1014300030E040E050E00E94D84BAB01BC010F5FB0
:101440001F4FE016F106D1F6E2CF20E030E040E099
:1014500050E0CA01B901DF91CF911F910F91FF9028
:10146000EF900895809385010895809383016093A0
:1014700084010895809187019927019665E070E0C5
:101480000E94174CFC0180938701FF27EE0FFF1F7E
:10149000EC5FFC4F8591949160E00E94AF39089514
:1014A0000E94FD2F109286011092870160E08091CA
:1014B0001E1090911F100E94AF39089580918501F0
:1014C000813009F0089583E0809385010E94500ADD
:1014D0000895CF93DF93CDB7DEB724970FB6F89476
:1014E000DEBF0FBECDBF1A821982CE0103960E94C5
:1014F000A2392B813C8180911E1090911F10821780
:10150000930759F12A3F3105C9F02B3F310550F4BB
:101510002D373105E9F01A821982CE0101960E9419
:1015200098381BC081E0243F380769F0285E3340BB
:1015300091F789E590E59A838983EFCF87E590E578
:101540009A838983EACF88E590E59A838983E5CFFA
:1015500086E590E59A838983E0CF0E94063081E09A
:101560008093850124960FB6F894DEBF0FBECDBFE1
:10157000DF91CF91089580918501833029F08430E7
:10158000C1F0823009F1089580918301823010F01A
:101590000E94690A80918401853058F1863059F1A2
:1015A000863098F1803879F7809183018823F1F0B3
:1015B0000895809188018F5F80938801853118F3A9
:1015C00083E08093850108958091890190918A013B
:1015D0008A30910528F00A9790938A0180938901B7
:1015E000892BD9F080918301823028F10E94690A09
:1015F00008958130D8F3109286010E943A0A109221
:10160000880184E0809385010895809186018F5F31
:10161000809386018A3050F7089510928A011092C3
:10162000890160E080911E1090911F100E94AF39D7
:101630000E94690A0895813019F00E943A0A0895BB
:1016400083E0809385010E94500A0895809185016E
:10165000823019F00E940630089588EE93E090934E
:101660008A01809389010E94500A0895FC018181BA
:101670008093A801A9E9B1E082818D93319681E040
:10168000AF39B807C9F708959C0180910D108823E0
:1016900051F4F901ACEEB2E081818D93319682E094
:1016A000A33FB807C9F708954091E9025091EA02B3
:1016B00091E04333590710F52091E7023091E80299
:1016C00091E02333390798F4F901E255FE4F848302
:1016D0004F5F5F4F5093EA024093E9022F5F3F4F05
:1016E0003093E8022093E70280E090E0089520E044
:1016F00030E01092E8021092E702E6CF87E390E52F
:1017000008959C011092B1011092B0011092AF01A6
:101710001092AE0180910D10882351F4F901ACEEC6
:10172000B2E081818D93319682E0A33FB807C9F77B
:10173000089510920D10089510920D100895809143
:10174000EB0299270895CF93DF93CDB7DEB72B97A0
:101750000FB6F894DEBF0FBECDBF87E18C83FE01CC
:101760003596CE010C961192E817F907E1F788E05B
:101770008B8380911D109927880F991F880F991FBF
:101780008F5F994F9A8389836FEFCE0101960E94F4
:10179000F1372B960FB6F894DEBF0FBECDBFDF91A9
:1017A000CF910895EF92FF920F931F93CF93DF9302
:1017B000CDB7DEB72B970FB6F894DEBF0FBECDBF07
:1017C000809107038130B1F1813060F5109297016B
:1017D000109296016EE073E08CEE92E00E947D4BD9
:1017E000892B09F481C0EE24FF2400E010E026E9F3
:1017F00031E040E051E062EB71E0809105039091AF
:1018000006030E94CB18AC011092B1011092B001F6
:101810001092AF011092AE01809107038F5F809309
:101820000703BFC0823009F483C0833081F140E0F8
:1018300050E0B7C085E180938E01409196015091B0
:101840009701EFE8F1E02091AE013091AF01D901AD
:10185000AE54BE4F09C08D9180832F5F3F4F3196AC
:1018600081E0E639F80749F024173507A0F3108224
:10187000319681E0E639F807B9F73093AF0120934C
:10188000AE0182E08093070340E050E08AC086E129
:101890008C832091AE013091AF01832F99278D83E6
:1018A0002E832091B0013091B101832F99278F832E
:1018B000288719861A861B8688E08B8380911D10E5
:1018C0009927880F991F880F991F8F5F994F9A83C7
:1018D00089836FEFCE0101960E94F137AC0110921F
:1018E0000D10109207035DC000E010E0A8014E54F7
:1018F0005E4F60E1C80180509C4F0E94D13BAC011B
:10190000005F1F4F0B36110540F44115510571F36F
:10191000005F1F4F0B361105C0F34115510509F04B
:1019200073CF8BE790E090939701809396016CCFF3
:1019300088E080938D0180911D109927880F991F51
:10194000880F991F8F5F994F90938C0180938B0123
:101950006FEF8BE891E00E94F137AC0180E54E30EB
:10196000580709F464CF41155105D9F48091B001AD
:101970009091B10101969093B1018093B0012091B3
:10198000AE013091AF018091960190919701281797
:10199000390720F083E08093070303C081E0809340
:1019A0000703CA012B960FB6F894DEBF0FBECDBF5A
:1019B000DF91CF911F910F91FF90EF900895CF93FA
:1019C000DF93CDB7DEB72B970FB6F894DEBF0FBE0F
:1019D000CDBF1092B1011092B0011092AF011092E0
:1019E000AE011092E6021092E5021092E802109207
:1019F000E7021092EA021092E90210920403109298
:101A0000030329E12C83292F33272D838E836F83B2
:101A1000188619861A861B8688E08B8380911D1094
:101A20009927880F991F880F991F8F5F994F9A8365
:101A300089836FEFCE0101960E94F1372B960FB686
:101A4000F894DEBF0FBECDBFDF91CF910895CF9345
:101A5000DF93CDB7DEB72B970FB6F894DEBF0FBE7E
:101A6000CDBF9B01AC01ECE0220F331F441F551F7B
:101A7000EA95D1F72070307040705F707F7090678A
:101A8000262B372B482B592B8CE18C83852F9927BC
:101A9000AA27BB278D834E83DA01C9018070A0700D
:101AA000B070892F9A2FAB2FBB278F832887198679
:101AB0001A862070307040705F70252F33274427BE
:101AC000552720672B8788E08B8380911D109927ED
:101AD000880F991F880F991F8F5F994F9A83898369
:101AE0006FEFCE0101960E94F13710920D102B96E8
:101AF0000FB6F894DEBF0FBECDBFDF91CF91089532
:101B00001F93CF93DF93EC0111E089810E94540B66
:101B1000BC01892BB9F41F5F21961830B1F7809171
:101B2000B0019091B10101969093B1018093B00101
:101B30008091AE019091AF0107969093AF01809391
:101B4000AE0105C0882799270E94270DBC01CB0153
:101B5000DF91CF911F910895CF93DF93CDB7DEB77B
:101B60002B970FB6F894DEBF0FBECDBF8BE18C83F1
:101B7000FE013596CE010C961192E817F907E1F7B0
:101B800088E08B8380911D109927880F991F880FFB
:101B9000991F8F5F994F9A8389836FEFCE010196CA
:101BA0000E94F13710920D102B960FB6F894DEBFFD
:101BB0000FBECDBFDF91CF910895CF93DF93CDB707
:101BC000DEB72B970FB6F894DEBF0FBECDBFFC017A
:101BD00041815527542F44278281480F511D50932E
:101BE00002034093010323813327322F222784816C
:101BF000280F311D8091030390910403840F951FDA
:101C000090930403809303038091B0019091B101FC
:101C10002817390739F069E370E580E090E00E9409
:101C2000270D41C048E050E066E573E08CEE92E09D
:101C30000E946F4B892B39F58AE18C83FE01359622
:101C4000CE010C961192E817F907E1F788E08B8333
:101C500080911D109927880F991F880F991F8F5FFA
:101C6000994F9A8389836FEFCE0101960E94F137D5
:101C70001092AF011092AE011092B1011092B0011A
:101C800080E090E010C044E050E060E573E08CEE4E
:101C900092E00E946F4B892B79F264E370E580E05B
:101CA00090E00E94270D2B960FB6F894DEBF0FBE72
:101CB000CDBFDF91CF91089548E050E06AE173E035
:101CC0008CEE92E00E946F4B892B91F044E050E043
:101CD00064E173E08CEE92E00E946F4B892B19F067
:101CE00084E390E508950E94A30B80E090E00895BE
:101CF0000E94A30B80E090E0089568E373E08CEE0F
:101D000092E00E947D4B892BA9F462E373E08CEE94
:101D100092E00E947D4B892B81F064E070E080EFBF
:101D200092E00E947209709306036093050380E0BD
:101D300090E0089580E090E0089584E390E50895B0
:101D4000FC0180910D10882339F065E370E580E097
:101D500090E00E94270D089582E080930D108091FD
:101D60001D108093EB0281818093F3021092F402A4
:101D700048E050E069E273E08CEE92E00E946F4B25
:101D8000892B89F044E050E063E273E08CEE92E04E
:101D90000E946F4B892B39F064E370E580E090E09E
:101DA0000E94270D08950E947D0E009739F09C0136
:101DB000B901882799270E94270D08950895CF9289
:101DC000DF92EF92FF920F931F93CF93DF93CDB7E4
:101DD000DEB726970FB6F894DEBF0FBECDBF809159
:101DE000F7029091F802A091F902B091FA028B8368
:101DF0009C83AD83BE830E9440098C019A838983B2
:101E000048E050E067E473E08CEE92E00E946F4B94
:101E1000892BF1F46091030370910403A80182EB14
:101E200091E00E945B099A8389830E9454099A83F6
:101E300089832091F5023091F6028217930709F405
:101E400048C06AE370E580E090E00E94270DB9C0C9
:101E500044E050E061E473E08CEE92E00E946F4B4E
:101E6000892B29F064E370E580E090E0EECF64E038
:101E700070E080EF92E00E9472096B017C01498161
:101E80005A81609103037091040382EB91E00E94F8
:101E90005B099A8389830E9454099A8389832091DC
:101EA000F5023091F6028217930759F64091030329
:101EB000509104034115510509F06AC0C6010E9402
:101EC0004F15009709F474C09C01B9018827992720
:101ED000BCCF60910303709104036930710528F54C
:101EE000EE24FF2410E040E050E04617570708F4C6
:101EF00040C021E0AE014F5F5F4F62E089E794E0B0
:101F00000E94EA3B009709F07C0121E0AE014D5FA1
:101F10005F4F64E084E094E00E94EA3BE114F10446
:101F200029F1B7018827992790CFEE24FF2410E0EC
:101F300040E050E0E0E0F0E04E545E4F21E068E029
:101F4000CF0180509C4F0E94EA3B009709F07C0132
:101F5000185F412F5527FA01609103037091040324
:101F6000CB0108974817590738F3BFCF0E94AC0D33
:101F700028C04E545E4F611B812F992721E080506D
:101F80009C4F0E94EA3B009709F4B3CF7C01B1CF8C
:101F90000091F7021091F8022091F9023091FA02B3
:101FA00062EB71E0C6010E94D015009709F08CCF5A
:101FB0000E940D14009709F087CF0E9453177C01EF
:101FC000ADCF26960FB6F894DEBF0FBECDBFDF9122
:101FD000CF911F910F91FF90EF90DF90CF900895D8
:101FE000CF93DF93FC0180910D10882339F065E3D6
:101FF00070E580E090E00E94270DAEC081E0809304
:102000000D1081818093F3021092F402828199274E
:10201000982F88279093F6028093F5022381820FF0
:10202000911D9093F6028093F50284819927AA2747
:10203000BB27B82FAA27992788278093F702909368
:10204000F802A093F902B093FA02258133274427BE
:102050005527A90133272227280F391F4A1F5B1F45
:102060002093F7023093F8024093F9025093FA025A
:1020700086819927AA27BB27BA2FA92F982F8827AF
:10208000820F931FA41FB51F8093F7029093F8024D
:10209000A093F902B093FA022781820F911DA11D2E
:1020A000B11D8093F7029093F802A093F902B093C8
:1020B000FA0280911D108093EB0269E070E08CEED3
:1020C00092E00E94DD0948E050E06EE673E08CEE9D
:1020D00092E00E946F4B892BD1F482E090E00E9445
:1020E000BC4AF8948CEE92E00E941C3BF8940FB628
:1020F000F8940F92C4E3D0E10E94DD20E0E0FAE022
:10210000899181932AE0E731F207D1F7FFCF48E0C8
:1021100050E065E673E08CEE92E00E946F4B892BF5
:1021200079F044E050E06FE573E08CEE92E00E94BD
:102130006F4B892B29F064E370E580E090E05BCF82
:1021400065E080E091E00E94DF0C009729F09C019F
:10215000B901882799274FCFDF91CF9108958F92AA
:102160009F92AF92BF92CF92DF92EF92FF920F9326
:102170001F93CF93DF93CDB7DEB769970FB6F8946F
:10218000DEBF0FBECDBFBFEF8B2E9B2E9E828D82FA
:10219000AFEFAA2EAFEFBA2EAFEFCA2EAFEFDA2E07
:1021A000AB86BC86CD86DE8648E050E06FE873E003
:1021B00089E991E00E946F4B892B09F04EC0F89499
:1021C00064E970E080E090E00E94DC199E838D83DA
:1021D00024E030E046E950E060E070E0CE010B968C
:1021E0000E94EA1978941092990110929A01109223
:1021F0009B0110929C0110929D0110929E011092E1
:102200009F011092A0012B853C854D855E856D81D7
:102210007E819091A80188E18A8B9B8B872F9927DB
:102220008C8B6D8B852F9927AA27BB278E8B4F8B85
:10223000388F298F88E0898B80911D109927880F0E
:10224000991F880F991F8F5F994F988B8F876FEF1A
:10225000CE010F960E94F137D0C048E050E066E80A
:1022600073E089E991E00E946F4B892B11F5AE0173
:102270004B5F5F4F62E089E794E00E94D13B00979B
:1022800009F470C09C01B90188279927109299011F
:1022900010929A0110929B0110929C0110929D0144
:1022A00010929E0110929F011092A0010E94270D92
:1022B000A4C044E050E060E873E089E991E00E9446
:1022C0006F4B892B09F03FC064E070E08DE991E02D
:1022D0000E947209DC01CB019093060380930503F1
:1022E000F3E0EF2EF12CEC0EFD1E8E01095F1F4F67
:1022F0009E012F5F3F4F40E051E062EB71E00E9492
:10230000CB18009709F45DC020E68131920709F4EB
:1023100051C030E68331930709F44CC01092990103
:1023200010929A0110929B0110929C0110929D01B3
:1023300010929E0110929F011092A0019C01B90180
:1023400088279927B3CF48E050E067E773E089E931
:1023500091E00E946F4B892B09F164E370E580E006
:1023600090E094CFAE01455F5F4F64E084E094E07D
:102370000E94D13B1092990110929A0110929B01F8
:1023800010929C0110929D0110929E0110929F014B
:102390001092A001009709F436CFD0CF82E090E0F0
:1023A0000E94BC4AF894F8940FB6F8940F920E94D9
:1023B000DD20FFCF9E828D82AB86BC86CD86DE86F9
:1023C00012CF0E9440099C838B8369817A81AC0182
:1023D00082EB91E00E945B099C838B830E945409ED
:1023E0009C838B839E838D838F819885A985BA85F5
:1023F0008B879C87AD87BE87F6CE69960FB6F8941B
:10240000DEBF0FBECDBFDF91CF911F910F91FF9027
:10241000EF90DF90CF90BF90AF909F908F900895F6
:10242000FC01828180939F0183818093A00110929F
:10243000A10169E070E089E991E00E94DD090E9454
:10244000AF100895FC0181818093A8018281869557
:102450008695805E80939901938192959F70828189
:1024600083708295807F805E980F90939A0194810B
:10247000929596959695937083818F70880F880FAB
:10248000805E980F90939B0184818F73805E809310
:102490009C01858186958695805E80939D019681BD
:1024A00092959F70858183708295807F805E980F62
:1024B00090939E01978192959695969593708681BB
:1024C0008F70880F880F805E980F90939F0187818F
:1024D0008F73805E8093A0011092A10169E070E08B
:1024E00089E991E00E94DD090E94AF100895CF9321
:1024F000DF93CDB7DEB722970FB6F894DEBF0FBEDD
:10250000CDBFFC011A8219828281883049F082E1B4
:1025100090E59A838983CE0101960E94983880C005
:102520008381863129F18731A0F08B3109F43FC0D6
:102530008C3148F18D3109F455C08D3108F448C013
:102540008E31E1F4CF0103960E94A00E9A83898315
:1025500015C0823189F1833108F18431E1F185318F
:1025600090F1CF0103960E94800D9A83898306C063
:10257000CF0103960E94DD0D9A83898389819A8118
:10258000892B49F64DC0873191F18A31B9F7CF01D6
:1025900003960E945C0E9A838983F0CF8031C9F143
:1025A000813161F7CF0103960E94360BE7CFCF014F
:1025B00003960E94990BE2CFCF0103960E9410125E
:1025C0009A838983DBCFCF0103960E94440BD6CF39
:1025D0000E949C0BD3CFCF0103960E94F00F9A83E9
:1025E0008983CCCFCF0103960E94810BC7CFCF0147
:1025F00003960E94DF0E9A838983892B09F08BCF83
:102600000E94B62D0E9424370E94773D9A838983C9
:10261000B5CFCF0103960E9422129A838983AECF51
:1026200022960FB6F894DEBF0FBECDBFDF91CF91DB
:102630000895EF92FF920F931F93CF93DF93CDB73F
:10264000DEB724970FB6F894DEBF0FBECDBF9A83D6
:1026500089837B015C834B838901232BF1F00E94EA
:102660004009AC0162E070E0CE0101960E945B0976
:10267000AC0162E070E0CE0103960E945B096B81C1
:102680007C81AC01C7010E945B090E945409F801DA
:102690009183808380E090E002C082E290E62496FD
:1026A0000FB6F894DEBF0FBECDBFDF91CF911F9163
:1026B0000F91FF90EF9008958F929F92AF92BF92EB
:1026C000CF92DF92EF92FF920F931F93CF93DF93FE
:1026D000CDB7DEB72C970FB6F894DEBF0FBECDBFD7
:1026E0005C017C836B834A013E832D8318870F83B3
:1026F000C986DA86EB86FC8680915101813039F0FB
:1027000080915101823019F082E190E673C02091EE
:1027100053013091540181E090E0821B930B20EF34
:1027200037E0829F8001839F100D929F100D11242E
:10273000005F1F4F8FEF9FEF9A8389832091520193
:102740007801EA0CFB1C00511040AE014B5F5F4F5B
:1027500062E0C70102960E94EA3B009709F04AC076
:1027600020915201A4016D81C70104960E94EA3BA9
:10277000009709F03FC0209152018D819E818A0D02
:102780009B1DF8017496AE01495F5F4F62E08E0FAA
:102790009F1F0E94EA3B009769F5209152018D81AD
:1027A0009E818A0D9B1DF8017696AE01475F5F4FB3
:1027B00064E08E0F9F1F0E94EA3B0097D9F420919E
:1027C00052018D819E818A0D9B1D065E1F4FAE01B9
:1027D0004F5F5F4F62E0800F911F0E94EA3B0097BE
:1027E00049F420915201AE014D5F5F4F62E0C70195
:1027F0000E94EA3B2C960FB6F894DEBF0FBECDBF09
:10280000DF91CF911F910F91FF90EF90DF90CF90CC
:10281000BF90AF909F908F900895CF93DF93CDB7E7
:10282000DEB721970FB6F894DEBF0FBECDBF809103
:102830005101823039F0809151018130F1F022E173
:1028400030E629C080915301909154011982892B5F
:1028500011F481E0898321E0AE014F5F5F4F61E0B9
:1028600080E090E00E94EA3B9C01892B49F083E0E4
:102870008093510126E130E60EC020E030E00BC02D
:1028800089819927909354018093530181E080932B
:10289000500110925101C90121960FB6F894DEBF84
:1028A0000FBECDBFDF91CF9108952F923F924F92EF
:1028B0005F926F927F928F929F92AF92BF92CF92D0
:1028C000DF92EF92FF920F931F93CF93DF93CDB7D9
:1028D000DEB726970FB6F894DEBF0FBECDBFFC0162
:1028E0005B015E834D833901480127011601029780
:1028F00008F062C06F5F714008F05EC0611471043F
:1029000009F45AC0012B09F457C0EF2809F454C048
:10291000CD2809F451C08091530190915401E817DA
:10292000F90739F480915001813019F002E110E685
:102930009CC08091530190915401E817F90741F030
:1029400080915101813021F080915101823071F7E5
:102950001A82198280EF97E0E89F7001E99FF00CDE
:10296000F89FF00C112480E190E0E80EF91E970129
:102970002A0D3B1D3C832B83AE014F5F5F4F62E00E
:10298000C9010E94D13B8C01F301B182A082892B45
:1029900081F589819A81FFEF8F3F9F0781F084E065
:1029A000C82ED12CCA0CDB1C21E0C21622E0D206B4
:1029B00020F108E010E659C003E210E656C0F40129
:1029C000118210822D813E818217930761F18F5F02
:1029D0009F4F09F448C0F401808191810A96A80EA6
:1029E000B91EFFEFAF16F1E0BF0608F4C0CF08E054
:1029F00010E6F4011182108238C0A40162E08B81DC
:102A00009C8102960E94D13B892B99F6F40180812A
:102A10009181C80ED91EF9EFCF16F1E0DF0648F616
:102A200089819A81CFCF8F5F9F4FF9F0F401808128
:102A300091810496A20162E02B813C81820F931F59
:102A40000E94D13B8C01892B81F4F401808191811A
:102A50000696A10164E02B813C81820F931F0E94A6
:102A6000D13B8C0102C001E110E6C80126960FB6E9
:102A7000F894DEBF0FBECDBFDF91CF911F910F91B4
:102A8000FF90EF90DF90CF90BF90AF909F908F908E
:102A90007F906F905F904F903F902F900895AF92EE
:102AA000BF92CF92DF92EF92FF920F931F93CF933B
:102AB000DF93CDB7DEB72C970FB6F894DEBF0FBE0D
:102AC000CDBFAC0101978E5F9F4F08F053C080913E
:102AD0005101813039F080915101823019F082E149
:102AE00090E64DC080915301909154011E821D8249
:102AF00018861F8261E0A62EB12C39E0C32ED12C9E
:102B0000CC0EDD1E23E0E22EF12CEC0EFD1E8E011C
:102B10000F5F1F4F9E01295F3F4F60E070E0F5019E
:102B2000E81BF90BCF010E945514009741F58091E5
:102B300053019091540120915201A81AB90A80EFD3
:102B400097E0AC01A49EC001A59E900DB49E900D8F
:102B50001124EF81F8857096AE014B5F5F4F62E004
:102B60008E0F9F1F0E94EA3B009739F023E02093CD
:102B7000510105C081E290E602C022E0F8CF2C9618
:102B80000FB6F894DEBF0FBECDBFDF91CF911F917E
:102B90000F91FF90EF90DF90CF90BF90AF9008958E
:102BA0002F923F924F925F926F927F928F929F925D
:102BB000AF92BF92CF92DF92EF92FF920F931F934B
:102BC000CF93DF93CDB7DEB764970FB6F894DEBF2F
:102BD0000FBECDBF5C013B014A01098B1A8B2B8BC9
:102BE0003C8B01978E5F9F4F08F06FC08091510121
:102BF000813039F080915101823019F022E130E6C4
:102C000004C140905301509054011A8619861E82C7
:102C10001D821A8219821C861B8629E0222E312CE5
:102C20002C0E3D1E9101A401B301C5010E94191390
:102C3000009709F457C0009709F04AC0E1E0F0E0BE
:102C4000CF018419950920EF37E0829FA001839F6F
:102C5000500D929F500D112400E1402E512C440E36
:102C6000551E8D819E818816990609F47FC080913A
:102C700053019091540113E0212E312C2C0E3D1E56
:102C80006B857C85BDE0CB2ED12CCC0EDD1EA7E064
:102C9000EA2EF12CEC0EFD1E81019E012F5F3F4FAD
:102CA0004FEF5FEFE81BF90BCF010E945514892B02
:102CB000B9F5E981FA81CF010A96880D991D8F5FD8
:102CC000914088F125E130E609C020E230E69DC060
:102CD0008151904609F481C024E130E683E080937D
:102CE000510193C0E0915301F09154016B857C85B3
:102CF0009DE0C92ED12CCC0EDD1E87E0E82EF12CF4
:102D0000EC0EFD1E8E010B5F1F4F9E01255F3F4F96
:102D1000A50181E090E08E1B9F0B0E9455148BCF84
:102D200028E030E6DBCFC988DA88EB88FC880985A3
:102D30001A859401A301B501CF010E945C139C0187
:102D4000892B61F61C821B828B859C8521E0A10169
:102D500062E0840D951D0E94EA3B9C01211531051E
:102D600009F0BCCF82E0809351014FC02091520105
:102D7000CA014496EB85FC85A301682D8E0F9F1F29
:102D80000E94EA3B9C01892B09F0A8CF20915201B7
:102D90008B859C85840D951DF4013696AE014F5EA2
:102DA0005F4F64E08E0F9F1F0E94EA3B9C01892BBE
:102DB00009F094CF209152018B859C85480E591EB5
:102DC00084E090E0880E991EA10162E0C201880DA6
:102DD000991D0E94EA3B9C01C1CFEB85FC85CF0188
:102DE0000A96880D991D8F5F914008F06BCFC988B6
:102DF000DA88EB88FC8809851A859401A301B5015E
:102E0000CF010E945C139C01A9CFC90164960FB643
:102E1000F894DEBF0FBECDBFDF91CF911F910F9110
:102E2000FF90EF90DF90CF90BF90AF909F908F90EA
:102E30007F906F905F904F903F902F9008951F93D9
:102E4000CF93DF93CDB7DEB721970FB6F894DEBFEF
:102E50000FBECDBF182FAE014F5F5F4F62E080E025
:102E600090E00E94D13B9C01892B91F440E050E01E
:102E70008981882351F45093540140935301109356
:102E8000520181E08093500103C041E050E0F3CF54
:102E9000C90121960FB6F894DEBF0FBECDBFDF91FA
:102EA000CF911F9108952F923F924F925F926F9210
:102EB0007F928F929F92AF92BF92CF92DF92EF92CA
:102EC000FF920F931F93CF93DF93CDB7DEB7E097B9
:102ED0000FB6F894DEBF0FBECDBF80915001813098
:102EE00019F002E110E63DC1809153019091540127
:102EF00040EF57E0849F4001859F900C949F900C79
:102F0000112480E190E0880E991E209153013091A8
:102F1000540181E090E0821B930B849F5001859FB8
:102F2000B00C949FB00C112480E190E0A80EB91E63
:102F300080915301909154012EEF3FEF3E832D83FA
:102F40001A8619866BE0C62ED12CCC0EDD1E7E01B2
:102F50000894E11CF11C8E010D5F1F4F9E01275F3D
:102F60003F4F4FEF5FEF60E070E00E9455148C011F
:102F7000892B31F083E08093510108E110E6F1C024
:102F80001A86198618AA1FA62D813E812F5F3F4FF2
:102F900009F47BC055E0C52ED12CCC0EDD1E8985F1
:102FA0009A85A60162E0880D991D0E94D13B7C01A3
:102FB000892B09F06EC08D819E818F5F9F4F09F430
:102FC00068C0C401029629853A85AE01495F5F4F0A
:102FD00062E0820F931F0E94D13B7C0189859A8514
:102FE0000A962F813885820F931F8050924008F0F7
:102FF000C1CFE114F10409F0BDCF2D813E818FEFE7
:103000002F3F380709F451C02115310509F444C098
:103010006F817885665F7F4F78876F83662477241A
:1030200066167706E8F4661977096131710510F0C4
:1030300060E170E07C836B833FE1232E312C2C0E0A
:103040003D1E89859A85880D991DA101860D971DC4
:103050000E94D13B7C01892B09F445C06F817885A2
:103060008FA598A9860F971F98AB8FA789859A85FA
:10307000EF2809F07FCF2D813E81860F971F9A8719
:1030800089872F5F3F4F09F085CF81E08093510101
:1030900068C018861F82ADCF6F817885665F7F4FCD
:1030A00078876F8389859A85E8CFEFA4F8A8EA0C22
:1030B000FB1C4FE0642E712C6C0E7D1EA30162E0A0
:1030C000C7010E94D13B892B09F054CF42E050E068
:1030D000B301C6010E94974B892B39F52D813E81A2
:1030E0006F817885DFCF2501460C571C8FA598A9E5
:1030F000480E591EAE01415F5F4F6B81C2010E94B5
:10310000D13B7C01892B09F0A9CFCB80DC80A601C3
:10311000BE01615F7F4FC1010E94974B892B79F4FB
:103120006C0C7D1C6F8178857BCF21E0A60162E06D
:10313000C7010E94EA3B7C016F81788597CF21E02F
:10314000A1016C2DC2010E94EA3B7C018B819C8114
:10315000E114F10409F082CF680E791E6F81788541
:103160005FCFC801E0960FB6F894DEBF0FBECDBFAB
:10317000DF91CF911F910F91FF90EF90DF90CF9053
:10318000BF90AF909F908F907F906F905F904F9087
:103190003F902F9008952F923F924F925F926F929F
:1031A0007F928F929F92AF92BF92CF92DF92EF92D7
:1031B000FF920F931F93CF93DF93CDB7DEB72F9777
:1031C0000FB6F894DEBF0FBECDBF9D878C875B0125
:1031D0003A0149011801FF86EE86AC0101978E5F26
:1031E0009F4F08F06EC0672B09F46BC081149104E7
:1031F00009F467C080915001813029F0B2E1EB2ED3
:10320000B0E6FB2EB7C01F821E8240905301509043
:10321000540180915301909154011D821C821886A3
:1032200019861A861B86A8E0CA2ED12CCC0EDD1E6C
:10323000F2E0EF2EF12CEC0EFD1E8E010C5F1F4F05
:103240009E012A5F3F4F60E070E00E9455147C01B0
:10325000892B09F08FC00C811D816016710608F45E
:10326000830180EF97E0489E3001499E700C589E84
:10327000700C112484E190E0680E791E8E819F818C
:10328000A501602F860D971D0E94D13B7C01892BE3
:10329000E9F02114310449F088859985AA85BB8518
:1032A000F10180839183A283B3838E859F85892BCF
:1032B00009F460C08A819B81EE85FF8591838083BC
:1032C00059C07FE1E72E70E6F72E54C0F401118358
:1032D00000830E944009AC0162E070E0CE010C96D0
:1032E0000E945B09AC0162E070E0CE0104960E948E
:1032F0005B09AC01B801C5010E945B096C012E811C
:103300003F81200F311F3F832E838C819D810817C1
:10331000190710F55E010894A11CB11C03C0E1144B
:10332000F104D1F4A50161E0C301820F931F0E9453
:10333000D13B7C016981C6010E9443096C018E81E9
:103340009F8101969C019F838E830F5F1F4F8C810D
:103350009D810817190718F3C6010E9454092A8194
:103360003B818217930709F494CFE3E1EE2EE0E668
:10337000FE2E8FCFC7012F960FB6F894DEBF0FBE7B
:10338000CDBFDF91CF911F910F91FF90EF90DF9014
:10339000CF90BF90AF909F908F907F906F905F90F5
:1033A0004F903F902F9008958BBFF72FE62FD89521
:1033B000602D862F99270895DC01CB01ABBFF92F33
:1033C000E82FD895802D0BB63196011C0BBED895F1
:1033D000902D0895CF92DF92EF92FF920F931F935B
:1033E000CF93DF937A018B012115310589F0EC0130
:1033F0006901C80ED91EC801B7010E94D41989936A
:103400000894E11CF11C011D111DCC16DD0699F775
:10341000DF91CF911F910F91FF90EF90DF90CF90B0
:103420000895FF920F931F93CF93DF93EC018B01CD
:10343000F42EF9990FC04F2D41504F3F89F0D2BD66
:10344000C1BDF89A80B5F80181938F012196415052
:10345000B0F706C08AE090E00E94BC4AF99BEBCF2F
:1034600080E090E0DF91CF911F910F91FF90089540
:10347000FF920F931F93CF93DF93CDB7DEB72297C1
:103480000FB6F894DEBF0FBECDBF8C01F62EF999B2
:103490000BC012BD01BDF0BC0FB6F894FA9AF99AB0
:1034A0000FBE80E090E024C00E94AC45892BD9F487
:1034B0001A82198289819A818458954378F4F999FE
:1034C00003C00CC0F99B0AC089819A8101969A8336
:1034D000898389819A8184589543A0F3F99BD9CF38
:1034E00084E290E605C08AE090E00E94BC4AF6CFF4
:1034F00022960FB6F894DEBF0FBECDBFDF91CF91FD
:103500001F910F91FF900895E1EDFFE0118210826D
:10351000138212823A9680E1ED30F807B9F70895E8
:10352000FC0182819381958384838081843011F0B2
:10353000138212820895FC018081833071F08430FF
:1035400028F0863039F0873041F00895813051F00D
:103550008230D9F773836283089584819581938340
:103560008283089513821282089590911A038091A4
:103570000803981729F09093080381E090E00895DC
:1035800080E090E008956F927F928F929F92AF9229
:10359000BF92CF92DF92EF92FF920F931F93CF9340
:1035A000DF93CDB7DEB722970FB6F894DEBF0FBE1C
:1035B000CDBF0E944402809309033E010894611C20
:1035C000711CCCC180911603882E99248091180318
:1035D000C82EDD24C094D094C820D920C0FE0EC0CF
:1035E00020E030E08091D10F9091D20F892B11F41F
:1035F00021E030E03093D20F2093D10F8091D10F92
:103600009091D20F892B09F424C28091170381FF76
:1036100000C397E09093D00F482F55278A0101707F
:103620001070A02E002339F48091D90F99278F7044
:103630009070049774F0C1FE0CC08091DB0F9091E4
:10364000DC0F22E030E0822793279093DC0F8093F9
:10365000DB0F80911903E82EFF24CA018095909515
:1036600097012170307082239323B82E882309F0AC
:1036700006C2C7018095909580239123182F882337
:1036800009F0F6C120E08091DB0F9091DC0F892BCF
:1036900009F021E02093DA0FC2FE11C0AA2009F43C
:1036A000BAC28091E50F9091E60F009709F455C3D7
:1036B000809709F4E1C31092E60F1092E50FBB204A
:1036C00021F01092E60F1092E50F2091E50F309156
:1036D000E60FC90196958795929582958F708927F7
:1036E0009F70892781708093E40F26FF03C0846058
:1036F0008093E40FAA2039F48091ED0F99278F7001
:1037000090700497C4F0C3FE16C08091EF0F9091A3
:10371000F00F8038910509F427C321E08038920723
:1037200009F436C3892B09F026C380E890E0909312
:10373000F00F8093EF0FBB2009F0ADC1112309F00A
:10374000A3C12091EF0F3091F00FC901880F892F8D
:10375000881F990B919581708093EE0F30FF03C005
:1037600084608093EE0F4091FB0F40930E032091F5
:103770000F03309110032115310531F0285D3F4FC3
:103780003093100320930F0380910C0390910D034D
:10379000009749F08932910508F411C288979093F7
:1037A0000D0380930C0321153105C9F084FC40C240
:1037B00051E0243F350708F0C5C210920B03109268
:1037C0000A0380910E03882309F4FCC2833008F4B5
:1037D00074C310920E031092100310920F03AA20CC
:1037E00039F48091F70F99278F709070049744F007
:1037F000C4FE06C081E090E09093100380930F0315
:10380000BB2039F08091F70F8F70843011F0109247
:103810000E031123A1F08091F70F99278F709070FC
:103820008330910509F427C2843091050CF01CC245
:103830008130910509F412C1029709F45BC24091ED
:103840000E03413009F405C2413008F40AC1423088
:1038500009F496C2433009F451C220910A03309111
:103860000B0321153105C1F08091F90F9091FA0FEA
:1038700084609093FA0F8093F90F8091F80F826023
:103880008093F80F2932310508F4ABC1285230403B
:1038900030930B0320930A0380910F039091100340
:1038A000895E934030F08CE090E09093FA0F809323
:1038B000F90FAA2009F473C080910E039927909301
:1038C000FC0F8093FB0FC5FE0CC0809103109091FC
:1038D000041020E130E08227932790930410809316
:1038E0000310BB2009F066C0112309F06AC0809163
:1038F0001503882309F070C0809103109091041083
:10390000892B09F482C1809107109091081090933F
:1039100014038093130388E290E090931203809342
:1039200011038091031080931503882309F49AC131
:1039300087E0809302100E948921A0911603809154
:10394000170380931903A093180380911A038F5FC4
:1039500080931A0388E290E00E94BC4A0E944402CD
:10396000182F0E945823809316030E94642380938B
:103970001703133009F494C080910903181731F02C
:103980000E94841A0E94892110930903112309F4CB
:1039900019CE143009F48DC0A0911603D0CF8091B8
:1039A000011099278F70907004970CF08CCFBB207A
:1039B00009F49ACF81E090E10E94901A112309F452
:1039C00096CF60E170E081E090E10E949B1A8091C7
:1039D0001503882309F490CF80910310909104106F
:1039E000892B89F12091110330911203285D3F4FFB
:1039F000309312032093110343E0283E340708F468
:103A000090CFC90168EE73E00E94034C772788EEDF
:103A100093E0AC01649FC001659F900D749F900D71
:103A20001124281B390B309312032093110380912A
:103A30001303909114036817790708F4BCC110921E
:103A4000041010920310809103108093150380E0FE
:103A500070CF1092D00F80911703DECD10920E031D
:103A600040E01092FA0F1092F90F1092F80FF5CE75
:103A700062E070E089ED9FE00E949B1A03CE89ED21
:103A80009FE00E94901AF5CD60E871E08DEE9FE016
:103A90000E949B1A56CE8DEE9FE00E94901A4ECE49
:103AA0000E94841A0E94892180E090E00E944F4881
:103AB00063CF80911803682F772760957095A09148
:103AC00016038A2F992768237923B0E040E050E05D
:103AD000EFECFFE001E010E084E0F82E26C08081EA
:103AE00087FD0EC08F5F883008F081E08083C801B9
:103AF000042E02C0880F991F0A94E2F7B82B808128
:103B00001182282F332720FDF18221FF03C08181FC
:103B10008260818322FF03C08181816081834F5F46
:103B20005F4F3A964630510559F0CB01042E02C042
:103B3000959587950A94E2F780FDD1CF8081E0CFFB
:103B40008B2F9927882309F4FACEC82EDD2460E054
:103B500070E027C01A8219827B010894E11CF11CD5
:103B600053E0E516F10409F4D3C084E0E816F1044B
:103B70000CF084C021E0E216F10409F463C142E0D4
:103B8000E416F10409F47FC189819A81892B09F433
:103B9000A2C0C3010E949838B7016630710509F4CC
:103BA000FBCEC601062E02C0959587950A94E2F7D2
:103BB00080FDD0CF7B010894E11CF11CEDCF41309A
:103BC00009F4EDC0423009F0EECD81E080930E03A0
:103BD0008091FD0F9091FE0F90930D0380930C0345
:103BE000E2CD10920B0310920A034150423008F0CC
:103BF00053CE82E080930E038091FF0F90910010CE
:103C000090930D0380930C0347CE1092150380E030
:103C100090CE90E0FFCC8091E50F9091E60F20E2EE
:103C200030E0822793279093E60F8093E50F47CDEE
:103C3000295E334008F4D3CD29EE33E030931003EE
:103C400020930F0388E893E190930B0380930A037A
:103C5000C6CD84E090E09093FA0F8093F90F4093E3
:103C6000F80FFBCD80E065CE8630910509F442C0A7
:103C7000079709F0E4CD40930E03E1CD55E0E5163A
:103C8000F10409F4C5C085E0E816F1040CF4A6C0FF
:103C900026E0E216F10409F077CFCB01880F991FD7
:103CA000880F991F880F991F660F771F680F791F5C
:103CB0006153704F00E010E020E030E041E050E060
:103CC0008BE095EB0E94D0159A83898389819A8134
:103CD000892B09F05ECF0E940D149A838983892B6A
:103CE00009F057CF0E9453179A838983892B09F4CF
:103CF00053CF4FCF83E080930E0343E084E090E006
:103D00009093FA0F8093F90F85E08093F80FA5CD7B
:103D1000CB01880F991F880F991F880F991F660F75
:103D2000771F680F791F6153704F00E010E020E0AB
:103D300030E041E050E085E095EB0E94D0159A8399
:103D4000898322CF295E334008F445CD88E893E18A
:103D500090930B0380930A033ECD80E290E0909312
:103D6000E60F8093E50FABCC80E891E09093F00FE5
:103D70008093EF0FE0CC1092F00F1092EF0FDBCC9E
:103D80001092FA0F1092F90F81E08093F80F65CD31
:103D900080E091E09093F00F8093EF0FCCCC82E025
:103DA00080930E038091FF0F9091001090930D036C
:103DB00080930C03F8CC861B970B9093140380938D
:103DC0001303AFCD81E080930E038091FD0F90919E
:103DD000FE0F90930D0380930C03FDCCCB01880F55
:103DE000991F880F991F880F991F660F771F680FFB
:103DF000791F6153704F00E010E020E030E041E0B7
:103E000050E087E095EB0E94D0159A838983BCCE61
:103E1000CB01880F991F880F991F880F991F660F74
:103E2000771F680F791F6153704F00E010E020E0AA
:103E300030E041E050E089E095EB0E94D0159A8394
:103E40008983A2CECB01880F991F880F991F880FF5
:103E5000991F660F771F680F791F6153704F00E03D
:103E600010E020E030E041E050E081E095EB0E947E
:103E7000D0159A83898388CE80E690E09093E60FF0
:103E80008093E50F1CCCCB01880F991F880F991FD9
:103E9000880F991F660F771F680F791F6153704F46
:103EA00000E010E020E030E041E050E083E095EBFE
:103EB0000E94D0159A83898367CE83E080930E0396
:103EC0008ACCEF92FF920F931F93CF93DF93CDB7DE
:103ED000DEB728970FB6F894DEBF0FBECDBF8E01B8
:103EE0000F5F1F4F28E030E044EB50E060E070E0EF
:103EF000C8010E94EA1948E050E068E973E0C8018F
:103F00000E94594B892B09F048C030E1E32E30E381
:103F1000F32E28E030E044EC50E060E070E0C801AF
:103F20000E94EA1948E050E068E973E0C8010E9485
:103F3000594B892B09F048C020E1E22E20E3F22EF4
:103F400026E030E048ED50E060E070E0C8010E94FB
:103F5000EA1946E050E068E973E0C8010E94594B55
:103F6000892B41F590E1E92E90E3F92E28E030E02D
:103F700044EF50E060E070E0C8010E94EA1948E0B8
:103F800050E068EA73E0C8010E94594B892B39F16F
:103F900080E1E82E80E3F82E22C048E050E060EA9D
:103FA00073E0C8010E94594B892B09F4AECFEE246F
:103FB000FF24AFCF46E050E060EA73E0C8010E9402
:103FC000594B892B99F6CECF48E050E060EA73E078
:103FD000C8010E94594B892B09F0B2CFADCFC70160
:103FE00028960FB6F894DEBF0FBECDBFDF91CF91FC
:103FF0001F910F91FF90EF9008951F920F920FB6AF
:104000000F9211248F9383B78E7F83BF8F910F9070
:104010000FBE0F901F901895E0E8F0E08081837F3D
:1040200080832F980895E0E8F0E080818F6380839B
:1040300008952FE0803A920728F420EA3FE0281BF9
:10404000390B02C020E030E030938D0020938C00CB
:1040500008952FE0813A920710F080EA9FE0909354
:104060008B0080938A000895CF92DF92EF92FF92A7
:104070000F931F93CF93DF93CDB7DEB729970FB67A
:10408000F894DEBF0FBECDBF8C01FB01DC018D912A
:104090009C919183808340E086B1682F7727607F71
:1040A0007070660F771F4F5F413009F455C0413083
:1040B00098F3423009F469C04F5F4330A8F3CC2431
:1040C000DD24FE01319681E0E82EF12C0EC0406E19
:1040D0005F6F405E5F4F69F10894C11CD11C31963F
:1040E000B9E0CB16D10409F459C04081440F408394
:1040F00097010C2C02C0220F331F0A94E2F7CB0168
:1041000082239323892B11F0416040835527CA01F4
:104110008F7190704F97D9F6D8018D919C9111971E
:10412000822B932B8D939C93406E5F6F405E5F4F0D
:1041300099F620953095D8018D919C911197822305
:1041400093238D939C930894C11CD11C3196B9E0A4
:10415000CB16D10451F622C029B189B1332720787A
:10416000307036952795369527953695279599275A
:1041700080719070929582958F7089279F708927A2
:10418000282B392B622B732B8ECF82B399278D71FD
:10419000907096958795682B792B91CF29960FB6BD
:1041A000F894DEBF0FBECDBFDF91CF911F910F916D
:1041B000FF90EF90DF90CF900895A09A80E00000EC
:1041C0008F5F8233E1F7A0980895A09AA098089590
:1041D000E1E6F0E090E89083108280E185BF90BF37
:1041E00010BA8FB18695877080931910E1E8F0E0DE
:1041F0008081887F808310928500109284000895CA
:10420000FF920F931F93CF93DF9300E010E0FF2402
:10421000A0E0B0E0C0EDDFE05A2F8881682F77275B
:1042200040E0E1E0F0E008C05523B1F1513009F47D
:104230004FC04F5F433020F5242F3327CB01022E90
:1042400002C0959587950A94E2F780FFF2CF52302D
:10425000E9F0533048F3543089F1543028F15530A7
:1042600041F7442309F43EC021503040CF0102C041
:10427000880F991F2A95E2F7F82A4F5F4330E0F242
:1042800011962A96A630B10539F62FC0423010F0AB
:104290001160CFCF2A5F3F4FCF0102C0880F991F17
:1042A0002A95E2F7082BC5CF2F5F3F4FCF0102C001
:1042B000880F991F2A95E2F7182BBBCF2C5F3F4F31
:1042C000CF0102C0880F991F2A95E2F7182BB1CFB2
:1042D0002D5F3F4FCF0102C0880F991F2A95E2F74B
:1042E000082BA7CF106841E09CCF0093A20F10933A
:1042F000A30FF092A40FDF91CF911F910F91FF9028
:104300000895109249031092480381E080934C0372
:1043100008954091D10F5091D20F8091DB0F909171
:10432000DC0F482B592B8091E50F9091E60F482B1D
:10433000592B8091EF0F9091F00F482B592B8091C2
:10434000F90F9091FA0F482B592B809103109091FF
:104350000410482B592B5093520340935103A0E073
:10436000E0E0F0E020E030E061E070E011C02250D9
:104370003040CB01022E02C0880F991F0A94E2F749
:104380002E5F3F4FE82B2F5F3F4F29303105A9F0BB
:10439000CB01022E02C0880F991F0A94E2F78423F2
:1043A0009523892B81F3223068F0283000F3F860E0
:1043B0002F5F3F4F2930310559F78091181087FF43
:1043C00065C00DC02A5F3F4FCB01022E02C0880F8F
:1043D000991F0A94E2F726503040A82BD4CF2091A1
:1043E0000B1030910C1020FF07C0AF7B8091AF0FF6
:1043F0009091B00F80FDA06421FF07C0AF7780913E
:10440000AF0F9091B00F81FDA06822FF07C0EE7F33
:104410008091AF0F9091B00F82FDE16023FF07C044
:10442000ED7F8091AF0F9091B00F83FDE26024FF8C
:1044300007C0EB7F8091AF0F9091B00F84FDE460D7
:1044400025FF07C0E77F8091AF0F9091B00F85FDEA
:10445000E86026FF07C0EF7E8091AF0F9091B00F0C
:1044600086FDE06127FD0BC030FF10C0FB7F80910F
:10447000AF0F9091B00F90FF09C0F86007C0EF7DBB
:104480008091AF0F87FFF0CFE062EECFA2B9E5B920
:10449000F8B908958F929F92AF92BF92CF92DF9218
:1044A000EF92FF920F931F93CF93DF934C016B0119
:1044B000EA0188859985892B29F48A859B85892B32
:1044C00009F477C0F601A280B3808C859D85892B85
:1044D00021F48E859F85892BA9F1A814B90448F190
:1044E000C884D9846A857B85E880F9800A811B812C
:1044F000882777FD8095982F9401442755270E949F
:10450000D84BE60EF71E081F191F9601442737FDEA
:104510004095542FC801B7010E944C4C922F27FDA3
:1045200085C024360CF07FC088E29802C0011124B7
:104530007FC0CC84DD846E857F85EC80FD800E811C
:104540001F81D6CF8C819D81AE81BF810097A1054F
:10455000B10519F6F601848195818A199B099D8719
:104560008C87808599272781821B91099F878E8759
:104570006481758188279927278133274427552708
:104580000E94D84B7B018C01F601A280B380B5015B
:104590008827992720853327442755270E94D84B01
:1045A000E61AF70A080B190BEC82FD820E831F83B3
:1045B00094CF88819981AA81BB810097A105B1051B
:1045C00009F080CFFB018281938120813181821BA0
:1045D000930B99878887878199272681821B910968
:1045E0009B878A87A280B380B50188279927268177
:1045F0003327442755270E94D84B7B018C01F601B5
:10460000608171818827992727813327442755277F
:104610000E94D84BE61AF70A080B190BE882F982B8
:104620000A831B8352CF88E79FE002C090E07CCFD3
:10463000DF91CF911F910F91FF90EF90DF90CF907E
:10464000BF90AF909F908F900895F894CF93DF9391
:10465000EF93FF93C0E8D8E0E1E6F0E0C083D083B9
:10466000FF91EF91DF91CF9178940895F894CF93D3
:10467000DF93EF93FF93C0E8D1E0E1E6F0E0C08381
:10468000D083FF91EF91DF91CF9178940895F894C2
:10469000CF93DF93EF93FF93C0E8D0E0E1E6F0E043
:1046A000C083D083FF91EF91DF91CF9178940895EB
:1046B00080914D039927089580914E03992708957D
:1046C00080914F0399270895809150039927089569
:1046D00080915103909152030895809153039091DA
:1046E000540308959091550380911D03981729F064
:1046F00090931D0381E090E0089580E090E008959C
:104700009091560380911C03981729F090931C03F5
:1047100081E090E0089580E090E008959091570343
:1047200080911B03981729F090931B0381E090E080
:10473000089580E090E008950E944402853059F089
:1047400080914C03882339F483E080934C031092CA
:104750004903109248030895CF93DF93EC010E9420
:104760004402853059F082E080934C03D0934B0390
:10477000C0934A031092490310924803DF91CF91EE
:1047800008950E940C2084B5887F84BD16BC17BC98
:1047900084B5887F84BD80918100887F809381006B
:1047A000109280001092810080918100887F809318
:1047B00081002F982E9A1EB8409A00004098419A86
:1047C00000004198429A0000429880917A008F77C9
:1047D00080937A008091B000887F8093B00010921F
:1047E000B2000E944402813039F08AEF8093B30016
:1047F0008FE08093B00006C08CE98093B3008BE01B
:104800008093B00082E087BB80937000089542E0FF
:10481000842F992723E030E0FC01EE0FFF1FEE0FFD
:10482000FF1FE80FF91FEF5DFC4F8081818321504E
:10483000304031978FEF2F3F3807B9F7415040F79D
:1048400080B193B122B330B173B149B150B163B10A
:104850008295869586958370817092959F709270EF
:10486000892B269526952470822B3695369538709F
:10487000832B7071872B469546954072842B550F7C
:10488000550F5074852B6295607F6078862B8093DE
:104890001E0389B190B143B162B320B133B159B1B4
:1048A00070B182958F708170969596959270892BD4
:1048B0004470842B6870862B220F220F2071822B6C
:1048C0003295307F3072832B5295507F5074852BF8
:1048D0007295770F770F707C7078872B8093230306
:1048E00083B129B190B130B149B181702270822B6E
:1048F000990F990F9470892B32953F703870832BE4
:104900004295407F4071842B80932803A0914E03F1
:10491000B0914F0372E0872F99275FEF60E043E08B
:104920009C01220F331F220F331F280F391F225ED5
:104930003C4FF901E40FF11D80815823682B415051
:10494000C0F77130F9F0713048F07230F9F0715001
:1049500010F7A0934E03B0934F030AC0A0934E03E9
:10496000B0934F0380914D03582B652360934D0303
:10497000809157038F5F8093570382E090E00E94FD
:10498000BC4A45CFA52BA6237150C5CFB52BB62366
:104990007150C1CF42E0842F992723E030E0FC0121
:1049A000EE0FFF1FEE0FFF1FE80FF91FE05DFC4F3A
:1049B000808181832150304031978FEF2F3F38071E
:1049C000B9F7415040F780B180932D0393B189B17D
:1049D0009F738295880F880F807C982B9093320369
:1049E00089B192B329B132B3869586958570969533
:1049F00096959270892B22952F702870822B30719A
:104A0000832B80933703A0914E03B0914F0372E044
:104A1000872F99275FEF60E043E09C01220F331F4F
:104A2000220F331F280F391F235D3C4FF901E40F7C
:104A3000F11D80815823682B4150C0F77130F9F087
:104A4000713048F07230F9F0715010F7A0934E03B6
:104A5000B0934F030AC0A0934E03B0934F038091CD
:104A60004D03582B562350934D03809157038F5F6E
:104A70008093570382E090E00E94BC4A8BCFA52B25
:104A8000A6237150C5CFB52BB6237150C1CF23E0FB
:104A900030E0E1E4F3E080818183215030403197C0
:104AA0008FEF2F3F3807B9F780B18F7380933E03A4
:104AB00080913D03880F489B4CC0482F4E7F409308
:104AC0003D0380913C03880F499B40C0582F5E7F77
:104AD00050933C033FEF20E093E0E92FFF27E25C97
:104AE000FC4F80813823282B9150B8F780914D03DB
:104AF000382B232320934D03842F99278F71907097
:104B00008F319105D1F1892B39F5209150032E7FFA
:104B100020935003852F99278F7190708F319105C5
:104B200021F1892B19F42D7F209350034B9B22C038
:104B3000822F886080935003809157038F5F80930A
:104B4000570382E090E00E94BC4AA1CF582F5160E9
:104B5000BFCF482F4160B3CF20915003852F9927B5
:104B60008F7190708F319105E1F622602093500390
:104B70004B99DECF822F877FDDCF209150032160BC
:104B800020935003C7CFCF92DF92EF92FF920F9303
:104B90001F93CF93DF9391E090934C0357C08330E2
:104BA00009F45DC0963009F4D1C0973008F09AC07E
:104BB000933009F408C2943008F071C1913009F4BF
:104BC00076C2923009F4CCC2C0914803D091490317
:104BD0002091A30F4091A40F3091A60F0091A70F31
:104BE0001091A90F6996D0934903C093480380910F
:104BF000A20F8EB9409A000040982EB9419A000049
:104C000041984EB9429A000042988091A50F8EB902
:104C1000439A000043983EB9449A000044980EB964
:104C2000459A000045988091A80F8EB9469A0000D9
:104C300046981EB9479A00004798809155038F5FA8
:104C40008093550389E190E00E94BC4A0E9444028F
:104C5000853081F090914C03992309F0A0CF2091E9
:104C6000A30F4091A40F3091A60F0091A70F1091B0
:104C7000A90FBDCF90914C03943070F794E09093BE
:104C80004C03109249031092480380911210833014
:104C900009F480C04091A40F4C614093A40F30915F
:104CA000A60F30683093A60F0091A70F0360009302
:104CB000A70F1091A90F10671093A90F2091A30FB0
:104CC000C0914803D0914903C436D10508F48ACF76
:104CD000C0E0D0E0109249031092480395E0909311
:104CE0004C0380CF993009F417C19A3008F06AC09C
:104CF000973009F498C1983009F066CF809112106E
:104D0000833009F497C23091A60F30683093A60F14
:104D10000091A70F03600093A70F2091A30F40916C
:104D2000A40FC0914803D091490391E0C43FD90733
:104D300008F42AC2C0E0D0E0109249031092480360
:104D400099E090934C031091A90F4CCF80911210D1
:104D5000833009F459C14091A40F4C614093A40FD2
:104D60002091A30FC0914803D0914903B1E0C43F03
:104D7000DB0708F1C0E0D0E010924903109248032D
:104D800097E090934C033091A60F0091A70F1091DC
:104D9000A90F28CF2091A30F206F2093A30F40913C
:104DA000A40F4F614093A40F3091A60F0091A70F5D
:104DB0001091A90F85CF3091A60F0091A70F1091E8
:104DC000A90F10CF9A3009F492C19B3009F0FCCEA4
:104DD00080911210833009F40BC24091A40F437EDE
:104DE0004093A40F3091A60F3F773093A60F009108
:104DF000A70F0C7F0093A70F1091A90F1F78109396
:104E0000A90F2091A30FC0914803D091490381E0DD
:104E1000C43FD80708F4E6CEC0E0D0E010924903C2
:104E200010924803D0904603D394D0924603C0908A
:104E30001D10EC2CFF240894E11CF11CC70164E652
:104E400070E00E94174C77278CE99FEF689FF00174
:104E5000699FF00D789FF00D1124C7018E0F9F1FE1
:104E60006AE070E00E94174C7727CB01880F991FEA
:104E7000880F991F880F991F660F771F680F791F7A
:104E80008C2D8E0F8F5F861B09F48AE0D81608F4EC
:104E9000E0C11092460394E090934C03A3CE94306B
:104EA00009F4F3CE953009F08FCE80911210833043
:104EB00009F4AFC14091A40F437E4093A40F3091F9
:104EC000A60F3F773093A60F0091A70F0C7F00939A
:104ED000A70F1091A90F1F781093A90F2091A30F6E
:104EE000C0914803D0914903A3E0C438DA0708F41D
:104EF00079CEC0E0D0E0109249031092480310929E
:104F0000460380911D109927833691050CF413C137
:104F100096E090934C0366CE80911210833009F492
:104F20000EC14091A40F437E4093A40F3091A60F71
:104F30003F773093A60F0091A70F0C7F0093A70F28
:104F40001091A90F1F781093A90F2091A30FC09162
:104F50004803D0914903A1E0C43FDA0708F442CEE8
:104F6000C0E0D0E01092490310924803F09046034D
:104F7000F394F092460380911D10E82FFF2731969D
:104F8000CF0164E670E00E94174C77278CE99FEF11
:104F9000DC016A9FC0016B9F900D7A9F900D1124D8
:104FA0008E0F9F1F6AE070E00E94174C862F6623C9
:104FB00009F48AE0F81608F4BEC0109246039AE09D
:104FC00090934C030FCEE2EAFFE08FEF81939FE0D6
:104FD000EA3AF907D9F780919C0F8823E9F4C09148
:104FE0004803D091490380914A0390914B03C8171D
:104FF000D90708F4EDCDC0E0D0E01092490310923B
:10500000480310924C03E4CD2091A30F2067209316
:10501000A30F4091A40FA6CEC0E0D0E010924903A8
:1050200010924803D5CD80911210833009F4CFC07F
:105030004091A40F437E4093A40F3091A60F3F7779
:105040003093A60F0091A70F0C7F0093A70F10912C
:10505000A90F1F781093A90F2091A30FC0914803A7
:10506000D091490381E0C43FD80708F4BBCDC0E02C
:10507000D0E01092490310924803E0914603EF5F9D
:10508000E093460380911D109927019664E670E035
:105090000E94174C862F662309F48AE0E81708F46B
:1050A00037CF1092460398E090934C039BCDE2EAF1
:1050B000FFE08FEF81939FE0EA3AF907D9F7C091BB
:1050C0004803D0914903A3E0C83EDA0708F480CD35
:1050D000C0E0D0E0109249031092480380919C0FE9
:1050E000882309F48ECF93E090934C0371CD809187
:1050F0001210833009F463C01091A90F1067109348
:10510000A90F4091A40FC0914803D0914903B1E089
:10511000C43FDB0790F1C0E0D0E010924903109249
:1051200048039BE090934C032091A30F3091A60F6E
:105130000091A70F57CD98E090934C0353CD209149
:10514000A30F2F702093A30F4091A40F407E409394
:10515000A40F3091A60F0091A70F1091A90FF7CEC1
:1051600080919C0F882399F410924C03C0E0D0E00A
:1051700010924903109248032BCD2091A30F309138
:10518000A60F0091A70F2ECD1091A90F2BCD209126
:105190004A0330914B03C0914803D0914903C901A0
:1051A00096958795C817D90708F057C0E2EAFFE03F
:1051B0008FEF8193BFE0EA3AFB07D9F709CD409121
:1051C000A40F4C614093A40F1091A90F9CCF209184
:1051D000A30F2F702093A30F4091A40F407E409304
:1051E000A40F3091A60F0091A70F1091A90F36CFF1
:1051F0002091A30F2F702093A30F4091A40F407E06
:105200004093A40F3091A60F0091A70F1091A90F02
:10521000FACD2091A30F2F702093A30F4091A40FDC
:10522000407E4093A40F3091A60F0091A70F1091DC
:10523000A90F56CE2091A30F20682093A30F409171
:10524000A40F43604093A40F3091A60F0091A70FC5
:1052500068CD8AE080934C03C5CCC217D30708F011
:10526000DBCEE2EAFFE011928FE0EA3AF807D9F7E5
:10527000AFCCFF920F931F93CF93DF9381E0809386
:105280004C031FEFF12E21C080914C03882311F4B1
:105290000E9400218091A20F8EB9409A0000409890
:1052A0008091A30F8EB9419A000041988091A40F7C
:1052B0008EB9429A00004298809155038F5F809387
:1052C000550389E190E00E94BC4A0E944402182FD5
:1052D000853051F180914C038823E1F01330C1F205
:1052E000863009F461C08730E0F5833009F44FC19E
:1052F000843008F071C0813009F4E5C1823009F4CE
:105300000CC2C0914803D09149036996D0934903D8
:10531000C0934803112309F4B7CF143009F4B8CF70
:10532000133009F0B7CFB4CF80914C038430A0F68E
:1053300084E080934C03C0E0D0E0109249031092C7
:1053400048038091A20F88638093A20F8091A30FDE
:105350008E688093A30F8091A40F83608093A40F25
:10536000D4CF893009F4C8C08A3008F066C08730CD
:1053700009F433C1883029F68091A30F8E608093A1
:10538000A30FC0914803D0914903E1E0C43FDE0779
:1053900008F4BBCFC0E0D0E010924903109248035C
:1053A00089E080934C03B1CF8091A20F88638093F2
:1053B000A20FC0914803D0914903F1E0C43FDF0739
:1053C00008F4A3CFC0E0D0E0109249031092480344
:1053D00087E080934C0399CF843009F453C1853022
:1053E00009F08FCF8091A20F877C8093A20F8091CC
:1053F000A30F81778093A30F8091A40F8C7F80935C
:10540000A40FC0914803D0914903E3E0C438DE07FC
:1054100008F47BCFC0E0D0E010924903109248031B
:105420001092470380911D109927833691050CF443
:1054300070C186E080934C0368CF8A3009F405C1BF
:105440008B3009F05ECF8091A20F877C8093A20FF2
:105450008091A30F81778093A30F8091A40F8C7FFD
:105460008093A40FC0914803D091490381E0C43FC9
:10547000D80708F44ACFC0E0D0E010924903109258
:105480004803009147030F5F0093470340911D10AD
:10549000242F33272F5F3F4FC90164E670E00E943D
:1054A000174C77278CE99FEF689FF001699FF00DFB
:1054B000789FF00D1124C9018E0F9F1F6AE070E0E4
:1054C0000E94174C7727CB01880F991F880F991FCF
:1054D000880F991F660F771F680F791F4E0F4F5F58
:1054E000461B09F44AE0041708F43DC11092470333
:1054F00084E080934C0309CF8091A20F877C809336
:10550000A20F8091A30F81778093A30F8091A40FA6
:105510008C7F8093A40FC0914803D0914903F1E0A0
:10552000C43FDF0708F4F1CEC0E0D0E01092490399
:1055300010924803409147034F5F409347032091E7
:105540001D1033272F5F3F4FC90164E670E00E94B2
:10555000174C77278CE99FEFFC016E9FC0016F9F6E
:10556000900D7E9F900D1124820F931F6AE070E0D2
:105570000E94174C862F662309F48AE0481708F426
:10558000C8C0109247038AE080934C03BECEF092CD
:10559000A20FF092A30F8093A40F80919C0F8823F9
:1055A000A9F4C0914803D091490380914A03909196
:1055B0004B03C817D90708F4A8CEC0E0D0E010927A
:1055C00049031092480310924C039FCEC0E0D0E0F4
:1055D000109249031092480398CE8091A20F877CC5
:1055E0008093A20F8091A30F81778093A30F809166
:1055F000A40F8C7F8093A40FC0914803D0914903DE
:1056000081E0C43FD80708F480CEC0E0D0E010921B
:10561000490310924803209147032F5F20934703CB
:1056200080911D109927019664E670E00E94174C46
:10563000862F662309F48AE0281708F4FACE109220
:10564000470388E080934C0360CE8091A30F80686D
:105650008093A30F8091A40F83608093A40FC091C7
:105660004803D0914903F1E0C43FDF0708F44DCE71
:10567000C0E0D0E010924903109248038BE0809381
:105680004C0343CE8091A20F88638093A20F809138
:10569000A30F8E688093A30F8091A40F83608093E3
:1056A000A40FC0914803D0914903C436D10508F432
:1056B0002CCEC0E0D0E0109249031092480385E060
:1056C00080934C0322CEF092A20FF092A30F83E0BE
:1056D0008093A40FC0914803D091490383E0C83E52
:1056E000D80708F412CEC0E0D0E01092490310921F
:1056F000480380919C0F882399F18091121081308A
:1057000021F080911910882359F583E080934C0390
:10571000FCCD88E080934C03F8CD80919C0F8823CA
:1057200049F410924C03C0E0D0E01092490310926B
:105730004803EBCD20914A0330914B03C0914803BD
:10574000D0914903C90196958795C817D90778F470
:10575000F092A20FF092A30F83E08093A40FD5CD17
:1057600010924C03CECD8AE080934C03CECDC2176D
:10577000D30708F02BCF1092A20F1092A30F109214
:10578000A40FC3CDAF92BF92CF92DF92EF92FF9260
:105790000F931F93CF93DF93CDB7DEB72C970FB640
:1057A000F894DEBF0FBECDBF8AE090E0909359031E
:1057B0008093580388EE93E090935B0380935A03A1
:1057C00020EA3FE030935D0320935C0384E1809303
:1057D0005E038AE580935F0382E38093600384EF36
:1057E00091E090936203809361038CEA9DE0909333
:1057F00064038093630330936603209365038CE313
:105800008093670387E3809368038FE58093690340
:1058100043E0A42EB12CAC0EBD1EEE24FF2400E00C
:1058200010E06E010894C11CD11C96014AE050E0C2
:10583000B50182E195EB0E94CB18892BF9F489819F
:105840009A810997D9F48B819C8190935903809315
:1058500058038D819E8190935B0380935A038F81BF
:10586000988590935D0380935C03898580935E03A4
:105870008A8580935F038B8580936003EE24FF24E9
:1058800000E010E096014AE050E0B50181E195EBBF
:105890000E94CB18892BF9F489819A810997D9F450
:1058A0008B819C8190936203809361038D819E81A3
:1058B00090936403809363038F819885909366032C
:1058C000809365038985809367038A858093680345
:1058D0008B858093690381E080937E0010927C0029
:1058E00087E080937A0010927B0080917A00806834
:1058F00080937A0080917A00806480937A0080EAB5
:105900009FE0909389008093880080ED97E09093CA
:105910008B0080938A0090938D0080938C008FE39E
:10592000809380008AE1809381008AEF90E00E945A
:10593000BC4A20917800809179009927982F882778
:10594000820F911D909345038093440319C00E94D8
:1059500013204AE653E068E573E0C8010E944A223A
:105960000E9419204AE753E061E673E0C8010E94F3
:105970004A220E942920809156038F5F809356030C
:1059800080917A00806480937A008AEF90E00E9490
:10599000BC4A20917800809179009927582F44279C
:1059A000420F511D8091440390914503480F591FA8
:1059B0005093450340934403809143038F5F80934A
:1059C0004303992783709070892BA9F6CA0165E07B
:1059D00070E00E94034C8B01709345036093440375
:1059E000709354036093530380912810882309F423
:1059F000AECF80919C0F882309F0A9CF0E940C2084
:105A0000B1CF2F923F924F925F926F927F928F927F
:105A10009F92AF92BF92CF92DF92EF92FF920F933D
:105A20001F93CF93DF93CDB7DEB761970FB6F8948E
:105A3000DEBF0FBECDBF1C0172E0472E512C4C0EB5
:105A40005D1E88E0F20111928A95E9F76AE0662E00
:105A5000712C6C0E7D1ED301F10188E001900D9236
:105A60008150E1F751EB852E53E0952E62015E01E6
:105A70000894A11CB11C740100E010E041E050E06A
:105A8000B701C5010E94664B298121502983822FCD
:105A9000869586958695F301E80FF11D80819927FB
:105AA000AA27BB27277004C0B595A795979587951A
:105AB0002A95D2F781709070892B61F081E090E097
:105AC000002E02C0880F991F0A94E2F7F601208188
:105AD000282B20830F5F1F4F0894E11CF11C083016
